:020000040000FA
:100000000C94D1110C948AB40C945FB40C9434B455
:100010000C9409B40C94DEB30C94B3B30C9488B371
:100020000C945DB30C9402120C9402120C94021204
:100030000C9402120C94F5A70C9402120C94021268
:100040000C9402120C944F370C9402120C9402126E
:100050000C9402120C9402120C94AE410C9413B343
:100060000C9402120C94819A0C9402120C940212B9
:100070000C9402120C9402120C9402120C940212B0
:100080000C9402120C9402120C9402120C940212A0
:100090000C9402120C9402120C9402120C94021290
:1000A0000C9402120C9402120C9402120C94021280
:1000B0000C9402120C9402120C9402120C94021270
:1000C0000C9402120C9402120C9402120C94021260
:1000D0000C9402120C9402120C9466320C94273287
:1000E0000C940212084AD73B3BCE016E84BCBFFD84
:1000F000C12F3D6C74319ABD56833DDA3D00C77FF8
:1001000011BED9E4BB4C3E916BAAAABE0000008090
:100110003F05A84CCDB2D44EB93836A9020C50B91F
:10012000918688083CA6AAAA2ABE000000803F004B
:100130000C94F59E0C94B09E0C948F7E0C9441AF61
:100140000C941E790C94B2750C94047E0C940443A8
:100150000C9417760C941C120C94A37D0C942B43D6
:100160000C94447E0C949D7B0C9414430C94C77D9A
:100170000C94AC140C94377A0C94C79E0C9497345E
:100180000C94037B0C94DE120C947DC60C9490149A
:100190000C94E57A0C94997A0C9447C50C9404AFAE
:1001A0000C940C430C94A72D0C9437780C94B1123A
:1001B0000C9421430C9428AF0C9432AF0C9478A289
:1001C0000C94BE9E0C94067A0C949BC60C94194316
:1001D0000C9439A40C9436A40C94F77D0C94827E74
:1001E0000C94E1AE0C94999E0C943C9E0C94991B3B
:1001F0000C9477750C9409430C94867E0C94BF7A0A
:100200000C94E6AE0C94677A0C9408A90C94DB1D50
:100210000C94BC120C94CC9E0C94D07D0C94277D35
:100220000C94CC7D0C94C89E0C94155D0C94317E7E
:100230000C9434750C94A5780C94B51B0C9493B85D
:100240000C94AF9A0C94FD200C94FAAE0C94D9AE99
:100250000C941EAF0C94BA9E0C9409210C94527D00
:100260000C9476A20C94F7120C94CCB70C94BE426A
:100270000C9411430C9469AF0C94E0140C94BC17CB
:100280000C9444750C940CAF0C9491140C94E942AA
:100290000C9455AF0C944BAF0C94797D0C94663F45
:1002A0000C948D9E0C9492750C9450420C94751283
:1002B0000C94DC7D0C94811F0C94919E0C94CF1CAB
:1002C0000C9489B80C94B1B50C941C430C94D07563
:1002D0000C94AC9E0C94B49E0C949F190C94577E75
:1002E0000C94DFA90C9404120C94959E0C94032199
:1002F0000C94547B0C94947D0C94A71B0C94E67581
:100300000C94C29E0C948A780C94815B0C94D94214
:100310000C946DBA0C94FC7C0C94879E0C9456A3A0
:100320000C9414AF0C94A29E0C94DF770C948D76F1
:100330000C945FAF0C942B770C943D210C949C9EF5
:100340000C94C31B0C946A7E0C94A7B50C94A69EC7
:100350000C94947E0C9405120C9473AF0C947CB6A0
:100360000C94F0AE4E414E494E495459494E46CD3B
:10037000CCCC3D0AD7233C17B7D13877CC2B32955C
:1003800095E6241FB14F0A000020410000C842003A
:10039000401C4620BCBE4CCA1B0E5AAEC59D7443C1
:1003A0004F4D4D554E49434154494F4E00445259CB
:1003B00052554E004552524F525300494E464F003F
:1003C0004543484F001000C90210012C0140012292
:1003D0000170011801B0010E01F00104015002FA90
:1003E00000B002F0003003E600D003DC009004D23D
:1003F000007005C800A006BE000008B400B009AA3D
:1004000000D00BA000600E960060118C00001582D9
:100410000020197800C01D6E00A0226400B0275A89
:1004200000902C500000314600E0343C001038327F
:1004300000903A2800603C1E00A03D1400803E0A57
:1004400000203F00004800470046004500440043AC
:10045000004200410041343456004A3032004A31F3
:100460003600480057004134355600473120583196
:100470003030205931303020205A35302046353048
:100480003030004731205A302E313520463330305D
:10049000004731205833302059313930204635302B
:1004A0003030004731205A35204635303000473152
:1004B000205A302E31352046333030004731205815
:1004C000313930205931393020463530303000470D
:1004D00031205A352046353030004731205A302EF1
:1004E0003135204633303000473120583139302003
:1004F000593330204635303030004731205A3520CE
:1005000046353030004731205A302E3135204633C1
:1005100030300047312058333020593330204635B1
:10052000303030004731205A3520463530300056C3
:10053000312E322E39004A3333200073746F70200D
:100540007072696E74206E657874206D6F646520BA
:10055000004A3032004A31320047393000473120FA
:100560004525694635303000473120452D302E3144
:100570004625690047312045302E31462569004720
:1005800031205A2569462569004731205A2D302EE1
:1005900031462569004731205A302E314625690001
:1005A00047312059256946256900473120592D30AA
:1005B0002E314625690047312059302E31462569B4
:1005C0000047312058256946256900473120582DBC
:1005D000302E314625690047312058302E314625CE
:1005E00069004739310047323800473238205A0015
:1005F00047323820590047323820580041323056AF
:1006000020004F4B004A3036004D313037004D3816
:1006100034004A3034004A3136004A3138004A301A
:100620003500454E4400464E20004A3032003939EC
:10063000393A393939004D004800413756200041D8
:100640003656202D2D2D0041365620005A3A2000D6
:10065000593A2000583A200041355600413456207E
:1006600000413356200041325620004131562000CF
:10067000413056200045525220004D313130004A61
:100680003130004B494C4C45442E200053544F50C0
:100690005045442E20005072696E74657220737448
:1006A0006F707065642064756520746F2065727268
:1006B0006F72732E204669782074686520657272A7
:1006C0006F7220616E6420757365204D3939392051
:1006D000746F20726573746172742E202854656D76
:1006E00070657261747572652069732072657365D7
:1006F000742E2053657420697420616674657220BD
:1007000072657374617274696E67290A004E6F2096
:100710004C696E65204E756D6265722077697468EC
:1007200020636865636B73756D2C204C6173742056
:100730004C696E653A20004E6F20436865636B73A9
:10074000756D2077697468206C696E65206E756DB3
:100750006265722C204C617374204C696E653A207E
:1007600000636865636B73756D206D69736D61748B
:1007700063682C204C617374204C696E653A2000CC
:100780004C696E65204E756D626572206973206ECE
:100790006F74204C617374204C696E65204E756DCA
:1007A0006265722B312C204C617374204C696E652C
:1007B0003A20004D3131300053442072656164208D
:1007C0006572726F720A00446F6E65207072696E96
:1007D00074696E672066696C650A0020496E7661EF
:1007E0006C6964206578747275646572200000001D
:1007F00057430000574300004E4300000000000034
:100800000000000000002042403A0020403A002052
:100810002F0020423A00202F0020543A004A303363
:10082000004A3034004A30370048656174696E67A9
:1008300020646F6E652E003F0A0020573A004A3050
:10084000360048656174696E672E2E2E0033442091
:100850005072696E7465722072656164792E002031
:100860005A3A0020593A0020436F756E7420583A66
:10087000200020453A00205A3A0020593A00583AC0
:100880000023646566696E65202044454641554CE9
:10089000545F4B64200023646566696E65202044C4
:1008A000454641554C545F4B692000236465666999
:1008B0006E65202044454641554C545F4B702000E6
:1008C000504944204175746F74756E652066696E79
:1008D0006973686564212050757420746865206CA4
:1008E000617374204B702C204B6920616E64204B27
:1008F0006420636F6E7374616E74732066726F6DC3
:100900002062656C6F7720696E746F20436F6E662E
:10091000696775726174696F6E2E680A0050494488
:10092000204175746F74756E65206661696C6564CD
:10093000212074696D656F75740A00504944204127
:1009400075746F74756E65206661696C65642120CD
:1009500054656D706572617475726520746F6F2077
:10096000686967680A00204B643A2000204B693AA6
:100970002000204B703A20000A20436C6173736999
:100980006320504944200A002054753A2000204B2F
:10099000753A2000206D61783A2000206D696E3A2A
:1009A000200020643A200020626961733A200047E9
:1009B000322F47332062616420706172616D65740B
:1009C0006572730A00536C6565702E2E2E004A30D6
:1009D00034003344205072696E7465722072656110
:1009E00064792E00526573756D696E672070726947
:1009F0006E74005761697420666F7220757365723A
:100A00002E2E2E00536C6565702E2E2E00536C65B5
:100A100065702E2E2E004E6F206D6F76652E004570
:100A20006E642066696C65206C6973740A004265A7
:100A300067696E2066696C65206C6973740A00537F
:100A400044207072696E74696E67206279746520E3
:100A5000004E6F74205344207072696E74696E6723
:100A60000A0044656C6574696F6E206661696C6527
:100A7000642C2046696C653A200046696C652064E8
:100A8000656C657465643A006F70656E20666169B7
:100A90006C65642C2046696C653A200025697300FA
:100AA00025696D20256973002569682025696D20F9
:100AB00025697300256964202569682025696D20F2
:100AC00025697300256979202569642025696820D6
:100AD00025696D20256973005072696E74207469F0
:100AE0006D653A200048656174696E672E2E2E0090
:100AF0003344205072696E74657220726561647946
:100B00002E006F666600C003BB03B403AD039F03F2
:100B100044454255473A004B494C4C45442E200031
:100B20006F6B0042656420646F6E652E004A303939
:100B3000003F0A0020573A0042656420486561740E
:100B4000696E672E004A3038003344205072696E57
:100B5000746572204F66662E004649524D574152C9
:100B6000455F4E414D453A4D61726C696E20312EA4
:100B7000312E302D52433820284769746875622918
:100B800020534F555243455F434F44455F55524CA8
:100B90003A68747470733A2F2F6769746875622E9F
:100BA000636F6D2F4D61726C696E4669726D77610E
:100BB00072652F4D61726C696E2050524F544F43D5
:100BC0004F4C5F56455253494F4E3A312E30204DCF
:100BD000414348494E455F545950453A33442050AB
:100BE00072696E7465722045585452554445525F7F
:100BF000434F554E543A3120555549443A63656444
:100C000065326132662D343161322D343734382DFE
:100C1000396231322D6335356336326633363766A5
:100C2000660A004D31343520533C696E6465783E68
:100C3000206F7574206F662072616E6765202830A2
:100C40002D31290A0053657474696E6720547261EE
:100C500076656C20416363656C65726174696F6E63
:100C60003A200053657474696E672052657472612E
:100C7000637420416363656C65726174696F6E3A79
:100C8000200053657474696E67205072696E742019
:100C9000416363656C65726174696F6E3A200053DD
:100CA000657474696E67205072696E7420616E6439
:100CB0002054726176656C20416363656C65726176
:100CC00074696F6E3A20005A20456E6473746F70B9
:100CD0002041646A7573746D656E74207365742049
:100CE000746F20286D6D293A00205A002059005851
:100CF0000020204D61783A2000205A0020590058E9
:100D00000020204D696E3A20004F6E20004F66662D
:100D100000536F667420656E6473746F70733A204D
:100D20000020643A0020693A0020703A004572724F
:100D30003A20546F6F206661722100546F6F2066F5
:100D400061722066726F6D207265666572656E6392
:100D50006520706F696E740A004F66667365747300
:100D6000206170706C696564004163746976652008
:100D700045787472756465723A2000556E6B6E6FBB
:100D8000776E20636F6D6D616E643A20220052654C
:100D900073656E643A20006F6B003420793D003338
:100DA00020783D003220793D003120783D004732E7
:100DB00038205830205930004A3135004A3233004B
:100DC0004B494C4C45442E20004B494C4C45442E3D
:100DD0002000506C65617365207265736574005006
:100DE00052494E5445522048414C5445440050729B
:100DF000696E7465722068616C7465642E206B691D
:100E00006C6C28292063616C6C6564210A00000009
:100E1000000000000000000000005761726E696E63
:100E2000673A20486F6D696E672042756D70204487
:100E3000697669736F72203C20310A000000A0407F
:100E40000000A0400000004000005743000057434E
:100E500000004E43FFFFFF7C3C3E5E2B3D3F2F5B7F
:100E60005D3B2C2A225C004572726F72207772699A
:100E700074696E6720746F20454550524F4D210AAA
:100E800000206279746573290A0053657474696E71
:100E900067732053746F7265642028004545505273
:100EA0004F4D20636865636B73756D206D69736D5D
:100EB000617463680A00206279746573290A0020EE
:100EC00073746F7265642073657474696E677320E0
:100ED0007265747269657665642028004861726481
:100EE000636F6465642044656661756C7420536546
:100EF0007474696E6773204C6F616465640A0020C6
:100F0000204D3230302044300A0020204D32303025
:100F10002044002044697361626C65640A0046697C
:100F20006C616D656E742073657474696E67733A75
:100F30000020440020490020204D33303120500053
:100F40005049442073657474696E67733A0A0020CF
:100F5000460020420020480020204D3134352053E7
:100F6000004D6174657269616C20686561747570AB
:100F700020706172616D65746572733A0A00202099
:100F80004D363636205A005A3220456E6473746FDF
:100F9000702061646A7573746D656E7420286D6D60
:100FA000293A0A00205A0020590020204D323036BC
:100FB000205800486F6D65206F6666736574202841
:100FC0006D6D290A00204500205A00205900205844
:100FD0000020420020540020204D323035205300A4
:100FE000416476616E636564207661726961626CEA
:100FF00065733A20533D4D696E2066656564726184
:10100000746520286D6D2F73292C20543D4D696E19
:101010002074726176656C206665656472617465C2
:1010200020286D6D2F73292C20423D6D696E696DEE
:10103000756D207365676D656E742074696D6520CC
:10104000286D73292C20583D6D6178696D756D2070
:101050005859206A65726B20286D6D2F73292C20DA
:10106000205A3D6D6178696D756D205A206A6572F0
:101070006B20286D6D2F73292C2020453D6D6178E4
:10108000696D756D2045206A65726B20286D6D2F26
:1010900073290A0020540020520020204D323034A1
:1010A000205000416363656C65726174696F6E7393
:1010B0003A20503D7072696E74696E672C20523D03
:1010C0007265747261637420616E6420543D747241
:1010D0006176656C0A00204500205A0020590020E6
:1010E000204D3230312058004D6178696D756D208A
:1010F000416363656C65726174696F6E20286D6D04
:101100002F7332293A0A00204500205A0020590046
:1011100020204D3230332058004D6178696D756D57
:101120002066656564726174657320286D6D2F7328
:10113000293A0A00204500205A0020590020204D5D
:1011400039322058005374657073207065722075B1
:101150006E69743A0A007A325F6D696E3A20007ADD
:101160005F6D696E3A2000795F6D696E3A20007894
:101170005F6D696E3A20005265706F7274696E67B8
:1011800020656E6473746F70207374617475730A74
:101190000024F4D43050C38E20C2A24017828B703A
:1011A00011127A910D816CD90AA861E108C75866BD
:1011B00007615143061E4B5D05C145A7041A411145
:1011C00004093D9803713931034036DB02653391E0
:1011D00002D4305402802E1D02632CEE01752AC504
:1011E00001B028A001102781018F2564012B244B19
:1011F00001E0223401AC211F018D200D01801FFC74
:1012000000841EED00971DDF00B81CD200E61BC64F
:1012100000201BBC00641AB200B219A8000A19A071
:10122000006A189900D117910040178B00B51684F9
:101230000031167E00B31579003A157300C7146F9C
:101240000058146A00EE1366008813630025135ECD
:1012500000C7125B006C12570015125400C11151E7
:101260000070114F0021114B00D61049008D10471E
:10127000004610440002104200C00F4000800F3EA4
:1012800000420F3C00060F3B00CB0E3800930E3798
:10129000005C0E3500270E3400F30D3200C10D3115
:1012A00000900D3000600D2E00320D2D00050D2C2C
:1012B00000D90C2B00AE0C2900850C29005C0C27F2
:1012C00000350C27000E0C2600E80B2400C40B246C
:1012D00000A00B23007D0B23005A0B2100390B21AA
:1012E00000180B2000F80A1F00D90A1E00BB0A1EB6
:1012F000009D0A1D00800A1D00630A1C00470A1B8E
:10130000002C0A1B00110A1A00F7091A00DD09193E
:1013100000C4091900AB091900920917007B0918CC
:1013200000630917004C091600360916002009163B
:10133000000A091500F5081500E0081400CC08148F
:1013400000B8081400A4081400900813007D0812C7
:10135000006B0813005808120046081200340811E8
:1013600000230811001208110001081100F00710F5
:1013700000E0071000D0071000C0071000B0070FF2
:1013800000A107100091070E0083070F0074070FDC
:101390000065070E0057070E0049070E003B070DBA
:1013A000002E070E0020070D0013070D0006070D85
:1013B00000F9060C00ED060D00E0060C00D4060C4A
:1013C00000C8060C00BC060C00B0060C00A4060BFE
:1013D0000099060C008D060B0082060B0077060BA9
:1013E000006C060B0061060A0057060B004C060A4B
:1013F0000042060A0038060A002E060A0024060AE1
:10140000001A060A001006090007060A00FD050971
:1014100000F4050900EB050900E2050900D90509FA
:1014200000D0050900C7050900BE050900B505087B
:1014300000AD050800A50509009C050800940508F5
:10144000008C050800840508007C05080074050868
:10145000006C050700650508005D050700560508D6
:10146000004E05070047050700400508003805073E
:1014700000310507002A050700230507001C0506A3
:1014800000160507000F05070008050600020507FE
:1014900000FB040600F5040700EE040600E804065D
:1014A00000E2040700DB040600D5040600CF0406B2
:1014B00000C9040600C3040600BD040600B7040604
:1014C00000B1040500AC040600A6040600A0040553
:1014D000009B04060095040500900406008A04059C
:1014E0000085040500800406007A040500750405E3
:1014F00000700405006B0405006604050061040526
:10150000005C04050057040500520405004D040565
:101510000048040500430405003E0404003A0405A5
:101520000035040500300404002C040500270404E1
:1015300000230405001E0404001A04040016040518
:1015400000110404000D040400090405000404044F
:101550000000040400FC030400F8030400F4030486
:1015600000F0030400EC030400E8030400E40304B7
:1015700000E0030400DC030400D8030400D40304E7
:1015800000D0030400CC030400C8030300C5030318
:101590000024F404D9201BC40C5C0E9804C4095F19
:1015A0000265077101F405F900FB04B300480487E4
:1015B00000C10369005803550003034500BE023A09
:1015C000008402310053022A00290225000402206F
:1015D00000E4011C00C8011900AF011700980114B4
:1015E0000084011300710110006101100051010E0F
:1015F0000043010D0036010B002B010B0020010BF5
:1016000000150109000C01090003010800FB000896
:1016100000F3000800EB000700E4000600DE00060F
:1016200000D8000600D2000600CC000500C7000567
:1016300000C2000500BD000400B9000400B50004AC
:1016400000B1000400AD000400A9000400A50003DF
:1016500000A20003009F0004009B00030098000309
:10166000009500020093000300900003008D00022B
:10167000008B000300880002008600020084000343
:1016800000810002007F0002007D0002007B00025A
:101690000079000200770001007600020074000269
:1016A0000072000100710002006F0002006D000175
:1016B000006C0002006A000100690002006700017E
:1016C0000066000100650001006400020062000184
:1016D0000061000100600001005F0002005D000188
:1016E000005C0001005B0001005A0001005900018C
:1016F000005800010057000100560001005500018C
:10170000005400010053000000530001005200018A
:101710000051000100500001004F0001004E000088
:10172000004E0001004D0001004C0001004B000084
:10173000004B0001004A0001004900010048000080
:10174000004800010047000100460000004600017B
:101750000045000000450001004400010043000076
:10176000004300010042000000420001004100006F
:101770000041000100400001003F0000003F000167
:10178000003E0000003E0001003D0000003D000161
:10179000003C0000003C0000003C0001003B000059
:1017A000003B0001003A0000003A0001003900004F
:1017B0000039000100380000003800000038000146
:1017C000003700000037000100360000003600003E
:1017D0000036000100350000003500000035000132
:1017E0000034000000340000003400010033000029
:1017F000003300000033000100320000003200001E
:101800000032000100310000003100000031000111
:10181000003000000030000000300001002F000008
:10182000002F0000002F0000002F0001002E0000FC
:10183000002E0000002E0001002D0000002D0000F1
:10184000002D0000002D0001002C0000002C0000E5
:10185000002C0000002C0001002B0000002B0000D9
:10186000002B0000002B0001002A0000002A0000CD
:10187000002A0000002A00010029000000290000C1
:1018800000290000002900000029000100280000B4
:1018900000280000002800000028000000280001A7
:1018A000002700000027000000270000002700009C
:1018B000002700010026000000260000002600008E
:1018C0000026000000260001002500000025000081
:1018D0000025000000250000002500000025000173
:1018E0000024000000240000002400000024000068
:1018F000002400010023000000230000002300005A
:10190000002300000023000000230000002300014A
:10191000002200000022000000220000002200003F
:101920000022000000220001002100000021000030
:101930000021000000210000002100000021000023
:101940000021000100200000002000000020000015
:101950000020000000200000002000000020000007
:1019600000200001001F0000001F0000001F0000F9
:10197000001F0000001F0000001F0000001F0001EA
:10198000001E0000001E0000001E0000001E0000DF
:10199000004D383420582059205A20450062656493
:1019A0000A002C2073797374656D2073746F7070E6
:1019B000656421204865617465725F49443A20007E
:1019C000544845524D414C2052554E4157415900C3
:1019D000546865726D616C2052756E617761790033
:1019E0004A31300048656174696E67206661696CD0
:1019F00065640048656174696E67206661696C653D
:101A000064004A31300070012C0190012701B001BF
:101A10002201C0011D01F001180110021301300262
:101A20000E016002090190020401C002FF000003E0
:101A3000FA004003F5008003F000D003EB0020041F
:101A4000E6007004E100E004DC004005D700C005BA
:101A5000D2004006CD00D006C8008007C300300881
:101A6000BE00F008B900C009B400B00AAF00B00B66
:101A7000AA00D00CA500000EA000500F9B00C010C3
:101A800096005012910000148C00C0158700B0170A
:101A90008200B0197D00D01B7800001E730040202A
:101AA0006E0090226900F024640040275F009029B6
:101AB0005A00E02B5500102E500020304B00103201
:101AC0004600E033410090353C0010373700703855
:101AD0003200A0392D00B03A2800A03B2300603C22
:101AE0001E00103D1900903D1400103E0F00703E86
:101AF0000A00C03E0500003F00004572723A204DCA
:101B0000415854454D5020424544004572723A2098
:101B10004D415854454D50004D415854454D50206D
:101B2000747269676765726564004572723A204D28
:101B3000494E54454D5020424544004572723A206A
:101B40004D494E54454D50004D494E54454D502041
:101B5000747269676765726564004A3130004A31A2
:101B6000300025753A2530327500253032753A251A
:101B7000303275002D2D2D005344005A0059005865
:101B8000000120000120004E6F2053442063617249
:101B900064005072696E742066726F6D2053440049
:101BA00053746F70207072696E7400526573756D36
:101BB00065207072696E7400506175736520707273
:101BC000696E7400436F6E74726F6C005072657052
:101BD0006172650054756E6500496E666F207363AF
:101BE0007265656E00466C6F7700466C6F770046D5
:101BF000616E2073706565640046616E2073706568
:101C000065640042656400426564004E6F7A7A6CD8
:101C100065004E6F7A7A6C65005370656564005399
:101C200070656564004D61696E005072656865613C
:101C30007420504C412042656400507265686561B3
:101C40007420504C41005072657061726500507292
:101C5000656865617420414253204265640050729A
:101C6000656865617420414253005072657061720D
:101C700065004D34323800436F6F6C646F776E00CF
:101C80005072656865617420414253005072656806
:101C900065617420504C41004D38340044697361D3
:101CA000626C65207374657070657273004D6F7639
:101CB0006520617869730053657420686F6D6520D5
:101CC0006F66667365747300473238004175746FD0
:101CD00020686F6D65004D61696E004D6F766520FF
:101CE00058004D6F76652059004D6F7665205A007B
:101CF00045787472756465720045787472756465B0
:101D000072004D6F7665205A004D6F766520590040
:101D10004D6F76652058004D6F7665206178697348
:101D2000004D6F766520302E316D6D004D6F7665FC
:101D300020316D6D004D6F76652031306D6D005036
:101D400072657061726500526573746F72652066AA
:101D500061696C73616665004C6F6164206D656DCF
:101D60006F72790053746F7265206D656D6F727953
:101D70000046696C616D656E74004D6F74696F6EBD
:101D80000054656D7065726174757265004D6169AE
:101D90006E00507265686561742041425320636F24
:101DA0006E66005072656865617420504C41206316
:101DB0006F6E66005049442D44005049442D440044
:101DC0005049442D49005049442D49005049442D63
:101DD00050005049442D5000200220466163740099
:101DE00020022046616374002002204D61780020AB
:101DF00002204D6178002002204D696E00200220F3
:101E00004D696E004F6666004F6E20004175746F1D
:101E100074656D700046616E207370656564004680
:101E2000616E20737065656400426564004265649C
:101E3000004E6F7A7A6C65004E6F7A7A6C6500435B
:101E40006F6E74726F6C0053746F7265206D656D88
:101E50006F72790042656400426564004E6F7A7A61
:101E60006C65004E6F7A7A6C650046616E20737007
:101E70006565640046616E20737065656400546535
:101E80006D70657261747572650045737465707309
:101E90002F6D6D005A73746570732F6D6D005973DB
:101EA000746570732F6D6D005873746570732F6D4A
:101EB0006D00412D74726176656C00412D72657400
:101EC0007261637400416D6178204500416D6178F5
:101ED000205A00416D6178205900416D6178205889
:101EE000005654726176206D696E00566D696E0001
:101EF000566D6178204500566D6178205A00566D08
:101F00006178205900566D617820580056652D6A19
:101F100065726B00567A2D6A65726B0056792D6A70
:101F200065726B0056782D6A65726B00416363655C
:101F30006C00436F6E74726F6C0046696C2E2044A7
:101F400069612E004F6666004F6E20004520696E65
:101F5000206D6D3300436F6E74726F6C00052E2E12
:101F6000004D61696E004A30310043617264207235
:101F7000656D6F766564004A30300043617264209D
:101F8000696E736572746564000000210024002787
:101F9000002A002D00300033000101000004010779
:101FA000010A01000020002300260029002C002F38
:101FB0000032000001000003010601090100000ACF
:101FC0000B02090C0D0E08070304010000000000BD
:101FD0000000000000000000000000000000000001
:101FE00000000000000000000012111000000000BE
:101FF00000000000000000000000000000000000E1
:102000000000002020506C616E6E6572427566663D
:10201000657242797465733A2000204672656520C6
:102020004D656D6F72793A2000436F6D70696C6514
:10203000643A204A756E20323320323032320A0040
:10204000207C20417574686F723A20284A6F6C6C4E
:10205000792C2078787878787878782E434F2E29E4
:102060000A00323031362D31322D30362031323ABD
:10207000303000204C617374205570646174656465
:102080003A2000312E312E302D5243380A0056317D
:102090002E322E390A0020536F66747761726520E4
:1020A00052657365740A00205761746368646F67D2
:1020B0002052657365740A002042726F776E206F3C
:1020C00075742052657365740A00204578746572D2
:1020D0006E616C2052657365740A00506F7765728B
:1020E00055700A004A3132004A3137007374617208
:1020F000740A004731205A2B323020452D350047D5
:102100003120452D3500473931006572726F7220DC
:1021100077726974696E6720746F2066696C650AEE
:10212000004A3132004A3033004731205A256920B5
:102130004635303000473238004A3330004A3330B9
:10214000004A3239004A3239004A313800446F6E51
:102150006520736176696E672066696C652E0A007A
:102160004D3239004A3134004D3331004D3834207E
:10217000582059205A20450057726974696E6720AB
:10218000746F2066696C653A20004A3231006F70C6
:10219000656E206661696C65642C2046696C653AE1
:1021A00020004A3231006F70656E206661696C658F
:1021B000642C2046696C653A20004A32300046693A
:1021C0006C652073656C65637465640A00205369EF
:1021D0007A653A200046696C65206F70656E6564AB
:1021E0003A20004A3231006F70656E206661696C7A
:1021F00065642C2046696C653A20002066696C6530
:102200003A20004E6F7720002220706F730022204A
:10221000706172656E743A2200535542524F5554A4
:10222000494E452043414C4C207461726765743AB5
:1022300022004B494C4C45442E2000747279696E43
:102240006720746F2063616C6C207375622D676307
:102250006F64652066696C657320776974682074A3
:102260006F6F206D616E79206C6576656C732E20C2
:102270004D4158206C6576656C2069733A0047398A
:1022800030004731205A2D3230006175746F256956
:102290002E67004D3234004D323320257300656EB9
:1022A0007175657565696E6720220053442063610E
:1022B0007264206F6B0A006F70656E526F6F7420CE
:1022C0006661696C65640A00766F6C756D652E6970
:1022D0006E6974206661696C65640A004572726F8C
:1022E000723A00534420696E6974206661696C0A11
:1022F000006563686F3A0001021020200808102072
:102300004010204080020102010804020101020481
:102310000810204080804020100804020180040240
:102320000180402010080402010804020101020497
:102330000810204080010204081020408000002284
:1023400000250028002B002E00310034000201007F
:1023500000050108010B010505050507050808082A
:1023600008020202020A0A08080404040401010126
:10237000010101010103030303030303030407072E
:10238000070C0C0C0C0C0C0C0C02020202060606CC
:1023900006060606060B0B0B0B0B0B0B0B029BC664
:1023A0007DC611241FBECFEFD1E2DEBFCDBF00E05E
:1023B0000CBF15E0A0E0B2E0EAE7FBEB01E00BBFE9
:1023C00002C007900D92A235B107D9F727E1A2E527
:1023D000B5E001C01D92A533B207E1F711E1C0EDF0
:1023E000D1E100E006C021970109802FFE010E9483
:1023F000E5DCCF3CD10780E00807A9F70E94E3C7DE
:102400000C94ABDD0C94000008952CE933E549E40D
:102410005EE36091280E7091290E80912A0E9091B2
:102420002B0E0E9486DA60936C0270936D0280938B
:102430006E0290936F0208952CE933E549E45EE360
:1024400060912C0E70912D0E80912E0E90912F0E7A
:102450000E94C2D5609370027093710280937202E1
:10246000909373020895880F991F880F991FFC019C
:10247000E855FF4E40815181628173818159924FAD
:10248000FC014083518362837383E0916D0DF09171
:102490006E0D82899389A489B5898093690D909383
:1024A0006A0DA0936B0DB0936C0D0895CF93DF93DD
:1024B0002FB7F894AC01440F551F440F551FFA0174
:1024C000E855FF4E60817181828193812FBFEA01BF
:1024D000C75AD24F0E9463D5288139814A815B81D6
:1024E0000E94C2D5DF91CF910895CF93DF93FC0175
:1024F00026853785D901A05CBF4F8D919C9111979E
:1025000001968F739927E901CE5BDF4F488159818E
:1025100048175907D9F34D915C91240F351FD90104
:102520006C93A685B785A05CBF4F11969C938E9344
:10253000A689B7898C91978D21E030E001C0220FE8
:102540009A95EAF7822B8C9381E081A30488F58920
:10255000E02D80818064808381E090E0DF91CF91E5
:102560000895FC0191A1992329F0A489B5898C9142
:1025700086FFF9CF11A20895DC011C968D919C91E4
:10258000FC01E05CFF4F4081518132962081318116
:102590004217530781F020813181820F931FDC01A4
:1025A0008C91208131812F5F3F4F2F7333273183EF
:1025B000208390E008958FEF9FEF0895FC018485BC
:1025C0009585FC01E05CFF4F40815181329620816E
:1025D00031814217530741F020813181820F931FCF
:1025E000FC01808190E008958FEF9FEF0895FC013A
:1025F00024853585F901E05CFF4F808191812E5B58
:102600003F4FF90120813181805C9F4F821B930BEA
:1026100060E470E00E94B2DC08955F9AE5E9FEE0B4
:1026200010828A9A479A11829FB7F894A8E0B1E085
:102630008C9181608C939FBF479A1282129A089561
:10264000CF92DF92EF92FF92C0908002D0908102F1
:10265000E0908202F09083028091870E8823B1F18E
:1026600020E030E0A901C701B6010E945CD58823B3
:1026700069F12BED3FE049E450E4C701B6010E9447
:10268000C2D520E030E040E05FE30E94C2D5A70160
:1026900096010E94C2D520E030E040E05FE30E9456
:1026A000C2D59B01AC0160E070E080E89FE30E942E
:1026B00086DA6093090270930A0280930B0290936A
:1026C0000C02FF90EF90DF90CF90089560E070E0F3
:1026D00080E89FE3EECFCF92DF92EF92FF92CF930D
:1026E000DF93EC01C090150ED090160EE090170EFF
:1026F000F090180EA7019601688179818A819B81EB
:102700000E945CD587FF04C0C882D982EA82FB821E
:10271000C090190ED0901A0EE0901B0EF0901C0E77
:10272000A70196016C817D818E819F810E945CD57D
:1027300087FF04C0CC82DD82EE82FF82C0901D0E36
:10274000D0901E0EE0901F0EF090200EA701960173
:10275000688579858A859B850E945CD587FF04C042
:10276000C886D986EA86FB86C0905B02D0905C0260
:10277000E0905D02F0905E02A70196016881798188
:102780008A819B810E94ECDB181624F4C882D982CE
:10279000EA82FB82C0905F02D0906002E09061020A
:1027A000F0906202A70196016C817D818E819F81EC
:1027B0000E94ECDB181624F4CC82DD82EE82FF82CC
:1027C000C0906302D0906402E0906502F0906602CF
:1027D000A7019601688579858A859B850E94ECDB37
:1027E000181624F4C886D986EA86FB86DF91CF9135
:1027F000FF90EF90DF90CF900895CF92DF92EF920D
:10280000FF920F931F93CF93DF93EC01CC0FDD1F4B
:10281000CC0FDD1FFE01E856F14F20E030E0A901AA
:1028200060817181828193810E948CD9FE01E1597E
:10283000F74F20813181428153810E948CD96B01F5
:102840007C01FE01E650F84F259135914591549158
:102850008E010B5E114F0E948CD9F8016083718349
:1028600082839383FE01E251F84F25913591459182
:102870005491C55ADD4FC701B6010E948CD96883B7
:1028800079838A839B83DF91CF911F910F91FF9072
:10289000EF90DF90CF9008958F929F92AF92BF926A
:1028A000EF92FF920F931F93CF93DF938C014A0116
:1028B0005B01EC01CC0FDD1FCC0FDD1FCE018C5571
:1028C000914F7C01C856D14F288139814A815B8163
:1028D000CB01B4010E948BD9F70120813181428163
:1028E00053810E948CD9F701608371838283938323
:1028F00088829982AA82BB82C801DF91CF911F9101
:102900000F91FF90EF90BF90AF909F908F900C949D
:10291000FD1380911F1390912013891B8F700895D0
:10292000089590E080E008958FB7F894909106089C
:1029300020910508291769F0E92FF0E0EB57F84FCF
:10294000208130E09F5F9F77909306088FBFC90179
:1029500008952FEF3FEFFACF0C94B7AF1092300EDF
:102960006091DD127091DE12072E000C880B990B1E
:102970000E9463D520917C0230917D0240917E02BD
:1029800050917F020E94ECDB181634F41092DE1294
:102990001092DD120C94B7AF08950C94ABAF0E9467
:1029A000ABAF609367087093680880936908909351
:1029B0006A08089589EA93E10E94B1120C94CF1439
:1029C0000F931F93CF93DF93EC010E94ABAF0E8167
:1029D0001F8128853985011511052105310579F5F6
:1029E0002C85222339F1EA8521502C8721E02E0FF6
:1029F0002A873D85231301C01A86F0E03196EE0F39
:102A0000FF1FEE0FFF1FEC0FFD1F028513852485AE
:102A100035850A831B832C833D83600F711F811DC5
:102A2000911D6E837F83888799878C819D81892BF7
:102A300009F0469ADF91CF911F910F910895601B85
:102A4000710B820B930B97FDF5CF46981E821F8268
:102A500018861986EFCF1092DE121092DD120E94B6
:102A6000B7AF1092F30E1092F20E0E9457B0109270
:102A7000DE121092DD120E94B7AF1092C60D2C9894
:102A80001092F30E1092F20E1092C40D9FB7F894AC
:102A9000E2E0F1E080818F7D80839FBF08954F92B7
:102AA0005F926F927F92AF92BF92CF92DF92EF923E
:102AB000FF920F931F93CF93DF938C01EB01FC01E7
:102AC00047A050A461A472A4AFA0B8A4C9A4DAA47A
:102AD0009501A601C301B2010E945CD587FF3EC0EB
:102AE000A3019201C301B2010E94C2D52B013C0196
:102AF000F80163A974A985A996A990589B01AC0116
:102B00000E948CD9F80127A530A941A952A90E9499
:102B1000C2D59B01AC01C301B2010E948BD90E94B6
:102B20003ADC7B018C019B01AC01B501C6010E941E
:102B30005CD587FF02C0750186019701A801B50128
:102B4000C6010E945CD5882349F0C701D8018FA334
:102B500098A7A9A7BAA7888181608883DF91CF91C0
:102B60001F910F91FF90EF90DF90CF90BF90AF90AB
:102B70007F906F905F904F9008954F925F926F9209
:102B80007F928F929F92AF92BF92CF92DF92EF92FD
:102B9000FF92CF93DF93CDB7DEB76A970FB6F89465
:102BA000DEBF0FBECDBF9A8F898F5B014A01DC016A
:102BB000D7966D917D918D919C91DA970E9461D508
:102BC0006B017C01F50120813181428153810E949A
:102BD000C2D50E946ADA0E94FFDA3B015C01D4018F
:102BE0002D913D914D915C91C701B6010E94C2D5D6
:102BF0000E946ADA0E94FFDA6D827E82AF82B88616
:102C00002D813E814F815885283731054105510579
:102C100040F428E730E040E050E02D833E834F83CE
:102C2000588769837A838B839C8389819A81AB815E
:102C3000BC8188379105A105B10540F428E730E053
:102C400040E050E029833A834B835C83E98DFA8D21
:102C5000ED5BFF4F80819181A281B3818D879E873B
:102C6000AF87B88BBC01CD010E9463D569877A8795
:102C70008B879C876D817E818F8198850E9461D52D
:102C8000698B7A8B8B8B9C8B20E030E0A901698566
:102C90007A858B859C850E945CD5882309F432C196
:102CA000A7019601C701B6010E94C2D54B015C0184
:102CB00029893A894B895C89CA01B9010E94C2D528
:102CC0009B01AC01C501B4010E948BD94B015C0191
:102CD00029853A854B855C85CA01B9010E948CD94A
:102CE0009B01AC01C501B4010E9486DA0E946ADA38
:102CF0000E94F8DA2B013C016D857E858F859889CD
:102D000090958095709561957F4F8F4F9F4F0E9452
:102D100063D54B015C0169817A818B819C810E9422
:102D200061D56D877E878F87988B20E030E0A90181
:102D3000C501B4010E945CD5882309F4E7C02D8544
:102D40003E854F855889CA01B9010E94C2D56D8B55
:102D50007E8B8F8B988FA7019601C701B6010E94C9
:102D6000C2D59B01AC016D897E898F89988D0E94A7
:102D70008BD96B017C01A5019401C501B4010E94AE
:102D80008CD99B01AC01C701B6010E9486DA0E9472
:102D90002EDBA98DBA8D52968D909D90AD90BC90F2
:102DA000559775016401C418D508E608F7080E9414
:102DB000F8DAC61AD70AE80AF90AF7FE67C020E06F
:102DC00030E0A90169857A858B859C850E945CD558
:102DD000882309F49FC0C501B4010E9461D56B012D
:102DE0007C0129853A854B855C85CA01B9010E9421
:102DF0008CD99B01AC01C701B6010E94C2D56B0101
:102E00007C0129893A894B895C89CA01B9010E94F0
:102E1000C2D59B01AC01C701B6010E948BD96B01E1
:102E20007C012D853E854F855889CA01B9010E94D4
:102E3000C2D59B01AC01C701B6010E948CD96B01C0
:102E40007C0120E030E040E850E469857A858B859C
:102E50009C850E94C2D59B01AC01C701B6010E94AE
:102E600086DA0E946ADA0E94F8DA2B013C0177FECA
:102E700003C0412C512C3201481459046A047B04CC
:102E800010F024013501C12CD12C76018FB7F894B4
:102E9000E98DFA8D908193FD1FC0DF01468A578A24
:102EA000608E718EC40CD51CE61CF71CC28ED38EAE
:102EB000E48EF58E2D813E814F81588523AF34AF4E
:102EC00045AF56AFDF9629813A814B815C812D93C6
:102ED0003D934D935C9313978FBF6A960FB6F8940A
:102EE000DEBF0FBECDBFDF91CF91FF90EF90DF909F
:102EF000CF90BF90AF909F908F907F906F905F909A
:102F00004F90089560E070E0CB01F0CE60E070E09B
:102F1000CB013DCF60E070E0CB01A3CF682F880FDD
:102F2000770B80918107909182070E9429DD9C0197
:102F3000909375078093740781E0232B09F480E058
:102F40000895682F880F770B2091E3063091E406EF
:102F500040E6429FC001439F900D1124845A9A4F2E
:102F60000E9429DD9C0190935B0580935A0581E0C6
:102F7000232B09F480E008958091740790917507E0
:102F80004AE050E070E060E001960E948BD297FD2D
:102F90001EC080917407909175074AE050E070E080
:102FA00060E001960E948BD26F3F7105810591050B
:102FB00009F07CF480917407909175074AE050E025
:102FC00070E060E001960E948BD2862F089580E029
:102FD00008958FEF0895E0917407F091750781814E
:102FE000DF01129621E030E0803221F42F5F3F4F65
:102FF0008D91FACF8D3211F08B3231F42F5F3F4F2C
:10300000DF01A20FB31F8C918E3219F4E20FF31F70
:103010008181805391E08A3030F40E94BC1791E0A6
:10302000811101C090E0892F0895809174079091DB
:1030300075074AE050E070E060E001960E948BD294
:10304000CB01089580917407909175074AE050E094
:1030500070E060E001960C94B9D30F931F93CF9367
:10306000DF93C0917407D091750765E470E0CE01DD
:103070000E9429DD8C01CE0101960115110571F028
:10308000F801108270E060E00E942DD125E4F80183
:103090002083DF91CF911F910F91089570E060E040
:1030A000DF91CF911F910F910C942DD186E40E9456
:1030B0008E178093300E882351F00E942D18609354
:1030C000740270937502809376029093770283E581
:1030D0000E948E17882351F00E942D1860937C0265
:1030E00070937D0280937E0290937F0282E40E941F
:1030F0008E17882351F00E942D18609378027093E8
:10310000790280937A0290937B020895CF92DF92A6
:10311000EF92FF920F931F93CF93DF9383E1C82E1B
:1031200083E0D82E9BEBE92E9EE0F92E04EA1EE008
:10313000D0E0C0E0F60181916F010E948E178823D4
:1031400009F44EC00E942D189B01AC01FE01E45809
:10315000F84F8081811104C0809180078823E1F1BC
:10316000F80160817181828193810E948CD9F7017D
:1031700060837183828393832196F4E0EF0EF11CC8
:103180000C5F1F4FC430D105A9F686E40E948E174C
:103190008823C9F00E942D1820E030E0A9010E9488
:1031A000ECDB181684F40E942D1820E030E040E794
:1031B00052E40E9486DA60930002709301028093C9
:1031C000020290930302DF91CF911F910F91FF9024
:1031D000EF90DF90CF90089560E070E0CB01C5CF15
:1031E000F80180819181A281B381F701808391836D
:1031F000A283B383C1CF80915A0590915B0570E0A3
:1032000060E001960C942DD180915A0590915B0558
:1032100001960C94BCD48091030E8A30D8F496E0C9
:10322000899FF0011124E953F24F20919C023091C3
:103230009D02318320834091EA0E5091EB0E609104
:10324000EC0E7091ED0E42835383648375838F5F20
:103250008093030E089520919C0230919D022817BF
:103260003907C9F090939D0280939C024093EA0E27
:103270005093EB0E6093EC0E7093ED0E8D539142D4
:1032800011F41092030E0E9400A982E080939B0229
:1032900081E08093890E089540E050E0BA018DE30B
:1032A00091E20C942B19E091030EEE2389F0E1508A
:1032B000E093030E86E0E89FF0011124E953F24FFA
:1032C0004281538164817581808191810C942B1995
:1032D0000C944C19EF92FF920F93CF93DF93D82F5A
:1032E0007A01C22F80E00E94F1A8D11101C0C0E292
:1032F0006C2F83EE92E10E9497A6C2E1F7016491E0
:10330000662359F0CC2389F083EE92E10E9408A94C
:10331000C150FFEFEF1AFF0AF1CFC15030F060E269
:1033200083EE92E10E9497A6F8CF602F83EE92E1A0
:10333000DF91CF910F91FF90EF900C9497A6CF92D1
:10334000DF92EF92FF920F931F93CF93DF938091C1
:10335000EA0E9091EB0EA091EC0EB091ED0E813043
:103360009048A105B10540F01092EA0E1092EB0EC4
:103370001092EC0E1092ED0E6091EA0E7091EB0E31
:103380008091EC0E9091ED0E25E030E040E050E0B1
:103390000E944FD9C22F8091260E1816F4F4482FA0
:1033A000082E000C550B41505109022E000C330B16
:1033B0002417350794F0CFEFC80F25E0C29FC00156
:1033C0001124092E000CAA0BBB0B8093EA0E9093DC
:1033D000EB0EA093EC0EB093ED0E1092890E80913F
:1033E000880EC81714F4C093880E8091880E082E9A
:1033F000000C990B03962C2F0C2E000C330B82170C
:10340000930724F48DEF8C0F8093880E1091880E13
:10341000D0E0F0908B0EEF2CDF2CCF2C111121C0BF
:1034200080919B02882351F081E0C11180E003E08C
:1034300023E04FE35DE16D2F0E946A19CC2041F13A
:10344000C11126C00E9453198091890E882301F171
:10345000DF91CF911F910F91FF90EF90DF90CF9070
:1034600008951130E1F480919B02882359F081E0A6
:10347000C13009F080E00EE32EE345E35DE16D2FFE
:103480000E946A19DD2021F089E99BE1C130F1F049
:103490001F5FDF5FD43011F6D093260ED9CF1230E4
:1034A000C1F480919B02882359F081E0C23009F079
:1034B00080E00EE32EE34CE25DE16D2F0E946A197D
:1034C000EE2031F387EA9BE1C23011F70E947EB90A
:1034D000BBCF1330E9F680919B02882359F081E03D
:1034E000C33009F080E00EE32EE341E25DE16D2F91
:1034F0000E946A19FF2061F2C33051F685EB9BE10F
:10350000E5CFBF92CF92DF92EF92FF920F931F937E
:10351000CF93DF938091EA0E9091EB0EA091EC0E89
:10352000B091ED0E81309048A105B10540F01092A8
:10353000EA0E1092EB0E1092EC0E1092ED0E6091CE
:10354000EA0E7091EB0E8091EC0E9091ED0E25E05D
:1035500030E040E050E00E944FD9C22F8091210E10
:103560001816F4F4482F082E000C550B4150510941
:10357000022E000C330B2417350794F0CFEFC80F41
:1035800025E0C29FC0011124092E000CAA0BBB0B21
:103590008093EA0E9093EB0EA093EC0EB093ED0E99
:1035A0001092890E8091880EC81714F4C093880E6B
:1035B0008091880E082E000C990B03962C2F0C2E50
:1035C000000C330B8217930724F48DEF8C0F80933C
:1035D000880E1091880ED0E0F0908B0EEF2CDF2C2F
:1035E000CF2CBF2C111123C080919B02882351F056
:1035F00081E0C11180E003E023E047E15DE16D2F50
:103600000E946A19DD2009F443C0C11141C00E9423
:1036100053198091890E8823D9F1DF91CF911F91A1
:103620000F91FF90EF90DF90CF90BF9008951130F1
:10363000C1F480919B02882359F081E0C13009F0E8
:1036400080E00EE32EE340E15DE16D2F0E946A19F8
:10365000EE20F1F0C130E1F48DEF90E20E947EB9EE
:10366000D8CF1230A9F480919B02882359F081E0D1
:10367000C23009F080E00EE32EE349E05DE16D2FFA
:103680000E946A19FF2021F083E091E2C23031F3F9
:1036900020E030E040E251E46091220E7091230E70
:1036A0008091240E9091250E0E945CD587FD02C06A
:1036B00083E014C0133029F580919B02882359F0D0
:1036C00081E0C33009F080E00EE32EE342E05DE1EB
:1036D0006D2F0E946A19B11009C085E01F5FDF5F7E
:1036E000D43009F07FCF8093210E97CF89E091E20B
:1036F000C33099F70E947EB98091890E882369F3BF
:103700008CCF143051F780919B02882359F081E0CF
:10371000C43009F080E00EE32EE349EF5CE16D2F49
:103720000E946A19CC20C9F2C430B9F681E89FE141
:10373000E1CF80E090E0A0E2B1E48093220E90938C
:10374000230EA093240EB093250E0C94811A80E0D2
:1037500090E0A0E8BFE38093220E9093230EA09305
:10376000240EB093250E0C94811A8DEC9CECACECDD
:10377000BDE38093220E9093230EA093240EB0936A
:10378000250E0C94811A4F925F926F927F92AF92A6
:10379000BF92CF92DF92EF92FF920F931F93CF933E
:1037A000DF938091EA0E9091EB0EA091EC0EB09118
:1037B000ED0E81309048A105B10540F01092EA0E5F
:1037C0001092EB0E1092EC0E1092ED0E6091EA0E3C
:1037D0007091EB0E8091EC0E9091ED0E25E030E0B3
:1037E00040E050E00E944FD9C22F8091120E18166F
:1037F000F4F4482F082E000C550B41505109022EAD
:10380000000C330B2417350794F0CFEFC80F25E0D9
:10381000C29FC0011124092E000CAA0BBB0B809380
:10382000EA0E9093EB0EA093EC0EB093ED0E109277
:10383000890E8091880EC81714F4C093880E809169
:10384000880E082E000C990B03962C2F0C2E000CC2
:10385000330B8217930724F48DEF8C0F8093880E1F
:10386000D091880EED2E84E0D82EDD0EF0908B0ED8
:10387000CF2CBF2CAD2EA194D11129C080919B02D9
:10388000882351F081E0C11180E003E023E046E4A9
:103890005CE16A2D0E946A19BB2009F479C0C1114C
:1038A00077C00E9453198091890E882309F470C053
:1038B000DF91CF911F910F91FF90EF90DF90CF900C
:1038C000BF90AF907F906F905F904F900895D130F0
:1038D000A9F580919B02882361F06D2F6E1981E01C
:1038E000C13009F080E000E22EE34AE35CE10E948F
:1038F0006A19CC2009F44CC0C13009F049C00091CC
:103900003A0E10913B0E6091320E7091330E072EDD
:10391000000C880B990B0E9463D52B013C01609130
:10392000360E7091370E072E000C880B990B0E94F3
:1039300063D5A30192010E9405B0B5CFD23041F505
:1039400080919B02882361F06D2F6E1981E0C23057
:1039500009F080E000E22EE34AE25CE10E946A198D
:10396000FF20B1F0C230A1F400913A0E10913B0E4D
:103970006091320E7091330E072E000C880B990B5C
:103980000E9463D59B01AC0160E070E0CB01D3CF16
:10399000DF5FDD1271CF83E08093120E89CF4F92EB
:1039A0005F926F927F92AF92BF92CF92DF92EF922F
:1039B000FF920F931F93CF93DF938091EA0E909124
:1039C000EB0EA091EC0EB091ED0E81309048A10568
:1039D000B10540F01092EA0E1092EB0E1092EC0E30
:1039E0001092ED0E6091EA0E7091EB0E8091EC0E4C
:1039F0009091ED0E25E030E040E050E00E944FD97C
:103A0000C22F8091130E1816F4F4482F082E000CC4
:103A1000550B41505109022E000C330B241735076A
:103A200094F0CFEFC80F25E0C29FC0011124092EEA
:103A3000000CAA0BBB0B8093EA0E9093EB0EA093A5
:103A4000EC0EB093ED0E1092890E8091880EC8177F
:103A500014F4C093880E8091880E082E000C990BE8
:103A600003962C2F0C2E000C330B8217930724F493
:103A70008DEF8C0F8093880ED091880EED2E84E010
:103A8000D82EDD0EF0908B0ECF2CBF2CAD2EA19436
:103A9000D11129C080919B02882351F081E0C1118E
:103AA00080E003E023E04AE65CE16A2D0E946A19A7
:103AB000BB2009F479C0C11177C00E9453198091CD
:103AC000890E882309F470C0DF91CF911F910F9167
:103AD000FF90EF90DF90CF90BF90AF907F906F906E
:103AE0005F904F900895D130A9F580919B02882373
:103AF00061F06D2F6E1981E0C13009F080E000E2C5
:103B00002EE34EE55CE10E946A19CC2009F44CC01A
:103B1000C13009F049C000913C0E10913D0E6091FA
:103B2000340E7091350E072E000C880B990B0E94F5
:103B300063D52B013C016091380E7091390E072E30
:103B4000000C880B990B0E9463D5A30192010E947F
:103B500005B0B5CFD23041F580919B02882361F04A
:103B60006D2F6E1981E0C23009F080E000E22EE393
:103B70004EE45CE10E946A19FF20B1F0C230A1F46A
:103B800000913C0E10913D0E6091340E7091350EF7
:103B9000072E000C880B990B0E9463D59B01AC018A
:103BA00060E070E0CB01D3CFDF5FDD1271CF83E047
:103BB0008093130E89CFAF92BF92CF92DF92EF9294
:103BC000FF920F931F93CF93DF938091EA0E909112
:103BD000EB0EA091EC0EB091ED0E81309048A10556
:103BE000B10540F01092EA0E1092EB0E1092EC0E1E
:103BF0001092ED0E6091EA0E7091EB0E8091EC0E3A
:103C00009091ED0E25E030E040E050E00E944FD969
:103C1000C22F8091110E1816F4F4482F082E000CB4
:103C2000550B41505109022E000C330B2417350758
:103C300094F0CFEFC80F25E0C29FC0011124092ED8
:103C4000000CAA0BBB0B8093EA0E9093EB0EA09393
:103C5000EC0EB093ED0E1092890E8091880EC8176D
:103C600014F4C093880E8091880E082E000C990BD6
:103C700003962C2F0C2E000C330B8217930724F481
:103C80008DEF8C0F8093880E1091880ED0E0F0900D
:103C90008B0EEF2CDF2CCF2CBF2CAF2C111125C09D
:103CA00080919B02882351F081E0C11180E003E004
:103CB00023E045E25CE16D2F0E946A19AA2009F415
:103CC000C6C0C111C4C00E9453198091890E8823B7
:103CD00009F4BDC0DF91CF911F910F91FF90EF903C
:103CE000DF90CF90BF90AF900895113019F580917B
:103CF0009B02882371F089E592E00E9493B79C01B2
:103D000081E0C13009F080E04FE15CE16D2F0E945D
:103D10002AA9BB2009F49BC0C13009F098C027EE46
:103D200033E04AE050E069E572E089E19CE10E94FD
:103D300057BDCBCF123009F082C080919B028823FF
:103D400071F08DED92E10E9493B79C0181E0C23049
:103D500009F080E042E15CE16D2F0E942AA9CC20AD
:103D600009F475C0C23009F072C02CEA34E14EE0AB
:103D700051E06DED72E18BE09CE10E9448A6A5CF79
:103D800080919B02882371F082EF9EE00E9493B79E
:103D90009C0181E0C33009F080E047E05CE16D2FD9
:103DA0000E942AA9DD2009F452C0C33009F04FC097
:103DB00024E032E147E850E062EF7EE083E09CE1FE
:103DC000DCCF80919B02882371F080EF9EE00E94FF
:103DD00093B79C0181E0C43009F080E049EF5BE1DA
:103DE0006D2F0E942AA9EE2091F1C43081F522EBBB
:103DF00030E050E040E060EF7EE08FEE9BE197CF57
:103E000080919B02882371F087E592E00E9493B72E
:103E10009C0181E0C53009F080E04AEE5BE16D2F46
:103E20000E942AA9FF2099F0C53089F427EE33E0DB
:103E30004AE050E067E572E085EE9BE178CF133011
:103E400009F49ECF143009F4BCCF1530C9F21F5FBE
:103E5000DF5FD43009F022CF86E08093110E3ACF95
:103E60000F931F93CF938C01C0E0F801EC0FF11D6D
:103E70006081662331F083EE92E10E9408A9CF5F52
:103E8000F4CFCF911F910F910895CF93DF93EC0161
:103E9000FE016491662331F083EE92E10E9408A94D
:103EA0002196F6CFDF91CF9108950F931F93CF9373
:103EB000DF938C01EB0161E081E00E94F1A8C80171
:103EC0000E94451F2097C1F06AE383EE92E10E94B1
:103ED00097A6FE019F012C1B3D0B81918111FACF0A
:103EE00061E084E1821B0E94F1A8CE01DF91CF91B5
:103EF0001F910F910C94301FDF91CF911F910F9163
:103F0000089580918B0E81110C9453196091EA0EE3
:103F10007091EB0E8091EC0E9091ED0E6115710594
:103F20008105910569F10E9463D52091220E30919F
:103F3000230E4091240E5091250E0E94C2D520914F
:103F4000B00E3091B10E4091B20E5091B30E0E945E
:103F50008CD96093B00E7093B10E8093B20E909393
:103F6000B30E1092EA0E1092EB0E1092EC0E10921D
:103F7000ED0E83E090E00E94CD1481E080939B02DF
:103F800080919B02882349F080EB9EE00E94B3B5AC
:103F9000BC0180EF9CE10C94551F08952F923F9235
:103FA0004F925F926F927F928F929F92AF92BF9249
:103FB000CF92DF92EF92FF920F931F93CF93DF93F5
:103FC00000D000D01F921F92CDB7DEB720918B0E8C
:103FD0002223D1F028960FB6F894DEBF0FBECDBFD6
:103FE000DF91CF911F910F91FF90EF90DF90CF90D5
:103FF000BF90AF909F908F907F906F905F904F9009
:104000003F902F900C9453191B019E838D838091B8
:10401000EA0E9091EB0EA091EC0EB091ED0E892B73
:104020008A2B8B2B09F468C00E94CF148091670201
:104030009101220F331F220F331F38872F838823CC
:1040400009F485C0F901EB5EF14F40805180628038
:104050007380F901E55AFD4FC080D180E280F38082
:104060008091EA0E9091EB0EA091EC0EB091ED0EC6
:1040700089839A83AB83BC83BC01CD010E9463D545
:104080002091220E3091230E4091240E5091250E46
:104090000E94C2D50F8118850C55114FD8012D9162
:1040A0003D914D915C910E948CD94B015C018981BD
:1040B0009A81AB81BC81B7FF6EC0A3019201C5019B
:1040C000B4010E945CD587FD5FC0AF81B885AC5557
:1040D000B14FFD0180829182A282B382C1010E9410
:1040E000CD141092EA0E1092EB0E1092EC0E10927C
:1040F000ED0E81E080939B0280919B02882309F45E
:1041000063C0C101880F991F880F991F8C55914F6B
:104110000E94B3B5BC018D819E8128960FB6F8949C
:10412000DEBF0FBECDBFDF91CF911F910F91FF90EA
:10413000EF90DF90CF90BF90AF909F908F907F9047
:104140006F905F904F903F902F900C94551FEF8190
:10415000F885EC55F14FC080D180E280F38020E0FB
:1041600030E04AE754E4C701B6010E948BD92B0125
:104170003C0120E030E04AE754E4C701B6010E9468
:104180008CD96B017C016CCFD8014D925D926D9200
:104190007C921397A3CF89819A81AB81BC81892BB3
:1041A0008A2B8B2B09F491CFA7019601C501B4018D
:1041B0000E94ECDB18160CF088CFD801CD92DD926E
:1041C000ED92FC9213978ACF28960FB6F894DEBF33
:1041D0000FBECDBFDF91CF911F910F91FF90EF9058
:1041E000DF90CF90BF90AF909F908F907F906F9017
:1041F0005F904F903F902F90089570E060E08BEDBE
:104200009CE10C94CE1F61E070E082EE9CE10C9486
:10421000CE1F62E070E089EE9CE10C94CE1F64E05A
:1042200084E10E9401AE6EE472E080E00E940EA97B
:1042300066E472E081E00E940EA96EE372E082E023
:104240000E940EA966E372E086E00E940EA96EE26B
:1042500072E087E00E940EA966E272E083E00E94AD
:104260000EA96EE172E084E00E940EA966E172E0A0
:1042700085E00E940EA90C9400A94F925F926F9264
:104280007F928F929F92AF92BF92CF92DF92EF92E6
:10429000FF920F931F93CF93DF9300D000D000D0F5
:1042A0001F92CDB7DEB760E080E00E94F1A862E027
:1042B00083EE92E10E9497A620E030E040E05FE3C9
:1042C0006091DF127091E0128091E1129091E21200
:1042D0000E948CD90E94F8DA7A8369838E010F5F7D
:1042E0001F4FC8010E9493B7BC0183EE92E10E9468
:1042F0007AA76FE283EE92E10E9497A66091DD12A9
:104300007091DE12072E000C880B990B0E9463D56A
:1043100020E030E040E05FE30E948CD90E94F8DAB0
:104320007A836983C8010E945EB7BC0183EE92E183
:104330000E947AA784E89BE10E94451F6091DD12EC
:104340007091DE12072E000C880B990B0E9463D52A
:1043500020E030E040E251E40E945CD587FF05C0D8
:1043600060E283EE92E10E9497A660E08AE00E94FC
:10437000F1A860E083EE92E10E9497A620E030E091
:1043800040E05FE360910C0E70910D0E80910E0E77
:1043900090910F0E0E948CD90E94F8DA7A8369837B
:1043A000C8010E9493B7BC0183EE92E10E947AA7F4
:1043B0006FE283EE92E10E9497A66091F20E7091F7
:1043C000F30E072E000C880B990B0E9463D520E09A
:1043D00030E040E05FE30E948CD90E94F8DA7A83F3
:1043E0006983C8010E945EB7BC0183EE92E10E941E
:1043F0007AA781E89BE10E94451F6091F20E7091BF
:10440000F30E072E000C880B990B0E9463D520E059
:1044100030E040E251E40E945CD587FF05C060E2D5
:1044200083EE92E10E9497A60E94ABAFC090050E6A
:10443000D090060EE090070EF090080E9B01AC01A4
:104440002C193D094E095F0969017A01F7FC11C079
:104450002091040E20952093040E6A547C4F8F4FB8
:104460009F4F6093050E7093060E8093070E9093F6
:10447000080EF090040E61E080E00E94F1A8FF2099
:1044800009F4D0C18FE79BE10E94451F6091A40E03
:104490007091A50E8091A60E9091A70E0E94F8DA59
:1044A0007A836983C8010E94EBB6BC0183EE92E176
:1044B0000E947AA760E283EE92E10E9497A6FF2015
:1044C00009F4BFC18DE79BE10E94451F6091A80ED2
:1044D0007091A90E8091AA0E9091AB0E0E94F8DA0D
:1044E0007A836983C8010E94EBB6BC0183EE92E136
:1044F0000E947AA761E08CE00E94F1A8FF2009F4F5
:10450000AFC18BE79BE10E94451F2CEA35EC47E2E7
:1045100057E36091AC0E7091AD0E8091AE0E90910C
:10452000AF0E0E948CD920E030E048EC52E40E94AB
:10453000C2D50E94F8DA6B017C01F7FCA0C160E2F1
:1045400030E1C31637E2D306E104F10484F0B6018A
:1045500020E137E240E050E00E94C6DCCA01B90128
:104560002AE030E040E050E00E94C6DC605D6093ED
:10457000E10E60E248EEC41643E0D406E104F10423
:104580008CF0C701B60128EE33E040E050E00E9415
:10459000C6DCCA01B9012AE030E040E050E00E94E8
:1045A000C6DC605D6093E20EC701B60124E630E030
:1045B00040E050E00E94C6DC9AE0892E912CA12CAC
:1045C000B12CCA01B901A50194010E94C6DC605D4D
:1045D0006093E30EC701B601A50194010E94C6DCF9
:1045E000F62ECA01B901A50194010E94C6DCFF2084
:1045F00009F44FC18EE28093E40E605D6093E50E96
:1046000080E38F0D8093E60E1092E70E61EE7EE060
:1046100083EE92E10E947AA762E080E00E94F1A816
:1046200066E083EE92E10E9497A689E592E00E94FF
:1046300093B7BC0183EE92E10E947AA765E283EE14
:1046400092E10E9497A662E087E00E94F1A888E7C5
:104650009BE10E94451F8091F913882309F42BC127
:104660008091C715882309F424C180917116909117
:104670007216A0917316B09174160097A105B1053A
:1046800009F417C1BC01CD016D597F4F8F4F9F4F6A
:1046900024E630E040E050E00E944FD9609175166A
:1046A0007091761680917716909178160E944FD966
:1046B00030E03A832983C8010E9493B7BC0183EE9E
:1046C00092E10E947AA765E283EE92E10E9497A6AA
:1046D0000E949FB22B013C0120E13EE040E050E00F
:1046E0000E944FD9D22EC32EE22EF32E8CE3882EB9
:1046F000912CA12CB12CC301B201A50194010E94FF
:104700004FD9CA01B901A50194010E944FD954E6BD
:10471000E516F10408F0D4C07F936F93C70168E1F8
:1047200070E00E949EDC9F938F938AE69BE19F93AB
:104730008F931F930F930E942CD50FB6F894DEBF72
:104740000FBECDBF95E062E083E1891B0E94F1A816
:1047500067E083EE92E10E9497A6C8010E94301F95
:1047600063E080E00E94F1A88FE992E00E94301F90
:1047700080918B0E882349F00E940F2140E050E089
:10478000BA0185E19DE50E942B194091EA0E5091F6
:10479000EB0E6091EC0E7091ED0E2091590230916C
:1047A0005A02C901840F951F243631050CF09BC0B5
:1047B000853691050CF09EC090935A028093590261
:1047C0001092EA0E1092EB0E1092EC0E1092ED0E7B
:1047D0008091590290915A02883E43E0940714F068
:1047E00087EE93E08A30910514F48AE090E090938C
:1047F0005A02809359022A960FB6F894DEBF0FBE74
:10480000CDBFDF91CF911F910F91FF90EF90DF907F
:10481000CF90BF90AF909F908F907F906F905F9060
:104820004F9008958091090E6FE3882329F08091BD
:10483000950E811127CE60E283EE92E10E9497A649
:1048400025CE80910A0E6FE3882329F08091960E81
:10485000811138CE60E283EE92E10E9497A636CEB7
:1048600080910B0E6FE3882329F08091970E8111C0
:1048700048CE60E283EE92E10E9497A646CEF09485
:10488000E094D094C094C11CD11CE11CF11C6DE2D9
:104890006ECE662341F08EE28093E40E605D6093FD
:1048A000E50E80E2AFCE80E28093E50E8093E40EC9
:1048B000F8CF20E0FDCE84E79BE10E94451F03CFA7
:1048C0007F936F93CF92DF9282E69BE19F938F93CA
:1048D0001F930F930E942CD50FB6F894DEBF0FBE26
:1048E000CDBF96E030CF2436310539F084369105BE
:1048F0000CF062CF84E690E05FCF4B30510561054C
:10490000710514F00A9758CF463F5F4F6F4F7F4FA6
:104910000CF05ECF0A9650CF4F925F926F927F92CB
:10492000AF92BF92CF92DF92EF92FF920F931F93BD
:10493000CF93DF9324E030E041E050E0D901AB5366
:10494000BC4FFD0165917491861797070CF066C006
:1049500041505109440F551F440F551FEA01C953D7
:10496000DC4FFE01059114914B535C4FFA016591A8
:104970007491F901E953FC4FE590F490FE01C59064
:10498000D490FD01C591D491FA01A590B490861BF5
:10499000970BBC01990F880B990B0E9463D52B01D3
:1049A0003C01B7016C197D09072E000C880B990B8F
:1049B0000E9463D59B01AC01C301B2010E94C2D524
:1049C0006B017C01BE016A197B09072E000C880B64
:1049D000990B0E9463D59B01AC01C701B6010E94EF
:1049E00086DA6B017C01B801110F880B990B0E94CC
:1049F00063D59B01AC01C701B6010E948CD9DF9140
:104A0000CF911F910F91FF90EF90DF90CF90BF90CB
:104A1000AF907F906F905F904F9008954F5F5F4F82
:104A20002C5F3F4F2038310509F088CFE3E4F4E0F4
:104A300065917491072E000C880B990B0E9463D529
:104A4000DECF4F925F926F927F92AF92BF92CF92E2
:104A5000DF92EF92FF920F931F93CF93DF9324E0A7
:104A600030E041E050E0D901AA5FB54EFD0165910B
:104A70007491861797070CF066C041505109440F96
:104A8000551F440F551FEA01C85FD54EFE01059121
:104A900014914A5F554EFA0165917491F901E85FEE
:104AA000F54EE590F490FE01C590D490FD01C591BE
:104AB000D491FA01A590B490861B970BBC01990F75
:104AC000880B990B0E9463D52B013C01B7016C192F
:104AD0007D09072E000C880B990B0E9463D59B0162
:104AE000AC01C301B2010E94C2D56B017C01BE01C1
:104AF0006A197B09072E000C880B990B0E9463D55D
:104B00009B01AC01C701B6010E9486DA6B017C01F2
:104B1000B801110F880B990B0E9463D59B01AC0162
:104B2000C701B6010E948CD9DF91CF911F910F91DF
:104B3000FF90EF90DF90CF90BF90AF907F906F90FD
:104B40005F904F9008954F5F5F4F2C5F3F4F243F22
:104B5000310509F088CFE8EFFAE165917491072EED
:104B6000000C880B990B0E9463D5DECF8091AB0DB2
:104B70009091AC0D0E948C246093DF127093E01230
:104B80008093E1129093E2128091A90D9091AA0D69
:104B90000E94212560930C0E70930D0E80930E0ED3
:104BA00090930F0E8FB7F8941092AD0D8FBF0895AC
:104BB0008091560D80FF25C089988FEF80930D025C
:104BC0008091560D81FF20C08F9A8FEF80930E0247
:104BD0008091560D9FB782FF1AC0F89480910B0107
:104BE0008D7F80930B019FBF43988FEF80930F02BF
:104BF0008091560D83FF15C016988FEF8093100299
:104C00000895899A81E0DACF8F9881E0DFCFF89418
:104C100080910B01826080930B019FBF439A81E0DA
:104C2000E5CF169A81E0EACF4F925F926F927F9222
:104C30008F929F92AF92BF92EF92FF920F931F932A
:104C4000CF93DF93C7E4DEE088EBE82E80E1F82E17
:104C500000E918E0412C512C32014394699179917B
:104C600089919991F70181909190A190B1907F01E4
:104C70000E9461D5A50194010E94C2D50E94FFDA6D
:104C8000F80161937193819391938F0146165706B2
:104C90006806790610F42B013C01FEE0C735DF07FA
:104CA000E9F66FEF7FEFCB01A30192010E944FD98C
:104CB00020938C0830938D0840938E0850938F0872
:104CC000DF91CF911F910F91FF90EF90BF90AF9028
:104CD0009F908F907F906F905F904F900895EF928C
:104CE000FF920F931F93CF938C017B01C42FF80188
:104CF000808191810E9429D9F70181937F012091C0
:104D00007B0830917C08820F932F911D90937C0833
:104D100080937B08F8018081918101969183808343
:104D2000C15029F7CF911F910F91FF90EF900895F7
:104D3000FC0120E03EE2DB014D91BD01403249F033
:104D4000283011F430833196DB0111974C91408368
:104D500031962F5F2B3079F7108208952BE1FB01FC
:104D60003496DC01149601900D922A95E1F7FB012F
:104D700022813381FC01338322832BED33E03183A5
:104D80002083089561E0FC0180810C9482A78EBD90
:104D90000DB407FEFDCF08958FEF8EBD0DB407FE55
:104DA000FDCF8EB508958F929F92AF92BF92EF92F2
:104DB000FF920F931F93CF937C01C62F49015A0195
:104DC000FC019281892F806A86958CBD90FD03C07D
:104DD00081E0963009F480E08DBD60E0F7018081CC
:104DE0000E9482A78CE291E00E9470B08C2F8064B8
:104DF0000E94C72608E110E0D501C401002E04C0BE
:104E0000B695A795979587950A94D2F70E94C726DD
:104E100008501109083FFFEF1F0771F785E9CC2300
:104E200021F087E8C83009F08FEF0E94C726CC3008
:104E300011F40E94CC26C0E00E94CC26F7018383A7
:104E400087FF04C0CF3F11F0CF5FF6CFCF911F9106
:104E50000F91FF90EF90BF90AF909F908F9008952B
:104E60000F931F93CF93DF93EC0189018C818330E3
:104E700039F089E0440F551F661F771F8A95D1F7D7
:104E80009A01AB0168E1CE010E94D326882319F074
:104E900086E089833AC08EEF8EBDF801C8019E5F1F
:104EA0000DB407FEFDCF20812EBD0DB407FEFDCF52
:104EB00021812EBD3296E817F90791F70DB407FE50
:104EC000FDCF8FEF0E94C7268FEF0E94C7260E945A
:104ED000CC268B838F71853099F488E592E00E940F
:104EE00070B0182F87E11123A1F220E030E0A90172
:104EF0006DE0CE010E94D326882361F086E1C9CF00
:104F000083E18983CE010E94C226CE010E94C2267F
:104F100010E007C00E94CC268111F0CFCE010E9484
:104F2000C226812FDF91CF911F910F910895CF93CA
:104F30008091D012C1E08823A1F04091C812509115
:104F4000C9126091CA127091CB1228EC30E18091A5
:104F5000D1129091D2120E943027C82F811104C023
:104F6000C0E08C2FCF9108954091CC125091CD127A
:104F70006091CE127091CF124115510561057105F6
:104F800091F028EC30E18091D1129091D2120E94E0
:104F90003027882329F31092CC121092CD12109250
:104FA000CE121092CF121092D012DBCFEF92FF925E
:104FB0000F931F93CF93DF93EC0179018C818330A2
:104FC00039F089E0440F551F661F771F8A95D1F786
:104FD0009A01AB0161E1CE010E94D326882339F00A
:104FE00084E08983CE010E94C22680E03BC00E94FB
:104FF000ABAF8B010E94CC268B838F3F81F40E9444
:10500000ABAF601B710B6D327140A0F381E18983FE
:10501000CE010E94C2268FEF0E94C726E6CF8E3FA8
:1050200011F08FE0F4CF8FEF8EBDF701D701A150C3
:10503000BE4F0DB407FEFDCF9EB591938EBDAE174A
:10504000BF07B9F70DB407FEFDCF8EB58C930E9454
:10505000CC260E94CC26CE010E94C2268FEF0E9451
:10506000C72681E0DF91CF911F910F91FF90EF90C4
:105070000895CF92DF92EF92FF92CF936B017C0164
:10508000C42F8091C8129091C912A091CA12B091F8
:10509000CB128C159D05AE05BF0501F10E94972727
:1050A000811108C0C0E08C2FCF91FF90EF90DF906E
:1050B000CF90089528EC30E1B701A6018091D1127C
:1050C0009091D2120E94D627882361F3C092C81211
:1050D000D092C912E092CA12F092CB12CC2321F0E6
:1050E00081E08093D012DFCFC1E0DDCF4F925F929D
:1050F0006F927F928F929F92AF92BF92CF92DF92E8
:10510000EF92FF920F931F93CF93DF93EC01423006
:1051100051056105710590F480E0DF91CF911F91F9
:105120000F91FF90EF90DF90CF90BF90AF909F9046
:105130008F907F906F905F904F90089589859A85AA
:10514000AB85BC850196A11DB11D84179507A607E7
:10515000B70710F38F898031C9F5852E962EA72EBB
:10516000BB248B899C89AD89BE89880E991EAA1E95
:10517000BB1E280139016A017B0141E0C501B40170
:105180000E943928882341F29F89903181F5DD24DE
:10519000EE24FF24F601EE0FFF1FE853FF4E1183AC
:1051A00000839A89923008F4B8CF4D815E816F8177
:1051B0007885840E951EA61EB71E8092CC12909202
:1051C000CD12A092CE12B092CF12A7CF803209F0AA
:1051D000A3CF8B899C89AD89BE894A015B01E7E039
:1051E000B694A79497948794EA95D1F7BECFE894A4
:1051F000C7F8DD24EE24FF24F601EE0FFF1FEE0FAB
:10520000FF1FE853FF4E4082518262827382C9CFF2
:10521000CF92DF92EF92FF920F931F93CF93DF9382
:10522000FC0181859285A385B4850196A11DB11DE0
:1052300084179507A607B70750F480E0DF91CF9158
:105240001F910F91FF90EF90DF90CF900895878985
:105250008031A9F5BB27A72F962F852FC388D48827
:10526000E588F6888C0D9D1DAE1DBF1DE9016A0104
:105270007B018F014091C8125091C9126091CA12EE
:105280007091CB1284179507A607B70749F5F80167
:105290008789803169F5B701A601552766277727E9
:1052A000440F551F48535F4EFA0180819181B0E051
:1052B000A0E088839983AA83BB8381E0BFCF80323B
:1052C00009F0BBCFC388D488E588F688DB01CA0122
:1052D000C7E0B695A79597958795CA95D1F7C2CFA0
:1052E00040E0BC01CD010E9439288111D0CFA5CF6B
:1052F000B701A6014F77552766277727440F551F1B
:10530000440F551F48535F4EFA0180819181A2815D
:10531000B381BF70CECF4F925F926F927F92AF9268
:10532000BF92CF92DF92EF92FF920F931F93CF9392
:10533000DF9300D01F92CDB7DEB78C0149835A832B
:105340006B837C835901C12CD12C7601412C82E0E6
:10535000582E612C712C49815A816B817C819E0170
:105360002F5F3F4FC8010E940829882319F1F801D7
:105370008585A301920104C0220F331F441F551FCE
:105380008A95D2F7DA01C901C80ED91EEA1EFB1EA2
:1053900049815A816B817C8187898031F1F481E078
:1053A000483F5F4F61057105B0F2F501C082D182BF
:1053B000E282F3820F900F900F900F90DF91CF91C8
:1053C0001F910F91FF90EF90DF90CF90BF90AF9023
:1053D0007F906F905F904F90089581E0483F5F4FBE
:1053E0006F4F7F4008F4B7CFE0CF0F931F93CF9359
:1053F000DF93FC012381222331F080E0DF91CF9104
:105400001F910F9108958B01EC01FB018789803179
:1054100039F582E08B831D8A1E8A1F8A188E808D43
:10542000918DB0E0A0E025E0880F991FAA1FBB1F57
:105430002A95D1F7898B9A8BAB8BBC8B1A8F098FEE
:1054400081E089831C821D821E821F821886198634
:105450001A861B861C861D861E861F86188ACECF3E
:10546000803259F683E08B83428D538D648D758D28
:105470004D8B5E8B6F8B788F9E012F5E3F4FC801E7
:105480000E948B298111DACFB8CF8F929F92AF9271
:10549000BF92CF92DF92EF92FF920F931F93CF9321
:1054A000DF93EC018B8181110EC080E0DF91CF9101
:1054B0001F910F91FF90EF90DF90CF90BF90AF9032
:1054C0009F908F90089509891A892B893C89041728
:1054D00015072607370748F34A015B01823031F48C
:1054E00088869986AA86BB8681E0E0CF81149104E4
:1054F000A104B10449F41C821D821E821F821886F9
:1055000019861A861B86F0CF088519852A853B8562
:10551000E98DFA8D858590E00996B901A801415081
:10552000510961097109082E04C076956795579550
:1055300047950A94D2F775016401E1E0CE1AD108CB
:10554000E108F10804C0F694E794D794C7948A95CB
:10555000D2F7C416D506E606F70620F0012B022B7B
:10556000032B11F58D899E89AF89B88D8C839D831E
:10557000AE83BF838E010C5F1F4FC114D104E104C1
:10558000F10409F4ADCF4C815D816E817F8198017A
:10559000898D9A8D0E94082991E0C91AD108E108E5
:1055A000F1088111EACF81CFC41AD50AE60AF70AB9
:1055B000E1CF40E050E0BA010C94452A3F924F926F
:1055C0005F926F927F928F929F92AF92BF92CF9293
:1055D000DF92EF92FF920F931F93CF93DF93CDB79C
:1055E000DEB72C970FB6F894DEBF0FBECDBF5C01BF
:1055F000DC0159968D909C90F40181859285A3855C
:10560000B4859C01AD012F5F3F4F4F4F5F4F2987FE
:105610003A874B875C87D50114964D905D906D90CD
:105620007C901797411451046104710409F459C026
:10563000BFEF4B1A5B0A6B0A7B0A312C73016201C4
:105640001D821E821F821886F40181859285A385A2
:10565000B4852D813E814F815885281739074A0727
:105660005B0708F056C089859A85AB85BC858C158B
:105670009D05AE05BF0550F482E0C82ED12CE12C6B
:10568000F12C92E0492E512C612C712C9E012F5F40
:105690003F4FB701A601C4010E9408298823C9F120
:1056A00089819A81AB81BC81892B8A2B8B2B01F15B
:1056B000260137019FEF491A590A690A790A2D8193
:1056C0003E814F8158852F5F3F4F4F4F5F4F2D8356
:1056D0003E834F8358873FEFC31AD30AE30AF30A86
:1056E000B3CF408051806280738033243394A6CF3F
:1056F000C414D504E604F70411F70FEF1FEF2FEFE2
:105700003FE0B701A601C4010E947628782E8111DE
:105710001AC0712C872D2C960FB6F894DEBF0FBEE1
:10572000CDBFDF91CF911F910F91FF90EF90DF9050
:10573000CF90BF90AF909F908F907F906F905F9031
:105740004F903F900895F50144815581668177819E
:10575000411551056105710539F097018601C401B4
:105760000E9476288823A9F2D5011496CD92DD9265
:10577000ED92FC921797332051F0D701C6010196A4
:10578000A11DB11DF40180839183A283B383F50130
:1057900085899689A789B08D892B8A2B8B2B09F057
:1057A000B9CFC58AD68AE78AF08E818180688183E5
:1057B000B1CFCF93DF93EC01462F41706C857D858F
:1057C0008E859F850E943928882351F0888920E2A0
:1057D000829FC001112488539F4EDF91CF9108957D
:1057E00090E080E0FACFCF93DF93EC018B818823A8
:1057F00049F1898187FF22C061E0CE010E94D92B47
:10580000FC01892BF9F08081853EE1F08B818230AB
:1058100040F489899A89AB89BC89848F958FA68F3A
:10582000B78F8D899E89938F828F8D899E89AF894D
:10583000B88DB58BA48B89818F778983DF91CF91C8
:105840000C94972781E0888380E0DF91CF910895C1
:105850002F923F924F925F926F927F928F929F9280
:10586000AF92BF92CF92DF92EF92FF920F931F936E
:10587000CF93DF9300D01F92CDB7DEB78C014B01E1
:105880001A01DC0113968C911397813009F0CAC07C
:1058900011968C9181FFC6C082FDB0C06101D80114
:1058A00018964D915D916D917C911B97C114D10417
:1058B00009F41AC159968D919C915A97FC017480F4
:1058C0002FEF270D2A013B0139E076946794579416
:1058D00047943A95D1F7722E74207A01F1E0FF22B5
:1058E000711020C0E114F104E9F414964D915D911A
:1058F0006D917C911797411551056105710509F06E
:1059000097C055968D919D910D90BC91A02D0097BB
:10591000A105B10509F0A5C0C8010E94DE2A8823AF
:1059200009F480C080E092E08E199F0956018C1521
:105930009D0508F45C01D80159964D915C915A97E8
:1059400014968D919D910D90BC91A02D0297A10967
:10595000B109FA01258504C0880F991FAA1FBB1F32
:105960002A95D2F74685578560897189840F951FDE
:10597000A61FB71F9C01AD01270D311D411D511DF3
:1059800029013A01A11432E0B30609F078C08091F0
:10599000C8129091C912A091CA12B091CB124816A8
:1059A00059066A067B0669F41092D0128FEF9FEFBA
:1059B000DC018093C8129093C912A093CA12B093CD
:1059C000CB129401B301A2018091D1129091D21215
:1059D0000E943027882331F1F80180859185A285C6
:1059E000B3858A0D9B1DA11DB11D80879187A2875C
:1059F000B3878A0C9B1CCA18DB0851CFF801418978
:105A000052896389748980859185A285B3854817F9
:105A100059076A077B0709F441CFC8010E94452A4C
:105A200081113CCF81E0D8018C938FEF9FEF72C042
:105A30009E012F5F3F4F0E940829882399F3898197
:105A40009A81AB81BC81F801218D328DF9012789C2
:105A5000203169F4883FFFEF9F07A105B10508F0E9
:105A60005BCFF80184839583A683B7835BCF883FA0
:105A70002FEF9207A2072FE0B20798F34DCFE11462
:105A8000F10451F5D80118964D915D916D917C917D
:105A90001B9751968D919D910D90BC91A02D48170B
:105AA00059076A077B07C0F00E949727882309F4EB
:105AB000B9CF81E08093D0124092C8125092C9129F
:105AC0006092CA127092CB12A501B401C70188532B
:105AD0009F4E0E9402DD80CF41E0C301B2010E94CF
