:020000040000FA
:100000000C94C6110C9431B40C9406B40C94DBB36C
:100010000C94B0B30C9485B30C945AB30C942FB3D6
:100020000C9404B30C94F7110C94F7110C94F71181
:100030000C94F7110C9473A80C94F7110C94F7110D
:100040000C94F7110C9444370C94F7110C94F7119D
:100050000C94F7110C94F7110C946C440C94BAB2F4
:100060000C94F7110C94FF9A0C94F7110C94F7115F
:100070000C94F7110C94F7110C94F7110C94F711E0
:100080000C94F7110C94F7110C94F7110C94F711D0
:100090000C94F7110C94F7110C94F7110C94F711C0
:1000A0000C94F7110C94F7110C94F7110C94F711B0
:1000B0000C94F7110C94F7110C94F7110C94F711A0
:1000C0000C94F7110C94F7110C94F7110C94F71190
:1000D0000C94F7110C94F7110C945B320C941C32B5
:1000E0000C94F711084AD73B3BCE016E84BCBFFD90
:1000F000C12F3D6C74319ABD56833DDA3D00C77FF8
:1001000011BED9E4BB4C3E916BAAAABE0000008090
:100110003F05A84CCDB2D44EB93836A9020C50B91F
:10012000918688083CA6AAAA2ABE000000803F004B
:100130000C9443760C945D560C942D9B0C94C77EC6
:100140000C94CB550C9424C60C942A9F0C94D47513
:100150000C94AF7D0C940F760C947B790C949C1BC3
:100160000C9432210C94F6A20C94D4A30C94D514C4
:100170000C948E1B0C94F67A0C94B7A40C94C47A4D
:100180000C9485140C94547E0C943C9F0C94469FC4
:100190000C94EE550C94A17E0C9423B60C94F22092
:1001A0000C94D2450C94B47E0C948C340C941A9F0D
:1001B0000C944EB50C943F560C94FE200C94EA76A9
:1001C0000C940E450C94607B0C94397E0C941112A7
:1001D0000C9430B80C94B1120C94D3120C941C569D
:1001E0000C94249F0C94DF7E0C9486A90C94A1752A
:1001F0000C94AA1B0C94E33E0C945DAA0C94947886
:100200000C943AB80C94F6550C94179F0C94CF4567
:100210000C94D01D0C9497450C94007E0C94FE55C4
:100220000C9488770C94725D0C9449560C942E9F14
:100230000C94C7450C948E7E0C9414BA0C940856FA
:100240000C9458B50C94F17E0C94C2450C94B4A453
:100250000C94739F0C94247E0C940F9F0C94535613
:100260000C9473B70C94F9110C946A120C94409F7F
:100270000C94B17B0C942D760C94E9450C94EEC44F
:100280000C94847D0C94D7450C94209F0C94EC1214
:100290000C94637A0C94D67D0C94A1140C944A9F10
:1002A0000C94A6120C94297E0C9435560C943C7830
:1002B0000C9474760C94B81B0C942B560C941C7BE9
:1002C0000C94BA9E0C94329F0C94C41C0C94DA4586
:1002D0000C94389F0C9412560C94761F0C94E7786B
:1002E0000C94CA450C94C6550C942D7E0C94A745CD
:1002F0000C94F4A20C947C450C94EF750C949175BD
:100300000C940B9F0C94DE5B0C9486140C94027975
:100310000C94F8200C94D0550C94FA110C94FA7BA0
:100320000C94E4550C94DF450C94459F0C94139F5A
:100330000C949C2D0C94947A0C94597D0C949419E3
:100340000C94059F0C94617E0C94EC7E0C9442C638
:100350000C94E37E0C94DA550C94F17D0C94427B62
:100360004E414E494E495459494E46CDCCCC3D0A9A
:10037000D7233C17B7D13877CC2B329595E6241F7D
:10038000B14F0A000020410000C84200401C462036
:10039000BCBE4CCA1B0E5AAEC59D74434F4D4D5545
:1003A0004E49434154494F4E0044525952554E0014
:1003B0004552524F525300494E464F004543484F15
:1003C000001000C90210012C014001220170011827
:1003D00001B0010E01F00104015002FA00B002F078
:1003E000003003E600D003DC009004D2007005C8A2
:1003F00000A006BE000008B400B009AA00D00BA0FF
:1004000000600E960060118C0000158200201978A3
:1004100000C01D6E00A0226400B0275A00902C502E
:100420000000314600E0343C0010383200903A2899
:1004300000603C1E00A03D1400803E0A00203F00EA
:100440000048004700460045004400430042004188
:100450000041343456004A3032004A3136004800F8
:10046000570041343556004731205831303020593B
:1004700031303020205A353020463530303000477A
:1004800031205A302E31352046333030004731206C
:10049000583330205931393020463530303000471C
:1004A00031205A352046353030004731205A302E21
:1004B0003135204633303000473120583139302033
:1004C00059313930204635303030004731205A35E7
:1004D0002046353030004731205A302E3135204605
:1004E00033303000473120583139302059333020F3
:1004F0004635303030004731205A352046353030CF
:10050000004731205A302E313520463330300047F5
:1005100031205833302059333020463530303000C8
:100520004731205A3520463530300056312E322E94
:1005300039004A3333200073746F70207072696E13
:1005400074206E657874206D6F646520004A3032C7
:10055000004A31320047393000473120452569468D
:1005600035303000473120452D302E314625690089
:1005700047312045302E31462569004731205A2524
:1005800069462569004731205A2D302E31462569AC
:10059000004731205A302E31462569004731205915
:1005A000256946256900473120592D302E314625D1
:1005B000690047312059302E3146256900473120E6
:1005C00058256946256900473120582D302E31467F
:1005D00025690047312058302E31462569004739BA
:1005E000310047323800473238205A00473238202D
:1005F00059004732382058004132305620004F4BC6
:10060000004A3036004D313037004D3834004A3022
:1006100034004A3136004A3138004A303500454E00
:100620004400464E20004A3032003939393A3939CF
:1006300039004D0048004137562000413656202DE4
:100640002D2D0041365620005A3A2000593A2000FC
:10065000583A200041355600413456200041335667
:1006600020004132562000413156200041305620B2
:100670000045525220004D313130004A3130004B9C
:10068000494C4C45442E200053544F505045442E65
:1006900020005072696E7465722073746F7070659B
:1006A000642064756520746F206572726F72732E9A
:1006B0002046697820746865206572726F722061C7
:1006C0006E6420757365204D39393920746F20723E
:1006D0006573746172742E202854656D7065726143
:1006E000747572652069732072657365742E20536A
:1006F0006574206974206166746572207265737414
:10070000617274696E67290A004E6F204C696E65CC
:10071000204E756D62657220776974682063686524
:10072000636B73756D2C204C617374204C696E651E
:100730003A20004E6F20436865636B73756D2077B8
:10074000697468206C696E65206E756D6265722CC7
:10075000204C617374204C696E653A2000636865B3
:10076000636B73756D206D69736D617463682C20A4
:100770004C617374204C696E653A20004C696E655B
:10078000204E756D626572206973206E6F74204C07
:10079000617374204C696E65204E756D6265722BB5
:1007A000312C204C617374204C696E653A20004DE9
:1007B0003131300053442072656164206572726F7C
:1007C000720A00446F6E65207072696E74696E679C
:1007D0002066696C650A0020496E76616C69642048
:1007E00065787472756465722000000057430000DC
:1007F000574300004E4300000000000000000000CE
:1008000000002042403A0020403A00202F002042C1
:100810003A00202F0020543A004A3033004A303446
:10082000004A30370048656174696E6720646F6EF6
:10083000652E003F0A0020573A004A3036004865CE
:100840006174696E672E2E2E003344205072696EDB
:100850007465722072656164792E00205A3A002016
:10086000593A0020436F756E7420583A2000204595
:100870003A00205A3A0020593A00583A0023646559
:1008800066696E65202044454641554C545F4B6473
:10089000200023646566696E652020444546415505
:1008A0004C545F4B69200023646566696E652020A7
:1008B00044454641554C545F4B70200050494420FC
:1008C0004175746F74756E652066696E69736865CD
:1008D00064212050757420746865206C61737420E5
:1008E0004B702C204B6920616E64204B6420636F39
:1008F0006E7374616E74732066726F6D2062656CC6
:100900006F7720696E746F20436F6E6669677572CA
:100910006174696F6E2E680A0050494420417574F5
:100920006F74756E65206661696C656421207469F9
:100930006D656F75740A00504944204175746F7479
:10094000756E65206661696C6564212054656D7003
:100950006572617475726520746F6F20686967686D
:100960000A00204B643A2000204B693A2000204BBB
:10097000703A20000A20436C617373696320504908
:1009800044200A002054753A2000204B753A20007C
:10099000206D61783A2000206D696E3A2000206455
:1009A0003A200020626961733A200047322F4733B2
:1009B0002062616420706172616D65746572730A92
:1009C00000536C6565702E2E2E004A30340033447F
:1009D000205072696E7465722072656164792E00B0
:1009E000526573756D696E67207072696E74005719
:1009F00061697420666F7220757365722E2E2E00E9
:100A00004E6F206D6F76652E00456E642066696CB2
:100A100065206C6973740A00426567696E206669B7
:100A20006C65206C6973740A005344207072696E9F
:100A300074696E67206279746520004E6F7420536C
:100A400044207072696E74696E670A0044656C6553
:100A500074696F6E206661696C65642C2046696CF0
:100A6000653A200046696C652064656C6574656450
:100A70003A006F70656E206661696C65642C204673
:100A8000696C653A20002569730025696D20256928
:100A900073002569682025696D2025697300256923
:100AA00064202569682025696D2025697300256902
:100AB0007920256964202569682025696D202569CC
:100AC00073005072696E742074696D653A20004835
:100AD000656174696E672E2E2E0033442050726952
:100AE0006E7465722072656164792E006F666600AF
:100AF000BC03B703B003A9039B0344454255473ADF
:100B0000004B494C4C45442E20006F6B00426564FD
:100B100020646F6E652E004A3039003F0A0020576E
:100B20003A004265642048656174696E672E004A28
:100B30003038003344205072696E746572204F66FD
:100B4000662E004649524D574152455F4E414D4534
:100B50003A4D61726C696E20312E312E302D524328
:100B60003820284769746875622920534F555243CD
:100B7000455F434F44455F55524C3A6874747073F7
:100B80003A2F2F6769746875622E636F6D2F4D6100
:100B9000726C696E4669726D776172652F4D617214
:100BA0006C696E2050524F544F434F4C5F56455224
:100BB00053494F4E3A312E30204D414348494E451E
:100BC0005F545950453A3344205072696E746572CF
:100BD0002045585452554445525F434F554E543A60
:100BE0003120555549443A63656465326132662D5A
:100BF000343161322D343734382D396231322D633E
:100C000035356336326633363766660A007A325FC8
:100C10006D696E3A20007A5F6D696E3A2000795FE7
:100C20006D696E3A2000785F6D696E3A20005265FA
:100C3000706F7274696E6720656E6473746F702074
:100C40007374617475730A004D31343520533C69F7
:100C50006E6465783E206F7574206F662072616ED9
:100C600067652028302D31290A0053657474696E38
:100C7000672054726176656C20416363656C6572B0
:100C80006174696F6E3A200053657474696E6720F1
:100C90005265747261637420416363656C6572614F
:100CA00074696F6E3A200053657474696E672050E2
:100CB00072696E7420416363656C65726174696FFB
:100CC0006E3A200053657474696E67205072696EC5
:100CD0007420616E642054726176656C2041636398
:100CE000656C65726174696F6E3A20005A20456EBA
:100CF0006473746F702041646A7573746D656E748B
:100D00002073657420746F20286D6D293A00205A75
:100D100000205900580020204D61783A2000205AC8
:100D200000205900580020204D696E3A20004F6E77
:100D300020004F666600536F667420656E6473749E
:100D40006F70733A200020643A0020693A002070E6
:100D50003A004572723A20546F6F2066617221002A
:100D6000546F6F206661722066726F6D20726566C7
:100D70006572656E636520706F696E740A004F66F8
:100D80006673657473206170706C6965640041639B
:100D9000746976652045787472756465723A2000CE
:100DA000556E6B6E6F776E20636F6D6D616E643A1A
:100DB000202200526573656E643A20006F6B003428
:100DC00020793D003320783D003220793D003120EC
:100DD000783D00473238205830205930004A3135AC
:100DE000004A3233004B494C4C45442E20004B49BD
:100DF0004C4C45442E2000506C6561736520726533
:100E0000736574005052494E5445522048414C5429
:100E10004544005072696E7465722068616C746537
:100E2000642E206B696C6C28292063616C6C65648E
:100E3000210A000000000000000000000000005730
:100E400061726E696E673A20486F6D696E67204205
:100E5000756D702044697669736F72203C20310A89
:100E6000000000A0400000A040000000400000572B
:100E7000430000574300004E43FFFFFF7C3C3E5EB3
:100E80002B3D3F2F5B5D3B2C2A225C004572726F2D
:100E9000722077726974696E6720746F20454550BF
:100EA000524F4D210A00206279746573290A00535C
:100EB000657474696E67732053746F72656420285B
:100EC00000454550524F4D20636865636B73756DE7
:100ED000206D69736D617463680A002062797465BE
:100EE00073290A002073746F7265642073657474CB
:100EF000696E67732072657472696576656420280F
:100F00000048617264636F6465642044656661755E
:100F10006C742053657474696E6773204C6F6164E0
:100F200065640A0020204D3230302044300A002011
:100F3000204D3230302044002044697361626C657A
:100F4000640A0046696C616D656E74207365747423
:100F5000696E67733A0020440020490020204D3319
:100F600030312050005049442073657474696E67B5
:100F7000733A0A0020460020420020480020204DFD
:100F80003134352053004D6174657269616C20689D
:100F9000656174757020706172616D6574657273DE
:100FA0003A0A0020204D363636205A005A32204563
:100FB0006E6473746F702061646A7573746D656EAE
:100FC0007420286D6D293A0A00205A00205900200B
:100FD000204D323036205800486F6D65206F6666B0
:100FE00073657420286D6D290A00204500205A0081
:100FF00020590020580020420020540020204D326B
:101000003035205300416476616E636564207661FB
:10101000726961626C65733A20533D4D696E20665A
:101020006565647261746520286D6D2F73292C20AD
:10103000543D4D696E2074726176656C20666565FD
:10104000647261746520286D6D2F73292C20423DD8
:101050006D696E696D756D207365676D656E742061
:1010600074696D6520286D73292C20583D6D617859
:10107000696D756D205859206A65726B20286D6DF9
:101080002F73292C20205A3D6D6178696D756D2074
:101090005A206A65726B20286D6D2F73292C2020D1
:1010A000453D6D6178696D756D2045206A65726B8F
:1010B00020286D6D2F73290A002054002052002033
:1010C000204D323034205000416363656C6572619D
:1010D00074696F6E733A20503D7072696E74696EF8
:1010E000672C20523D7265747261637420616E6476
:1010F00020543D74726176656C0A00204500205AC8
:101100000020590020204D3230312058004D6178A8
:10111000696D756D20416363656C65726174696F9B
:101120006E20286D6D2F7332293A0A002045002069
:101130005A0020590020204D3230332058004D6194
:1011400078696D756D20666565647261746573207C
:10115000286D6D2F73293A0A00204500205A00207F
:10116000590020204D393220580053746570732087
:1011700070657220756E69743A0A0024F4D4305098
:10118000C38E20C2A24017828B7011127A910D81FA
:101190006CD90AA861E108C7586607615143061E69
:1011A0004B5D05C145A7041A411104093D9803711F
:1011B0003931034036DB0265339102D4305402806A
:1011C0002E1D02632CEE01752AC501B028A0011066
:1011D0002781018F2564012B244B01E0223401ACCF
:1011E000211F018D200D01801FFC00841EED009742
:1011F0001DDF00B81CD200E61BC600201BBC00642B
:101200001AB200B219A8000A19A0006A189900D1F0
:1012100017910040178B00B516840031167E00B37D
:101220001579003A157300C7146F0058146A00EE60
:101230001366008813630025135E00C7125B006C01
:1012400012570015125400C111510070114F0021A6
:10125000114B00D61049008D104700461044000283
:10126000104200C00F4000800F3E00420F3C0006BD
:101270000F3B00CB0E3800930E37005C0E35002775
:101280000E3400F30D3200C10D3100900D300060BE
:101290000D2E00320D2D00050D2C00D90C2B00AEAB
:1012A0000C2900850C29005C0C2700350C27000E4A
:1012B0000C2600E80B2400C40B2400A00B23007DA7
:1012C0000B23005A0B2100390B2100180B2000F8CA
:1012D0000A1F00D90A1E00BB0A1E009D0A1D0080BD
:1012E0000A1D00630A1C00470A1B002C0A1B001180
:1012F0000A1A00F7091A00DD091900C4091900AB20
:10130000091900920917007B091800630917004C9E
:1013100009160036091600200916000A091500F5FD
:10132000081500E0081400CC081400B8081400A444
:10133000081400900813007D0812006B0813005871
:101340000812004608120034081100230811001288
:1013500008110001081100F0071000E0071000D08C
:10136000071000C0071000B0070F00A10710009180
:10137000070E0083070F0074070F0065070E005764
:10138000070E0049070E003B070D002E070E002038
:10139000070D0013070D0006070D00F9060C00ED00
:1013A000060D00E0060C00D4060C00C8060C00BCBC
:1013B000060C00B0060C00A4060B0099060C008D6C
:1013C000060B0082060B0077060B006C060B006113
:1013D000060A0057060B004C060A0042060A0038AF
:1013E000060A002E060A0024060A001A060A001041
:1013F00006090007060A00FD050900F4050900EBCF
:10140000050900E2050900D9050900D0050900C752
:10141000050900BE050900B5050800AD050800A5D1
:101420000509009C050800940508008C0508008447
:101430000508007C050800740508006C05070065B8
:101440000508005D050700560508004E0507004722
:101450000507004005080038050700310507002A88
:10146000050700230507001C050600160507000FE9
:101470000507000805060002050700FB040600F545
:10148000040700EE040600E8040600E2040700DB9F
:10149000040600D5040600CF040600C9040600C3F4
:1014A000040600BD040600B7040600B1040500AC44
:1014B000040600A6040600A00405009B040600958F
:1014C000040500900406008A0405008504050080D8
:1014D0000406007A04050075040500700405006B1D
:1014E00004050066040500610405005C040500575E
:1014F000040500520405004D04050048040500439E
:101500000405003E0404003A0405003504050030DB
:101510000404002C04050027040400230405001E15
:101520000404001A04040016040500110404000D4C
:10153000040400090405000404040000040400FC81
:10154000030400F8030400F4030400F0030400ECB7
:10155000030400E8030400E4030400E0030400DCE7
:10156000030400D8030400D4030400D0030400CC17
:10157000030400C8030300C503030024F404D920B6
:101580001BC40C5C0E9804C4095F0265077101F46A
:1015900005F900FB04B30048048700C10369005843
:1015A00003550003034500BE023A00840231005394
:1015B000022A002902250004022000E4011C00C8C0
:1015C000011900AF01170098011400840113007184
:1015D0000110006101100051010E0043010D0036A1
:1015E000010B002B010B0020010B00150109000C61
:1015F00001090003010800FB000800F3000800EBEC
:10160000000700E4000600DE000600D8000600D255
:10161000000600CC000500C7000500C2000500BDA3
:10162000000400B9000400B5000400B1000400ADDE
:10163000000400A9000400A5000300A20003009F0D
:101640000004009B00030098000300950002009333
:10165000000300900003008D0002008B000300884F
:101660000002008600020084000300810002007F67
:101670000002007D0002007B00020079000200777A
:101680000001007600020074000200720001007187
:101690000002006F0002006D0001006C0002006A91
:1016A000000100690002006700010066000100659A
:1016B000000100640002006200010061000100609E
:1016C0000001005F0002005D0001005C0001005BA2
:1016D0000001005A000100590001005800010057A4
:1016E00000010056000100550001005400010053A4
:1016F00000000053000100520001005100010050A1
:101700000001004F0001004E0000004E0001004D9E
:101710000001004C0001004B0000004B0001004A9A
:101720000001004900010048000000480001004796
:101730000001004600000046000100450000004591
:10174000000100440001004300000043000100428A
:101750000000004200010041000000410001004083
:101760000001003F0000003F0001003E0000003E7D
:101770000001003D0000003D0001003C0000003C75
:101780000000003C0001003B0000003B0001003A6B
:101790000000003A00010039000000390001003863
:1017A000000000380000003800010037000000375A
:1017B0000001003600000036000000360001003550
:1017C0000000003500000035000100340000003446
:1017D000000000340001003300000033000000333B
:1017E0000001003200000032000000320001003130
:1017F0000000003100000031000100300000003026
:10180000000000300001002F0000002F0000002F1A
:101810000000002F0001002E0000002E0000002E0E
:101820000001002D0000002D0000002D0000002D03
:101830000001002C0000002C0000002C0000002CF7
:101840000001002B0000002B0000002B0000002BEB
:101850000001002A0000002A0000002A0000002ADF
:1018600000010029000000290000002900000029D3
:1018700000000029000100280000002800000028C6
:1018800000000028000000280001002700000027B9
:1018900000000027000000270000002700010026AC
:1018A00000000026000000260000002600000026A0
:1018B0000001002500000025000000250000002593
:1018C0000000002500000025000100240000002485
:1018D0000000002400000024000000240001002378
:1018E000000000230000002300000023000000236C
:1018F000000000230000002300010022000000225D
:10190000000000220000002200000022000000224F
:101910000001002100000021000000210000002142
:101920000000002100000021000000210001002033
:101930000000002000000020000000200000002027
:101940000000002000000020000000200001001F17
:101950000000001F0000001F0000001F0000001F0B
:101960000000001F0000001F0001001E0000001EFC
:101970000000001E0000001E0000004D38342058FA
:101980002059205A2045006265640A002C20737992
:101990007374656D2073746F707065642120486581
:1019A000617465725F49443A2000544845524D4184
:1019B0004C2052554E4157415900546865726D6133
:1019C0006C2052756E61776179004A31300048654C
:1019D0006174696E67206661696C65640048656161
:1019E00074696E67206661696C6564004A31300015
:1019F00070012C0190012701B0012201C0011D01DD
:101A0000F00118011002130130020E0160020901F9
:101A100090020401C002FF000003FA004003F50039
:101A20008003F000D003EB002004E6007004E10026
:101A3000E004DC004005D700C005D2004006CD0020
:101A4000D006C8008007C3003008BE00F008B90007
:101A5000C009B400B00AAF00B00BAA00D00CA500BA
:101A6000000EA000500F9B00C01096005012910075
:101A700000148C00C0158700B0178200B0197D00DB
:101A8000D01B7800001E730040206E009022690079
:101A9000F024640040275F0090295A00E02B550095
:101AA000102E500020304B0010324600E033410031
:101AB00090353C001037370070383200A0392D00C7
:101AC000B03A2800A03B2300603C1E00103D1900E6
:101AD000903D1400103E0F00703E0A00C03E05000D
:101AE000003F00004572723A204D415854454D5018
:101AF00020424544004572723A204D415854454DAC
:101B000050004D415854454D5020747269676765C7
:101B1000726564004572723A204D494E54454D50ED
:101B200020424544004572723A204D494E54454D7D
:101B300050004D494E54454D502074726967676599
:101B4000726564004A3130004A31300025753A250B
:101B500030327500253032753A25303275002D2D22
:101B60002D005344005A0059005800012000012064
:101B7000004E6F2053442063617264005072696E9E
:101B8000742066726F6D2053440053746F70207020
:101B900072696E7400526573756D65207072696E3E
:101BA00074005061757365207072696E7400436FC4
:101BB0006E74726F6C00507265706172650054755E
:101BC0006E6500496E666F2073637265656E0046D0
:101BD0006C6F7700466C6F770046616E207370659E
:101BE00065640046616E20737065656400426564DB
:101BF00000426564004E6F7A7A6C65004E6F7A7AA7
:101C00006C65005370656564005370656564004DD4
:101C100061696E005072656865617420504C4120A6
:101C2000426564005072656865617420504C4100E3
:101C300050726570617265005072656865617420EC
:101C400041425320426564005072656865617420AA
:101C50004142530050726570617265004D343238F4
:101C600000436F6F6C646F776E00507265686561DA
:101C70007420414253005072656865617420504C75
:101C800041004D38340044697361626C652073749F
:101C9000657070657273004D6F7665206178697349
:101CA0000053657420686F6D65206F666673657498
:101CB0007300473238004175746F20686F6D65009E
:101CC0004D61696E004D6F76652058004D6F7665E9
:101CD0002059004D6F7665205A00457874727564FE
:101CE0006572004578747275646572004D6F766533
:101CF000205A004D6F76652059004D6F766520584B
:101D0000004D6F76652061786973004D6F766520B0
:101D1000302E316D6D004D6F766520316D6D004D4B
:101D20006F76652031306D6D00507265706172653F
:101D300000526573746F7265206661696C736166C9
:101D400065004C6F6164206D656D6F72790053742E
:101D50006F7265206D656D6F72790046696C616D9B
:101D6000656E74004D6F74696F6E0054656D7065BB
:101D7000726174757265004D61696E0050726568BC
:101D80006561742041425320636F6E660050726536
:101D90006865617420504C4120636F6E6600504945
:101DA000442D44005049442D44005049442D4900DD
:101DB0005049442D49005049442D50005049442D6C
:101DC00050002002204661637400200220466163B7
:101DD00074002002204D6178002002204D617800BF
:101DE0002002204D696E002002204D696E004F6672
:101DF00066004F6E20004175746F74656D7000460B
:101E0000616E2073706565640046616E2073706555
:101E100065640042656400426564004E6F7A7A6CC6
:101E200065004E6F7A7A6C6500436F6E74726F6CEA
:101E30000053746F7265206D656D6F727900426535
:101E40006400426564004E6F7A7A6C65004E6F7A6A
:101E50007A6C650046616E2073706565640046614A
:101E60006E2073706565640054656D706572617491
:101E7000757265004573746570732F6D6D005A73CC
:101E8000746570732F6D6D005973746570732F6D69
:101E90006D005873746570732F6D6D00412D7472F1
:101EA0006176656C00412D726574726163740041E6
:101EB0006D6178204500416D6178205A00416D6167
:101EC00078205900416D617820580056547261762F
:101ED000206D696E00566D696E00566D6178204503
:101EE00000566D6178205A00566D61782059005671
:101EF0006D617820580056652D6A65726B00567AC0
:101F00002D6A65726B0056792D6A65726B00567882
:101F10002D6A65726B00416363656C00436F6E747C
:101F2000726F6C0046696C2E204469612E004F660A
:101F300066004F6E20004520696E206D6D330043B2
:101F40006F6E74726F6C00052E2E004D61696E000D
:101F50004A303100436172642072656D6F7665644A
:101F6000004A3030004361726420696E7365727498
:101F700065640000002100240027002A002D0030A5
:101F800000330001010000040107010A01000020E4
:101F9000002300260029002C002F00320000010041
:101FA0000003010601090100000A0B02090C0D0ED5
:101FB000080703040100000000000000000000000A
:101FC0000000000000000000000000000000000011
:101FD00000000012111000000000000000000000CE
:101FE0000000000000000000000000000020205061
:101FF0006C616E6E65724275666665724279746573
:10200000733A20002046726565204D656D6F7279C8
:102010003A2000436F6D70696C65643A204A756EB2
:1020200020323020323032320A00207C2041757458
:10203000686F723A20284A6F6C6C792C2078787817
:1020400078787878782E434F2E290A00323031364E
:102050002D31322D30362031323A303000204C6173
:10206000737420557064617465643A2000312E31B8
:102070002E302D5243380A0056312E322E390A00A6
:1020800020536F6674776172652052657365740AB8
:1020900000205761746368646F67205265736574CC
:1020A0000A002042726F776E206F7574205265733C
:1020B00065740A002045787465726E616C20526503
:1020C0007365740A00506F77657255700A004A3163
:1020D00032004A31370073746172740A004731204C
:1020E0005A2B323020452D3500473120452D350003
:1020F000473931006572726F722077726974696E48
:102100006720746F2066696C650A004A3132004AA4
:102110003033004731205A2569204635303000479A
:102120003238004A3330004A3330004A3239004AEC
:102130003239004A313800446F6E65207361766928
:102140006E672066696C652E0A004D3239004A318F
:1021500034004D3331004D383420582059205A2056
:10216000450057726974696E6720746F2066696CE8
:10217000653A20004A3231006F70656E20666169F1
:102180006C65642C2046696C653A20004A32310047
:102190006F70656E206661696C65642C2046696CA1
:1021A000653A20004A32300046696C652073656CE0
:1021B00065637465640A002053697A653A200046B5
:1021C000696C65206F70656E65643A20004A323133
:1021D000006F70656E206661696C65642C204669CD
:1021E0006C653A20002066696C653A20004E6F7776
:1021F00020002220706F73002220706172656E745F
:102200003A2200535542524F5554494E45204341BE
:102210004C4C207461726765743A22004B494C4CF7
:1022200045442E2000747279696E6720746F2063B4
:10223000616C6C207375622D67636F6465206669DD
:102240006C6573207769746820746F6F206D616EA0
:1022500079206C6576656C732E204D4158206C6535
:1022600076656C2069733A00473930004731205A4F
:102270002D3230006175746F25692E67004D323440
:10228000004D323320257300656E71756575656983
:102290006E6720220053442063617264206F6B0AD2
:1022A000006F70656E526F6F74206661696C656453
:1022B0000A00766F6C756D652E696E6974206661B3
:1022C000696C65640A004572726F723A005344206B
:1022D000696E6974206661696C0A006563686F3AAB
:1022E0000001021020200808102040102040800229
:1022F000010201080402010102040810204080804C
:1023000040201008040201800402018040201008CF
:1023100004020108040201010204081020408001A7
:102320000204081020408000002200250028002B15
:10233000002E003100340002010000050108010BED
:102340000105050505070508080808020202020A3A
:102350000A08080404040401010101010101010348
:1023600003030303030303040707070C0C0C0C0C03
:102370000C0C0C0202020206060606060606060BF6
:102380000B0B0B0B0B0B0B0242C624C611241FBEFA
:10239000CFEFD1E2DEBFCDBF00E00CBF15E0A0E083
:1023A000B2E0E8ECFAEB01E00BBF02C007900D923F
:1023B000A235B107D9F727E1A2E5B5E001C01D922A
:1023C000A533B207E1F711E1C5ECD1E100E006C0A9
:1023D00021970109802FFE010E948CDCC43CD107AB
:1023E00080E00807A9F70E948AC70C9452DD0C947C
:1023F000000008952CE933E549E45EE36091280E7E
:102400007091290E80912A0E90912B0E0E942DDA48
:1024100060936C0270936D0280936E0290936F02D2
:1024200008952CE933E549E45EE360912C0E709148
:102430002D0E80912E0E90912F0E0E9469D56093E3
:1024400070027093710280937202909373020895E8
:10245000880F991F880F991FFC01E855FF4E408196
:102460005181628173818159924FFC014083518374
:1024700062837383E0916D0DF0916E0D8289938973
:10248000A489B5898093690D90936A0DA0936B0D13
:10249000B0936C0D0895CF93DF932FB7F894AC01F0
:1024A000440F551F440F551FFA01E855FF4E608138
:1024B0007181828193812FBFEA01C75AD24F0E9456
:1024C0000AD5288139814A815B810E9469D5DF91D3
:1024D000CF910895CF93DF93FC0126853785D901ED
:1024E000A05CBF4F8D919C91119701968F73992796
:1024F000E901CE5BDF4F4881598148175907D9F36D
:102500004D915C91240F351FD9016C93A685B78539
:10251000A05CBF4F11969C938E93A689B7898C912E
:10252000978D21E030E001C0220F9A95EAF7822BC7
:102530008C9381E081A30488F589E02D80818064FB
:10254000808381E090E0DF91CF910895FC0191A11B
:10255000992329F0A489B5898C9186FFF9CF11A21E
:102560000895DC011C968D919C91FC01E05CFF4F6D
:10257000408151813296208131814217530781F089
:1025800020813181820F931FDC018C912081318168
:102590002F5F3F4F2F7333273183208390E00895BF
:1025A0008FEF9FEF0895FC0184859585FC01E05C29
:1025B000FF4F40815181329620813181421753076C
:1025C00041F020813181820F931FFC01808190E0D6
:1025D00008958FEF9FEF0895FC0124853585F9015B
:1025E000E05CFF4F808191812E5B3F4FF90120819C
:1025F0003181805C9F4F821B930B60E470E00E94EE
:1026000059DC08955F9AE5E9FEE010828A9A479ABC
:1026100011829FB7F894A8E0B1E08C9181608C930F
:102620009FBF479A1282129A0895CF92DF92EF923B
:10263000FF92C0908002D0908102E0908202F090E0
:1026400083028091870E8823B1F120E030E0A90158
:10265000C701B6010E9403D5882369F12BED3FE045
:1026600049E450E4C701B6010E9469D520E030E09A
:1026700040E05FE30E9469D5A70196010E9469D5F9
:1026800020E030E040E05FE30E9469D59B01AC01AF
:1026900060E070E080E89FE30E942DDA6093090219
:1026A00070930A0280930B0290930C02FF90EF90BC
:1026B000DF90CF90089560E070E080E89FE3EECF78
:1026C000CF92DF92EF92FF92CF93DF93EC01C09015
:1026D000150ED090160EE090170EF090180EA70170
:1026E0009601688179818A819B810E9403D587FF49
:1026F00004C0C882D982EA82FB82C090190ED090B1
:102700001A0EE0901B0EF0901C0EA70196016C8132
:102710007D818E819F810E9403D587FF04C0CC827A
:10272000DD82EE82FF82C0901D0ED0901E0EE090E2
:102730001F0EF090200EA7019601688579858A8585
:102740009B850E9403D587FF04C0C886D986EA8688
:10275000FB86C0905B02D0905C02E0905D02F0903E
:102760005E02A7019601688179818A819B810E941E
:1027700093DB181624F4C882D982EA82FB82C090C7
:102780005F02D0906002E0906102F0906202A701C7
:1027900096016C817D818E819F810E9493DB18164A
:1027A00024F4CC82DD82EE82FF82C0906302D0905E
:1027B0006402E0906502F0906602A70196016885C8
:1027C00079858A859B850E9493DB181624F4C88638
:1027D000D986EA86FB86DF91CF91FF90EF90DF905C
:1027E000CF900895CF92DF92EF92FF920F931F93B5
:1027F000CF93DF93EC01CC0FDD1FCC0FDD1FFE016B
:10280000E856F14F20E030E0A901608171818281BA
:1028100093810E9433D9FE01E159F74F2081318124
:10282000428153810E9433D96B017C01FE01EA5041
:10283000F84F25913591459154918E010B5E114FC2
:102840000E9433D9F8016083718382839383FE01F0
:10285000E651F84F2591359145915491C55ADD4F78
:10286000C701B6010E9433D9688379838A839B8329
:10287000DF91CF911F910F91FF90EF90DF90CF905C
:1028800008958F929F92AF92BF92EF92FF920F9313
:102890001F93CF93DF938C014A015B01EC01CC0FB6
:1028A000DD1FCC0FDD1FCE018C55914F7C01C8562A
:1028B000D14F288139814A815B81CB01B4010E94CB
:1028C00032D9F70120813181428153810E9433D96D
:1028D000F701608371838283938388829982AA82BD
:1028E000BB82C801DF91CF911F910F91FF90EF90B4
:1028F000BF90AF909F908F900C94F21380911F1314
:1029000090912013891B8F700895089590E080E0C6
:1029100008958FB7F894909106082091050829171B
:1029200069F0E92FF0E0EB57F84F208130E09F5F2E
:102930009F77909306088FBFC90108952FEF3FEF4F
:10294000FACF0C945EAF1092300E6091DD12709150
:10295000DE12072E000C880B990B0E940AD52091DD
:102960007C0230917D0240917E0250917F020E9454
:1029700093DB181634F41092DE121092DD120C94D0
:102980005EAF08950C9452AF0E9452AF60936708F7
:10299000709368088093690890936A08089589EA9B
:1029A00093E10E94A6120C94C4140F931F93CF932B
:1029B000DF93EC010E9452AF0E811F81288539857B
:1029C000011511052105310579F52C85222339F1F1
:1029D000EA8521502C8721E02E0F2A873D8523137D
:1029E00001C01A86F0E03196EE0FFF1FEE0FFF1FB9
:1029F000EC0FFD1F02851385248535850A831B8313
:102A00002C833D83600F711F811D911D6E837F8319
:102A1000888799878C819D81892B09F0469ADF915F
:102A2000CF911F910F910895601B710B820B930B37
:102A300097FDF5CF46981E821F8218861986EFCF24
:102A40001092DE121092DD120E945EAF1092F30E11
:102A50001092F20E0E94FEAF1092DE121092DD1262
:102A60000E945EAF1092C60D2C981092F30E109239
:102A7000F20E1092C40D9FB7F894E2E0F1E080816D
:102A80008F7D80839FBF08954F925F926F927F9258
:102A9000AF92BF92CF92DF92EF92FF920F931F936C
:102AA000CF93DF938C01EB01FC0147A050A461A4FC
:102AB00072A4AFA0B8A4C9A4DAA49501A601C30169
:102AC000B2010E9403D587FF3EC0A3019201C3015A
:102AD000B2010E9469D52B013C01F80163A974A9D8
:102AE00085A996A990589B01AC010E9433D9F801A1
:102AF00027A530A941A952A90E9469D59B01AC0123
:102B0000C301B2010E9432D90E94E1DB7B018C013A
:102B10009B01AC01B501C6010E9403D587FF02C02D
:102B2000750186019701A801B501C6010E9403D570
:102B3000882349F0C701D8018FA398A7A9A7BAA7EE
:102B4000888181608883DF91CF911F910F91FF90E1
:102B5000EF90DF90CF90BF90AF907F906F905F909D
:102B60004F9008954F925F926F927F928F929F92B3
:102B7000AF92BF92CF92DF92EF92FF92CF93DF930B
:102B8000CDB7DEB76A970FB6F894DEBF0FBECDBFE4
:102B90009A8F898F5B014A01DC01D7966D917D91F7
:102BA0008D919C91DA970E9408D56B017C01F5010B
:102BB00020813181428153810E9469D50E9411DABE
:102BC0000E94A6DA3B015C01D4012D913D914D910B
:102BD0005C91C701B6010E9469D50E9411DA0E947A
:102BE000A6DA6D827E82AF82B8862D813E814F81CA
:102BF0005885283731054105510540F428E730E074
:102C000040E050E02D833E834F83588769837A8369
:102C10008B839C8389819A81AB81BC8188379105A4
:102C2000A105B10540F428E730E040E050E02983F9
:102C30003A834B835C83E98DFA8DED5BFF4F808196
:102C40009181A281B3818D879E87AF87B88BBC01AC
:102C5000CD010E940AD569877A878B879C876D8111
:102C60007E818F8198850E9408D5698B7A8B8B8BAA
:102C70009C8B20E030E0A90169857A858B859C8555
:102C80000E9403D5882309F432C1A7019601C70128
:102C9000B6010E9469D54B015C0129893A894B89AB
:102CA0005C89CA01B9010E9469D59B01AC01C501CB
:102CB000B4010E9432D94B015C0129853A854B85CC
:102CC0005C85CA01B9010E9433D99B01AC01C501E1
:102CD000B4010E942DDA0E9411DA0E949FDA2B01C2
:102CE0003C016D857E858F8598899095809570953E
:102CF00061957F4F8F4F9F4F0E940AD54B015C011A
:102D000069817A818B819C810E9408D56D877E873D
:102D10008F87988B20E030E0A901C501B4010E94A3
:102D200003D5882309F4E7C02D853E854F85588952
:102D3000CA01B9010E9469D56D8B7E8B8F8B988FEC
:102D4000A7019601C701B6010E9469D59B01AC019C
:102D50006D897E898F89988D0E9432D96B017C01A3
:102D6000A5019401C501B4010E9433D99B01AC01B6
:102D7000C701B6010E942DDA0E94D5DAA98DBA8D5D
:102D800052968D909D90AD90BC90559775016401C1
:102D9000C418D508E608F7080E949FDAC61AD70AB1
:102DA000E80AF90AF7FE67C020E030E0A90169856A
:102DB0007A858B859C850E9403D5882309F49FC062
:102DC000C501B4010E9408D56B017C0129853A85B3
:102DD0004B855C85CA01B9010E9433D99B01AC01C6
:102DE000C701B6010E9469D56B017C0129893A8926
:102DF0004B895C89CA01B9010E9469D59B01AC016C
:102E0000C701B6010E9432D96B017C012D853E8538
:102E10004F855889CA01B9010E9469D59B01AC014F
:102E2000C701B6010E9433D96B017C0120E030E07C
:102E300040E850E469857A858B859C850E9469D538
:102E40009B01AC01C701B6010E942DDA0E9411DA84
:102E50000E949FDA2B013C0177FE03C0412C512CCC
:102E60003201481459046A047B0410F0240135012E
:102E7000C12CD12C76018FB7F894E98DFA8D908111
:102E800093FD1FC0DF01468A578A608E718EC40C85
:102E9000D51CE61CF71CC28ED38EE48EF58E2D81D8
:102EA0003E814F81588523AF34AF45AF56AFDF9693
:102EB00029813A814B815C812D933D934D935C93A5
:102EC00013978FBF6A960FB6F894DEBF0FBECDBFC3
:102ED000DF91CF91FF90EF90DF90CF90BF90AF90B8
:102EE0009F908F907F906F905F904F90089560E0DB
:102EF00070E0CB01F0CE60E070E0CB013DCF60E050
:102F000070E0CB01A3CF682F880F770B80918107EA
:102F1000909182070E94D0DC9C019093750780936A
:102F2000740781E0232B09F480E00895682F880F4F
:102F3000770B2091E3063091E40640E6429FC00102
:102F4000439F900D1124845A9A4F0E94D0DC9C011B
:102F500090935B0580935A0581E0232B09F480E070
:102F6000089580917407909175074AE050E070E0F1
:102F700060E001960E9432D297FD1EC080917407D6
:102F8000909175074AE050E070E060E001960E9481
:102F900032D26F3F71058105910509F07CF4809173
:102FA0007407909175074AE050E070E060E0019688
:102FB0000E9432D2862F089580E008958FEF089501
:102FC000E0917407F09175078181DF01129621E08D
:102FD00030E0803221F42F5F3F4F8D91FACF8D3258
:102FE00011F08B3231F42F5F3F4FDF01A20FB31F7F
:102FF0008C918E3219F4E20FF31F8181805391E09E
:103000008A3030F40E94B11791E0811101C090E044
:10301000892F089580917407909175074AE050E0D8
:1030200070E060E001960E9432D2CB010895809159
:103030007407909175074AE050E070E060E00196F7
:103040000C9460D30F931F93CF93DF93C0917407B9
:10305000D091750765E470E0CE010E94D0DC8C0150
:10306000CE0101960115110571F0F801108270E092
:1030700060E00E94D4D025E4F8012083DF91CF9155
:103080001F910F91089570E060E0DF91CF911F9143
:103090000F910C94D4D086E40E9483178093300E55
:1030A000882351F00E942218609374027093750275
:1030B000809376029093770283E50E94831788239A
:1030C00051F00E94221860937C0270937D028093DD
:1030D0007E0290937F0282E40E948317882351F03E
:1030E0000E942218609378027093790280937A028A
:1030F00090937B020895CF92DF92EF92FF920F930D
:103100001F93CF93DF9383E1C82E83E0D82E9BEBF0
:10311000E92E9EE0F92E04EA1EE0D0E0C0E0F601C0
:1031200081916F010E948317882309F44EC00E9489
:1031300022189B01AC01FE01E458F84F80818111F7
:1031400004C0809180078823E1F1F80160817181DA
:10315000828193810E9433D9F701608371838283D6
:1031600093832196F4E0EF0EF11C0C5F1F4FC430E7
:10317000D105A9F686E40E9483178823C9F00E942E
:10318000221820E030E0A9010E9493DB181684F495
:103190000E94221820E030E040E752E40E942DDA3D
:1031A00060930002709301028093020290930302E5
:1031B000DF91CF911F910F91FF90EF90DF90CF9013
:1031C000089560E070E0CB01C5CFF8018081918166
:1031D000A281B381F70180839183A283B383C1CF9E
:1031E00080915A0590915B0570E060E001960C9427
:1031F000D4D080915A0590915B0501960C9463D4CC
:103200008091030E8A30D8F496E0899FF001112452
:10321000E953F24F20919C0230919D02318320832B
:103220004091EA0E5091EB0E6091EC0E7091ED0E14
:1032300042835383648375838F5F8093030E089565
:1032400020919C0230919D0228173907C9F0909374
:103250009D0280939C024093EA0E5093EB0E609384
:10326000EC0E7093ED0E8253914211F41092030E06
:103270000E947EA982E080939B0281E08093890E68
:10328000089540E050E0BA0182E391E20C942019E5
:10329000E091030EEE2389F0E150E093030E86E007
:1032A000E89FF0011124E953F24F42815381648178
:1032B0007581808191810C9420190C944119EF92B1
:1032C000FF920F93CF93DF93D82F7A01C22F80E024
:1032D0000E946FA9D11101C0C0E26C2F83EE92E170
:1032E0000E9415A7C2E1F7016491662359F0CC232F
:1032F00089F083EE92E10E9486A9C150FFEFEF1A98
:10330000FF0AF1CFC15030F060E283EE92E10E94FB
:1033100015A7F8CF602F83EE92E1DF91CF910F9147
:10332000FF90EF900C9415A7CF92DF92EF92FF924F
:103330000F931F93CF93DF938091EA0E9091EB0E42
:10334000A091EC0EB091ED0E81309048A105B10531
:1033500040F01092EA0E1092EB0E1092EC0E1092CA
:10336000ED0E6091EA0E7091EB0E8091EC0E909153
:10337000ED0E25E030E040E050E00E94F6D8C22F8C
:103380008091260E1816F4F4482F082E000C550BC9
:1033900041505109022E000C330B2417350794F0CD
:1033A000CFEFC80F25E0C29FC0011124092E000CE9
:1033B000AA0BBB0B8093EA0E9093EB0EA093EC0E3E
:1033C000B093ED0E1092890E8091880EC81714F4F8
:1033D000C093880E8091880E082E000C990B0396DE
:1033E0002C2F0C2E000C330B8217930724F48DEF37
:1033F0008C0F8093880E1091880ED0E0F0908B0E89
:10340000EF2CDF2CCF2C111121C080919B0288233F
:1034100051F081E0C11180E003E023E049E25DE189
:103420006D2F0E945F19CC2041F1C11126C00E946E
:1034300048198091890E882301F1DF91CF911F9166
:103440000F91FF90EF90DF90CF9008951130E1F44D
:1034500080919B02882359F081E0C13009F080E01F
:103460000EE32EE34FE15DE16D2F0E945F19DD2039
:1034700021F08EE89BE1C130F1F01F5FDF5FD430B7
:1034800011F6D093260ED9CF1230C1F480919B0251
:10349000882359F081E0C23009F080E00EE32EE38A
:1034A00046E15DE16D2F0E945F19EE2031F38CE95A
:1034B0009BE1C23011F70E9425B9BBCF1330E9F66A
:1034C00080919B02882359F081E0C33009F080E0AD
:1034D0000EE32EE34BE05DE16D2F0E945F19FF20AC
:1034E00061F2C33051F68AEA9BE1E5CFBF92CF92F9
:1034F000DF92EF92FF920F931F93CF93DF93809110
:10350000EA0E9091EB0EA091EC0EB091ED0E813091
:103510009048A105B10540F01092EA0E1092EB0E12
:103520001092EC0E1092ED0E6091EA0E7091EB0E7F
:103530008091EC0E9091ED0E25E030E040E050E0FF
:103540000E94F6D8C22F8091210E1816F4F4482F4D
:10355000082E000C550B41505109022E000C330B64
:103560002417350794F0CFEFC80F25E0C29FC001A4
:103570001124092E000CAA0BBB0B8093EA0E90932A
:10358000EB0EA093EC0EB093ED0E1092890E80918D
:10359000880EC81714F4C093880E8091880E082EE8
:1035A000000C990B03962C2F0C2E000C330B82175A
:1035B000930724F48DEF8C0F8093880E1091880E62
:1035C000D0E0F0908B0EEF2CDF2CCF2CBF2C111104
:1035D00023C080919B02882351F081E0C11180E0DB
:1035E00003E023E041E05DE16D2F0E945F19DD20E3
:1035F00009F443C0C11141C00E9448198091890E4D
:103600008823D9F1DF91CF911F910F91FF90EF9017
:10361000DF90CF90BF9008951130C1F480919B024C
:10362000882359F081E0C13009F080E00EE32EE3F9
:103630004AEF5CE16D2F0E945F19EE20F1F0C1307E
:10364000E1F482EF90E20E9425B9D8CF1230A9F4BC
:1036500080919B02882359F081E0C23009F080E01C
:103660000EE32EE343EF5CE16D2F0E945F19FF2014
:1036700021F088EF90E2C23031F320E030E040E208
:1036800051E46091220E7091230E8091240E90914E
:10369000250E0E9403D587FD02C083E014C01330BD
:1036A00029F580919B02882359F081E0C33009F00D
:1036B00080E00EE32EE34CEE5CE16D2F0E945F197B
:1036C000B11009C085E01F5FDF5FD43009F07FCF04
:1036D0008093210E97CF8EEF90E2C33099F70E942E
:1036E00025B98091890E882369F38CCF143051F766
:1036F00080919B02882359F081E0C43009F080E07A
:103700000EE32EE343EE5CE16D2F0E945F19CC20A7
:10371000C9F2C430B9F686E79FE1E1CF80E090E0DE
:10372000A0E2B1E48093220E9093230EA093240E86
:10373000B093250E0C94761A80E090E0A0E8BFE3E9
:103740008093220E9093230EA093240EB093250E07
:103750000C94761A8DEC9CECACECBDE38093220EBD
:103760009093230EA093240EB093250E0C94761AFA
:103770004F925F926F927F92AF92BF92CF92DF9201
:10378000EF92FF920F931F93CF93DF938091EA0EF6
:103790009091EB0EA091EC0EB091ED0E813090481F
:1037A000A105B10540F01092EA0E1092EB0E1092B6
:1037B000EC0E1092ED0E6091EA0E7091EB0E80917E
:1037C000EC0E9091ED0E25E030E040E050E00E94DC
:1037D000F6D8C22F8091120E1816F4F4482F082E36
:1037E000000C550B41505109022E000C330B2417CD
:1037F000350794F0CFEFC80F25E0C29FC001112418
:10380000092E000CAA0BBB0B8093EA0E9093EB0ED3
:10381000A093EC0EB093ED0E1092890E8091880E5D
:10382000C81714F4C093880E8091880E082E000CDF
:10383000990B03962C2F0C2E000C330B8217930739
:1038400024F48DEF8C0F8093880ED091880EED2E8E
:1038500084E0D82EDD0EF0908B0ECF2CBF2CAD2E39
:10386000A194D11129C080919B02882351F081E05D
:10387000C11180E003E023E040E35CE16A2D0E9497
:103880005F19BB2009F479C0C11177C00E944819A3
:103890008091890E882309F470C0DF91CF911F9128
:1038A0000F91FF90EF90DF90CF90BF90AF907F90FF
:1038B0006F905F904F900895D130A9F580919B0251
:1038C000882361F06D2F6E1981E0C13009F080E02E
:1038D00000E22EE344E25CE10E945F19CC2009F48F
:1038E0004CC0C13009F049C000913A0E10913B0E16
:1038F0006091320E7091330E072E000C880B990BDD
:103900000E940AD52B013C016091360E7091370E52
:10391000072E000C880B990B0E940AD5A301920177
:103920000E94ACAFB5CFD23041F580919B02882385
:1039300061F06D2F6E1981E0C23009F080E000E285
:103940002EE344E15CE10E945F19FF20B1F0C23038
:10395000A1F400913A0E10913B0E6091320E7091DD
:10396000330E072E000C880B990B0E940AD59B0181
:10397000AC0160E070E0CB01D3CFDF5FDD1271CF2F
:1039800083E08093120E89CF4F925F926F927F9265
:10399000AF92BF92CF92DF92EF92FF920F931F935D
:1039A000CF93DF938091EA0E9091EB0EA091EC0EF5
:1039B000B091ED0E81309048A105B10540F0109214
:1039C000EA0E1092EB0E1092EC0E1092ED0E60913A
:1039D000EA0E7091EB0E8091EC0E9091ED0E25E0C9
:1039E00030E040E050E00E94F6D8C22F8091130EE4
:1039F0001816F4F4482F082E000C550B41505109AD
:103A0000022E000C330B2417350794F0CFEFC80FAC
:103A100025E0C29FC0011124092E000CAA0BBB0B8C
:103A20008093EA0E9093EB0EA093EC0EB093ED0E04
:103A30001092890E8091880EC81714F4C093880ED6
:103A40008091880E082E000C990B03962C2F0C2EBB
:103A5000000C330B8217930724F48DEF8C0F8093A7
:103A6000880ED091880EED2E84E0D82EDD0EF090D9
:103A70008B0ECF2CBF2CAD2EA194D11129C08091DB
:103A80009B02882351F081E0C11180E003E023E034
:103A900044E55CE16A2D0E945F19BB2009F479C0FE
:103AA000C11177C00E9448198091890E882309F4BA
:103AB00070C0DF91CF911F910F91FF90EF90DF9039
:103AC000CF90BF90AF907F906F905F904F90089590
:103AD000D130A9F580919B02882361F06D2F6E197A
:103AE00081E0C13009F080E000E22EE348E45CE1CF
:103AF0000E945F19CC2009F44CC0C13009F049C0C4
:103B000000913C0E10913D0E6091340E7091350E77
:103B1000072E000C880B990B0E940AD52B013C0143
:103B20006091380E7091390E072E000C880B990B9E
:103B30000E940AD5A30192010E94ACAFB5CFD2304A
:103B400041F580919B02882361F06D2F6E1981E011
:103B5000C23009F080E000E22EE348E35CE10E941D
:103B60005F19FF20B1F0C230A1F400913C0E10911A
:103B70003D0E6091340E7091350E072E000C880BAF
:103B8000990B0E940AD59B01AC0160E070E0CB016B
:103B9000D3CFDF5FDD1271CF83E08093130E89CF27
:103BA000AF92BF92CF92DF92EF92FF920F931F934B
:103BB000CF93DF938091EA0E9091EB0EA091EC0EE3
:103BC000B091ED0E81309048A105B10540F0109202
:103BD000EA0E1092EB0E1092EC0E1092ED0E609128
:103BE000EA0E7091EB0E8091EC0E9091ED0E25E0B7
:103BF00030E040E050E00E94F6D8C22F8091110ED4
:103C00001816F4F4482F082E000C550B415051099A
:103C1000022E000C330B2417350794F0CFEFC80F9A
:103C200025E0C29FC0011124092E000CAA0BBB0B7A
:103C30008093EA0E9093EB0EA093EC0EB093ED0EF2
:103C40001092890E8091880EC81714F4C093880EC4
:103C50008091880E082E000C990B03962C2F0C2EA9
:103C6000000C330B8217930724F48DEF8C0F809395
:103C7000880E1091880ED0E0F0908B0EEF2CDF2C88
:103C8000CF2CBF2CAF2C111125C080919B02882313
:103C900051F081E0C11180E003E023E04FE05CE1FE
:103CA0006D2F0E945F19AA2009F4C6C0C111C4C0BB
:103CB0000E9448198091890E882309F4BDC0DF91C4
:103CC000CF911F910F91FF90EF90DF90CF90BF9019
:103CD000AF900895113019F580919B02882371F0FF
:103CE00089E592E00E943AB79C0181E0C13009F079
:103CF00080E049E05CE16D2F0E94A8A9BB2009F497
:103D00009BC0C13009F098C027EE33E04AE050E094
:103D100069E572E083E09CE10E94FEBCCBCF1230EB
:103D200009F082C080919B02882371F08DED92E1B1
:103D30000E943AB79C0181E0C23009F080E04CEF6C
:103D40005BE16D2F0E94A8A9CC2009F475C0C23098
:103D500009F072C021EA34E14EE051E06DED72E10C
:103D600085EF9BE10E94C6A6A5CF80919B02882388
:103D700071F082EF9EE00E943AB79C0181E0C3306F
:103D800009F080E041EF5BE16D2F0E94A8A9DD20E2
:103D900009F452C0C33009F04FC029EF31E147E8C0
:103DA00050E062EF7EE08DEE9BE1DCCF80919B02E4
:103DB000882371F080EF9EE00E943AB79C0181E079
:103DC000C43009F080E043EE5BE16D2F0E94A8A9AA
:103DD000EE2091F1C43081F522EB30E050E040E07C
:103DE00060EF7EE089ED9BE197CF80919B02882375
:103DF00071F087E592E00E943AB79C0181E0C530FE
:103E000009F080E044ED5BE16D2F0E94A8A9FF203E
:103E100099F0C53089F427EE33E04AE050E067E5D9
:103E200072E08FEC9BE178CF133009F49ECF143011
:103E300009F4BCCF1530C9F21F5FDF5FD43009F041
:103E400022CF86E08093110E3ACF0F931F93CF932A
:103E50008C01C0E0F801EC0FF11D6081662331F0A8
:103E600083EE92E10E9486A9CF5FF4CFCF911F919C
:103E70000F910895CF93DF93EC01FE0164916623C7
:103E800031F083EE92E10E9486A92196F6CFDF9170
:103E9000CF9108950F931F93CF93DF938C01EB0184
:103EA00061E081E00E946FA9C8010E943A1F20973B
:103EB000C1F06AE383EE92E10E9415A7FE019F0123
:103EC0002C1B3D0B81918111FACF61E084E1821BB3
:103ED0000E946FA9CE01DF91CF911F910F910C9499
:103EE000251FDF91CF911F910F91089580918B0E27
:103EF00081110C9448196091EA0E7091EB0E80913B
:103F0000EC0E9091ED0E611571058105910569F139
:103F10000E940AD52091220E3091230E4091240E4A
:103F20005091250E0E9469D52091B00E3091B10EAE
:103F30004091B20E5091B30E0E9433D96093B00EEF
:103F40007093B10E8093B20E9093B30E1092EA0E5E
:103F50001092EB0E1092EC0E1092ED0E83E090E0BA
:103F60000E94C21481E080939B0280919B0288236F
:103F700049F080EB9EE00E945AB5BC018AED9CE1BD
:103F80000C944A1F08952F923F924F925F926F9226
:103F90007F928F929F92AF92BF92CF92DF92EF92D9
:103FA000FF920F931F93CF93DF9300D000D01F9207
:103FB0001F92CDB7DEB720918B0E2223D1F0289629
:103FC0000FB6F894DEBF0FBECDBFDF91CF911F912A
:103FD0000F91FF90EF90DF90CF90BF90AF909F90A8
:103FE0008F907F906F905F904F903F902F900C94A8
:103FF00048191B019E838D838091EA0E9091EB0EF0
:10400000A091EC0EB091ED0E892B8A2B8B2B09F42D
:1040100068C00E94C414809167029101220F331F6F
:10402000220F331F38872F83882309F485C0F901B5
:10403000EB5EF14F4080518062807380F901E55A58
:10404000FD4FC080D180E280F3808091EA0E909194
:10405000EB0EA091EC0EB091ED0E89839A83AB83A9
:10406000BC83BC01CD010E940AD52091220E309163
:10407000230E4091240E5091250E0E9469D50F8188
:1040800018850C55114FD8012D913D914D915C91A2
:104090000E9433D94B015C0189819A81AB81BC813B
:1040A000B7FF6EC0A3019201C501B4010E9403D500
:1040B00087FD5FC0AF81B885AC55B14FFD018082EF
:1040C0009182A282B382C1010E94C2141092EA0EB0
:1040D0001092EB0E1092EC0E1092ED0E81E0809398
:1040E0009B0280919B02882309F463C0C101880F61
:1040F000991F880F991F8C55914F0E945AB5BC018A
:104100008D819E8128960FB6F894DEBF0FBECDBF7D
:10411000DF91CF911F910F91FF90EF90DF90CF90A3
:10412000BF90AF909F908F907F906F905F904F90D7
:104130003F902F900C944A1FEF81F885EC55F14F7A
:10414000C080D180E280F38020E030E04AE754E490
:10415000C701B6010E9432D92B013C0120E030E0BA
:104160004AE754E4C701B6010E9433D96B017C01D0
:104170006CCFD8014D925D926D927C921397A3CF34
:1041800089819A81AB81BC81892B8A2B8B2B09F485
:1041900091CFA7019601C501B4010E9493DB1816C7
:1041A0000CF088CFD801CD92DD92ED92FC9213975E
:1041B0008ACF28960FB6F894DEBF0FBECDBFDF9131
:1041C000CF911F910F91FF90EF90DF90CF90BF9014
:1041D000AF909F908F907F906F905F904F903F90A7
:1041E0002F90089570E060E085EC9CE10C94C31F73
:1041F00061E070E08CEC9CE10C94C31F62E070E025
:1042000083ED9CE10C94C31F64E084E10E947FAEC7
:104210006EE472E080E00E948CA966E472E081E0C6
:104220000E948CA96EE372E082E00E948CA966E392
:1042300072E086E00E948CA96EE272E087E00E9444
:104240008CA966E272E083E00E948CA96EE172E0C4
:1042500084E00E948CA966E172E085E00E948CA94E
:104260000C947EA94F925F926F927F928F929F9251
:10427000AF92BF92CF92DF92EF92FF920F931F9374
:10428000CF93DF9300D000D000D01F92CDB7DEB720
:1042900060E080E00E946FA962E083EE92E10E94FC
:1042A00015A720E030E040E05FE36091DF127091FD
:1042B000E0128091E1129091E2120E9433D90E94A3
:1042C0009FDA7A8369838E010F5F1F4FC8010E94B6
:1042D0003AB7BC0183EE92E10E94F8A76FE283EE49
:1042E00092E10E9415A76091DD127091DE12072EF7
:1042F000000C880B990B0E940AD520E030E040E0CA
:104300005FE30E9433D90E949FDA7A836983C801F0
:104310000E9405B7BC0183EE92E10E94F8A78EE6E9
:104320009BE10E943A1F6091DD127091DE12072E10
:10433000000C880B990B0E940AD520E030E040E287
:1043400051E40E9403D587FF05C060E283EE92E14D
:104350000E9415A760E08AE00E946FA960E083EEEA
:1043600092E10E9415A720E030E040E05FE3609119
:104370000C0E70910D0E80910E0E90910F0E0E94FA
:1043800033D90E949FDA7A836983C8010E943AB7C1
:10439000BC0183EE92E10E94F8A76FE283EE92E106
:1043A0000E9415A76091F20E7091F30E072E000C7B
:1043B000880B990B0E940AD520E030E040E05FE3D3
:1043C0000E9433D90E949FDA7A836983C8010E94D0
:1043D00005B7BC0183EE92E10E94F8A78BE69BE152
:1043E0000E943A1F6091F20E7091F30E072E000C9E
:1043F000880B990B0E940AD520E030E040E251E49E
:104400000E9403D587FF05C060E283EE92E10E941F
:1044100015A70E9452AFC090050ED090060EE090F6
:10442000070EF090080E9B01AC012C193D094E09B6
:104430005F0969017A01F7FC11C02091040E2095F3
:104440002093040E6A547C4F8F4F9F4F6093050E4C
:104450007093060E8093070E9093080EF090040E52
:1044600061E080E00E946FA9FF2009F4D0C189E6D5
:104470009BE10E943A1F6091A40E7091A50E80915D
:10448000A60E9091A70E0E949FDA7A836983C801D5
:104490000E9492B6BC0183EE92E10E94F8A760E20E
:1044A00083EE92E10E9415A7FF2009F4BFC187E6C1
:1044B0009BE10E943A1F6091A80E7091A90E809115
:1044C000AA0E9091AB0E0E949FDA7A836983C8018D
:1044D0000E9492B6BC0183EE92E10E94F8A761E0CF
:1044E0008CE00E946FA9FF2009F4AFC185E69BE133
:1044F0000E943A1F2CEA35EC47E257E36091AC0E7C
:104500007091AD0E8091AE0E9091AF0E0E9433D996
:1045100020E030E048EC52E40E9469D50E949FDA26
:104520006B017C01F7FCA0C160E230E1C31637E209
:10453000D306E104F10484F0B60120E137E240E063
:1045400050E00E946DDCCA01B9012AE030E040E091
:1045500050E00E946DDC605D6093E10E60E248EE29
:10456000C41643E0D406E104F1048CF0C701B6019F
:1045700028EE33E040E050E00E946DDCCA01B90152
:104580002AE030E040E050E00E946DDC605D609326
:10459000E20EC701B60124E630E040E050E00E94A0
:1045A0006DDC9AE0892E912CA12CB12CCA01B901A5
:1045B000A50194010E946DDC605D6093E30EC7016C
:1045C000B601A50194010E946DDCF62ECA01B90165
:1045D000A50194010E946DDCFF2009F44FC18EE219
:1045E0008093E40E605D6093E50E80E38F0D809311
:1045F000E60E1092E70E61EE7EE083EE92E10E94FD
:10460000F8A762E080E00E946FA966E083EE92E185
:104610000E9415A789E592E00E943AB7BC0183EE9B
:1046200092E10E94F8A765E283EE92E10E9415A74D
:1046300062E087E00E946FA982E69BE10E943A1F38
:104640008091F913882309F42BC18091C715882321
:1046500009F424C18091711690917216A09173167D
:10466000B09174160097A105B10509F417C1BC01FA
:10467000CD016D597F4F8F4F9F4F24E630E040E0D2
:1046800050E00E94F6D86091751670917616809170
:104690007716909178160E94F6D830E03A832983F5
:1046A000C8010E943AB7BC0183EE92E10E94F8A7CC
:1046B00065E283EE92E10E9415A70E9446B22B01AB
:1046C0003C0120E13EE040E050E00E94F6D8D22ECE
:1046D000C32EE22EF32E8CE3882E912CA12CB12C2C
:1046E000C301B201A50194010E94F6D8CA01B90123
:1046F000A50194010E94F6D854E6E516F10408F0ED
:10470000D4C07F936F93C70168E170E00E9445DCDD
:104710009F938F9384E59BE19F938F931F930F93B8
:104720000E94D3D40FB6F894DEBF0FBECDBF95E084
:1047300062E083E1891B0E946FA967E083EE92E14A
:104740000E9415A7C8010E94251F63E080E00E9417
:104750006FA98FE992E00E94251F80918B0E88231C
:1047600049F00E94042140E050E0BA0182E79DE553
:104770000E9420194091EA0E5091EB0E6091EC0ED0
:104780007091ED0E2091590230915A02C901840FA7
:10479000951F243631050CF09BC0853691050CF031
:1047A0009EC090935A02809359021092EA0E109282
:1047B000EB0E1092EC0E1092ED0E8091590290913A
:1047C0005A02883E43E0940714F087EE93E08A3063
:1047D000910514F48AE090E090935A028093590274
:1047E0002A960FB6F894DEBF0FBECDBFDF91CF91F2
:1047F0001F910F91FF90EF90DF90CF90BF90AF90FF
:104800009F908F907F906F905F904F9008958091D0
:10481000090E6FE3882329F08091950E811127CE30
:1048200060E283EE92E10E9415A725CE80910A0EE8
:104830006FE3882329F08091960E811138CE60E2D3
:1048400083EE92E10E9415A736CE80910B0E6FE3A6
:10485000882329F08091970E811148CE60E283EE83
:1048600092E10E9415A746CEF094E094D094C094B3
:10487000C11CD11CE11CF11C6DE26ECE662341F01F
:104880008EE28093E40E605D6093E50E80E2AFCE31
:1048900080E28093E50E8093E40EF8CF20E0FDCE19
:1048A0008EE59BE10E943A1F03CF7F936F93CF92D7
:1048B000DF928CE49BE19F938F931F930F930E9451
:1048C000D3D40FB6F894DEBF0FBECDBF96E030CF85
:1048D0002436310539F0843691050CF062CF84E638
:1048E00090E05FCF4B3051056105710514F00A97D8
:1048F00058CF463F5F4F6F4F7F4F0CF05ECF0A9609
:1049000050CF4F925F926F927F92AF92BF92CF92B1
:10491000DF92EF92FF920F931F93CF93DF9324E0E8
:1049200030E041E050E0D901AF53BC4FFD0165914B
:104930007491861797070CF066C041505109440FD7
:10494000551F440F551FEA01CD53DC4FFE01059161
:1049500014914F535C4FFA0165917491F901ED5335
:10496000FC4FE590F490FE01C590D490FD01C591F7
:10497000D491FA01A590B490861B970BBC01990FB6
:10498000880B990B0E940AD52B013C01B7016C19C9
:104990007D09072E000C880B990B0E940AD59B01FC
:1049A000AC01C301B2010E9469D56B017C01BE015B
:1049B0006A197B09072E000C880B990B0E940AD5F7
:1049C0009B01AC01C701B6010E942DDA6B017C018D
:1049D000B801110F880B990B0E940AD59B01AC01FD
:1049E000C701B6010E9433D9DF91CF911F910F917A
:1049F000FF90EF90DF90CF90BF90AF907F906F903F
:104A00005F904F9008954F5F5F4F2C5F3F4F20386E
:104A1000310509F088CFEFE3F4E065917491072E3A
:104A2000000C880B990B0E940AD5DECF4F925F9243
:104A30006F927F92AF92BF92CF92DF92EF92FF92EE
:104A40000F931F93CF93DF9324E030E041E050E0D9
:104A5000D901A051B64EFD01659174918617970753
:104A60000CF066C041505109440F551F440F551FAB
:104A7000EA01CE50D64EFE01059114914051564E9A
:104A8000FA0165917491F901EE50F64EE590F490BB
:104A9000FE01C590D490FD01C591D491FA01A59075
:104AA000B490861B970BBC01990F880B990B0E9441
:104AB0000AD52B013C01B7016C197D09072E000CAA
:104AC000880B990B0E940AD59B01AC01C301B2016E
:104AD0000E9469D56B017C01BE016A197B09072E12
:104AE000000C880B990B0E940AD59B01AC01C701F1
:104AF000B6010E942DDA6B017C01B801110F880B01
:104B0000990B0E940AD59B01AC01C701B6010E9416
:104B100033D9DF91CF911F910F91FF90EF90DF90EC
:104B2000CF90BF90AF907F906F905F904F9008951F
:104B30004F5F5F4F2C5F3F4F243F310509F088CF17
:104B4000E2EEFAE165917491072E000C880B990B47
:104B50000E940AD5DECF8091AB0D9091AC0D0E94E2
:104B600081246093DF127093E0128093E11290939E
:104B7000E2128091A90D9091AA0D0E9416256093D2
:104B80000C0E70930D0E80930E0E90930F0E8FB738
:104B9000F8941092AD0D8FBF08958091560D80FF4F
:104BA00025C089988FEF80930D028091560D81FF6B
:104BB00020C08F9A8FEF80930E028091560D9FB781
:104BC00082FF1AC0F89480910B018D7F80930B01B6
:104BD0009FBF43988FEF80930F028091560D83FF04
:104BE00015C016988FEF809310020895899A81E07E
:104BF000DACF8F9881E0DFCFF89480910B0182604B
:104C000080930B019FBF439A81E0E5CF169A81E024
:104C1000EACF4F925F926F927F928F929F92AF9264
:104C2000BF92EF92FF920F931F93CF93DF93C7E44E
:104C3000DEE088EBE82E80E1F82E00E918E0412C58
:104C4000512C320143946991799189919991F7019D
:104C500081909190A190B1907F010E9408D5A5010B
:104C600094010E9469D50E94A6DAF80161937193BC
:104C7000819391938F01461657066806790610F4C2
:104C80002B013C01FEE0C735DF07E9F66FEF7FEF50
:104C9000CB01A30192010E94F6D820938C08309397
:104CA0008D0840938E0850938F08DF91CF911F910C
:104CB0000F91FF90EF90BF90AF909F908F907F905B
:104CC0006F905F904F900895EF92FF920F931F9314
:104CD000CF938C017B01C42FF801808191810E94C8
:104CE000D0D8F70181937F0120917B0830917C0817
:104CF000820F932F911D90937C0880937B08F8017D
:104D000080819181019691838083C15029F7CF9151
:104D10001F910F91FF90EF900895FC0120E03EE27B
:104D2000DB014D91BD01403249F0283011F4308350
:104D30003196DB0111974C91408331962F5F2B30D8
:104D400079F7108208952BE1FB013496DC0114966B
:104D500001900D922A95E1F7FB0122813381FC013C
:104D6000338322832BED33E031832083089561E088
:104D7000FC0180810C9400A88EBD0DB407FEFDCF10
:104D800008958FEF8EBD0DB407FEFDCF8EB508954B
:104D90008F929F92AF92BF92EF92FF920F931F93C9
:104DA000CF937C01C62F49015A01FC019281892FC2
:104DB000806A86958CBD90FD03C081E0963009F431
:104DC00080E08DBD60E0F70180810E9400A88CE248
:104DD00091E00E9417B08C2F80640E94BC2608E1ED
:104DE00010E0D501C401002E04C0B695A795979593
:104DF00087950A94D2F70E94BC2608501109083FF3
:104E0000FFEF1F0771F785E9CC2321F087E8C83051
:104E100009F08FEF0E94BC26CC3011F40E94C1260D
:104E2000C0E00E94C126F701838387FF04C0CF3F03
:104E300011F0CF5FF6CFCF911F910F91FF90EF90C0
:104E4000BF90AF909F908F9008950F931F93CF9333
:104E5000DF93EC0189018C81833039F089E0440FC4
:104E6000551F661F771F8A95D1F79A01AB0168E13C
:104E7000CE010E94C826882319F086E089833AC0B3
:104E80008EEF8EBDF801C8019E5F0DB407FEFDCF09
:104E900020812EBD0DB407FEFDCF21812EBD32969F
:104EA000E817F90791F70DB407FEFDCF8FEF0E94C9
:104EB000BC268FEF0E94BC260E94C1268B838F7177
:104EC000853099F488E592E00E9417B0182F87E1A9
:104ED0001123A1F220E030E0A9016DE0CE010E9493
:104EE000C826882361F086E1C9CF83E18983CE019A
:104EF0000E94B726CE010E94B72610E007C00E948C
:104F0000C1268111F0CFCE010E94B726812FDF91FB
:104F1000CF911F910F910895CF938091D012C1E04E
:104F20008823A1F04091C8125091C9126091CA1211
:104F30007091CB1228EC30E18091D1129091D21275
:104F40000E942527C82F811104C0C0E08C2FCF916B
:104F500008954091CC125091CD126091CE12709173
:104F6000CF12411551056105710591F028EC30E132
:104F70008091D1129091D2120E942527882329F383
:104F80001092CC121092CD121092CE121092CF121B
:104F90001092D012DBCFEF92FF920F931F93CF931B
:104FA000DF93EC0179018C81833039F089E0440F83
:104FB000551F661F771F8A95D1F79A01AB0161E1F2
:104FC000CE010E94C826882339F084E08983CE016F
:104FD0000E94B72680E03BC00E9452AF8B010E9426
:104FE000C1268B838F3F81F40E9452AF601B710BEF
:104FF0006D327140A0F381E18983CE010E94B72612
:105000008FEF0E94BC26E6CF8E3F11F08FE0F4CFE9
:105010008FEF8EBDF701D701A150BE4F0DB407FE33
:10502000FDCF9EB591938EBDAE17BF07B9F70DB4F6
:1050300007FEFDCF8EB58C930E94C1260E94C1262B
:10504000CE010E94B7268FEF0E94BC2681E0DF913F
:10505000CF911F910F91FF90EF900895CF92DF9223
:10506000EF92FF92CF936B017C01C42F8091C81205
:105070009091C912A091CA12B091CB128C159D05C6
:10508000AE05BF0501F10E948C27811108C0C0E068
:105090008C2FCF91FF90EF90DF90CF90089528EC68
:1050A00030E1B701A6018091D1129091D2120E94F5
:1050B000CB27882361F3C092C812D092C912E09224
:1050C000CA12F092CB12CC2321F081E08093D0124F
:1050D000DFCFC1E0DDCF4F925F926F927F928F92D0
:1050E0009F92AF92BF92CF92DF92EF92FF920F9377
:1050F0001F93CF93DF93EC01423051056105710599
:1051000090F480E0DF91CF911F910F91FF90EF908D
:10511000DF90CF90BF90AF909F908F907F906F90D7
:105120005F904F90089589859A85AB85BC850196DF
:10513000A11DB11D84179507A607B70710F38F8926
:105140008031C9F5852E962EA72EBB248B899C898C
:10515000AD89BE89880E991EAA1EBB1E2801390181
:105160006A017B0141E0C501B4010E942E28882319
:1051700041F29F89903181F5DD24EE24FF24F60170
:10518000EE0FFF1FE853FF4E118300839A89923080
:1051900008F4B8CF4D815E816F817885840E951EAD
:1051A000A61EB71E8092CC129092CD12A092CE1263
:1051B000B092CF12A7CF803209F0A3CF8B899C8900
:1051C000AD89BE894A015B01E7E0B694A794979444
:1051D0008794EA95D1F7BECFE894C7F8DD24EE2492
:1051E000FF24F601EE0FFF1FEE0FFF1FE853FF4EE7
:1051F0004082518262827382C9CFCF92DF92EF9256
:10520000FF920F931F93CF93DF93FC0181859285CB
:10521000A385B4850196A11DB11D84179507A60726
:10522000B70750F480E0DF91CF911F910F91FF906D
:10523000EF90DF90CF90089587898031A9F5BB2743
:10524000A72F962F852FC388D488E588F6888C0DE4
:105250009D1DAE1DBF1DE9016A017B018F014091BB
:10526000C8125091C9126091CA127091CB12841762
:105270009507A607B70749F5F8018789803169F5D1
:10528000B701A601552766277727440F551F4853B6
:105290005F4EFA0180819181B0E0A0E0888399831C
:1052A000AA83BB8381E0BFCF803209F0BBCFC38824
:1052B000D488E588F688DB01CA01C7E0B695A795D2
:1052C00097958795CA95D1F7C2CF40E0BC01CD0133
:1052D0000E942E288111D0CFA5CFB701A6014F770C
:1052E000552766277727440F551F440F551F4853EE
:1052F0005F4EFA0180819181A281B381BF70CECFD0
:105300004F925F926F927F92AF92BF92CF92DF9255
:10531000EF92FF920F931F93CF93DF9300D01F92D2
:10532000CDB7DEB78C0149835A836B837C835901E7
:10533000C12CD12C7601412C82E0582E612C712C8D
:1053400049815A816B817C819E012F5F3F4FC8014B
:105350000E94FD28882319F1F8018585A301920197
:1053600004C0220F331F441F551F8A95D2F7DA015C
:10537000C901C80ED91EEA1EFB1E49815A816B81E4
:105380007C8187898031F1F481E0483F5F4F61057E
:105390007105B0F2F501C082D182E282F3820F90F2
:1053A0000F900F900F90DF91CF911F910F91FF9071
:1053B000EF90DF90CF90BF90AF907F906F905F9015
:1053C0004F90089581E0483F5F4F6F4F7F4008F452
:1053D000B7CFE0CF0F931F93CF93DF93FC012381CF
:1053E000222331F080E0DF91CF911F910F9108953A
:1053F0008B01EC01FB018789803139F582E08B83D9
:105400001D8A1E8A1F8A188E808D918DB0E0A0E0C3
:1054100025E0880F991FAA1FBB1F2A95D1F7898BFA
:105420009A8BAB8BBC8B1A8F098F81E089831C828E
:105430001D821E821F82188619861A861B861C866C
:105440001D861E861F86188ACECF803259F683E0CD
:105450008B83428D538D648D758D4D8B5E8B6F8BE1
:10546000788F9E012F5E3F4FC8010E9480298111D5
:10547000DACFB8CF8F929F92AF92BF92CF92DF9246
:10548000EF92FF920F931F93CF93DF93EC018B81E9
:1054900081110EC080E0DF91CF911F910F91FF909D
:1054A000EF90DF90CF90BF90AF909F908F90089536
:1054B00009891A892B893C8904171507260737079C
:1054C00048F34A015B01823031F488869986AA86C6
:1054D000BB8681E0E0CF81149104A104B10449F4BA
:1054E0001C821D821E821F82188619861A861B86C0
:1054F000F0CF088519852A853B85E98DFA8D85854C
:1055000090E00996B901A80141505109610971095A
:10551000082E04C076956795579547950A94D2F75B
:1055200075016401E1E0CE1AD108E108F10804C078
:10553000F694E794D794C7948A95D2F7C416D50603
:10554000E606F70620F0012B022B032B11F58D89BF
:105550009E89AF89B88D8C839D83AE83BF838E0176
:105560000C5F1F4FC114D104E104F10409F4ADCF65
:105570004C815D816E817F819801898D9A8D0E9419
:10558000FD2891E0C91AD108E108F1088111EACF9C
:1055900081CFC41AD50AE60AF70AE1CF40E050E00D
:1055A000BA010C943A2A3F924F925F926F927F9287
:1055B0008F929F92AF92BF92CF92DF92EF92FF9223
:1055C0000F931F93CF93DF93CDB7DEB72C970FB612
:1055D000F894DEBF0FBECDBF5C01DC0159968D9003
:1055E0009C90F40181859285A385B4859C01AD01D1
:1055F0002F5F3F4F4F4F5F4F29873A874B875C871D
:10560000D50114964D905D906D907C901797411444
:1056100051046104710409F459C0BFEF4B1A5B0ACD
:105620006B0A7B0A312C730162011D821E821F826C
:105630001886F40181859285A385B4852D813E81EC
:105640004F815885281739074A075B0708F056C06D
:1056500089859A85AB85BC858C159D05AE05BF05F2
:1056600050F482E0C82ED12CE12CF12C92E0492E8E
:10567000512C612C712C9E012F5F3F4FB701A60169
:10568000C4010E94FD288823C9F189819A81AB81D8
:10569000BC81892B8A2B8B2B01F1260137019FEFCF
:1056A000491A590A690A790A2D813E814F81588524
:1056B0002F5F3F4F4F4F5F4F2D833E834F83588760
:1056C0003FEFC31AD30AE30AF30AB3CF40805180F5
:1056D0006280738033243394A6CFC414D504E604C7
:1056E000F70411F70FEF1FEF2FEF3FE0B701A6010F
:1056F000C4010E946B28782E81111AC0712C872D4D
:105700002C960FB6F894DEBF0FBECDBFDF91CF91C0
:105710001F910F91FF90EF90DF90CF90BF90AF90CF
:105720009F908F907F906F905F904F903F900895E3
:10573000F5014481558166817781411551056105E7
:10574000710539F097018601C4010E946B288823F6
:10575000A9F2D5011496CD92DD92ED92FC921797A5
:10576000332051F0D701C6010196A11DB11DF401EE
:1057700080839183A283B383F50185899689A78964
:10578000B08D892B8A2B8B2B09F0B9CFC58AD68A8D
:10579000E78AF08E818180688183B1CFCF93DF93D8
:1057A000EC01462F41706C857D858E859F850E941A
:1057B0002E28882351F0888920E2829FC00111247D
:1057C00088539F4EDF91CF91089590E080E0FACF0B
:1057D000CF93DF93EC018B81882349F1898187FF87
:1057E00022C061E0CE010E94CE2BFC01892BF9F092
:1057F0008081853EE1F08B81823040F489899A89ED
:10580000AB89BC89848F958FA68FB78F8D899E8930
:10581000938F828F8D899E89AF89B88DB58BA48B2C
:1058200089818F778983DF91CF910C948C2781E0D8
:10583000888380E0DF91CF9108952F923F924F921D
:105840005F926F927F928F929F92AF92BF92CF9210
:10585000DF92EF92FF920F931F93CF93DF9300D0CD
:105860001F92CDB7DEB78C014B011A01DC011396F4
:105870008C911397813009F0CAC011968C9181FFE9
:10588000C6C082FDB0C06101D80118964D915D91EE
:105890006D917C911B97C114D10409F41AC15996DA
:1058A0008D919C915A97FC0174802FEF270D2A014E
:1058B0003B0139E076946794579447943A95D1F731
:1058C000722E74207A01F1E0FF22711020C0E114E1
:1058D000F104E9F414964D915D916D917C911797C7
:1058E000411551056105710509F097C055968D91D7
:1058F0009D910D90BC91A02D0097A105B10509F0D7
:10590000A5C0C8010E94D32A882309F480C080E082
:1059100092E08E199F0956018C159D0508F45C01D3
:10592000D80159964D915C915A9714968D919D91FD
:105930000D90BC91A02D0297A109B109FA0125850E
:1059400004C0880F991FAA1FBB1F2A95D2F746854E
:10595000578560897189840F951FA61FB71F9C0109
:10596000AD01270D311D411D511D29013A01A11421
:1059700032E0B30609F078C08091C8129091C91244
:10598000A091CA12B091CB12481659066A067B063E
:1059900069F41092D0128FEF9FEFDC018093C81250
:1059A0009093C912A093CA12B093CB129401B30181
:1059B000A2018091D1129091D2120E9425278823B2
:1059C00031F1F80180859185A285B3858A0D9B1DF3
:1059D000A11DB11D80879187A287B3878A0C9B1C6C
:1059E000CA18DB0851CFF80141895289638974894B
:1059F00080859185A285B385481759076A077B077B
:105A000009F441CFC8010E943A2A81113CCF81E0BC
:105A1000D8018C938FEF9FEF72C09E012F5F3F4F95
:105A20000E94FD28882399F389819A81AB81BC81EA
:105A3000F801218D328DF9012789203169F4883FE1
:105A4000FFEF9F07A105B10508F05BCFF801848344
:105A50009583A683B7835BCF883F2FEF9207A2077A
:105A60002FE0B20798F34DCFE114F10451F5D801BE
:105A700018964D915D916D917C911B9751968D91EA
:105A80009D910D90BC91A02D481759076A077B077F
:105A9000C0F00E948C27882309F4B9CF81E080935D
:105AA000D0124092C8125092C9126092CA127092DB
:105AB000CB12A501B401C70188539F4E0E94A9DCF7
:105AC00080CF41E0C301B2010E942E288111F1CFA5
:105AD0009ECFF80181899289A389B489841795079B
