:200000000C9486110C9451920C9426920C94FB910C94D0910C94A5910C947A910C944F91A0
:200020000C9424910C94B7110C94B7110C94B7110C94B7110C94C0920C94B7110C94B71109
:200040000C94B7110C949A630C94B7110C94B7110C94B7110C94B7110C9475B10C9496C936
:200060000C94B7110C941BA30C94B7110C94B7110C94B7110C94B7110C94B7110C94B7114A
:200080000C94B7110C94B7110C94B7110C94B7110C94B7110C94B7110C94B7110C94B71120
:2000A0000C94B7110C94B7110C94B7110C94B7110C94B7110C94B7110C94B7110C94B71100
:2000C0000C94B7110C94B7110C94B7110C94B7110C94B7110C94B7110C943EC50C94FFC4AA
:2000E0000C94B711212B3F2B752B932BA92BD72B492CE72C972DEF2D422E5D2E8D31D62E89
:20010000EE2E042F0E2F1F2F472F6D2F8B2FE22FEC2FF62F00300A3014308D312C308D3162
:200120008D318D313530453068306C306F307E3092309D30C830D930EA30FB300F318D3115
:200140008D318D318D311A3112311E314A604F6054605E606860E16072607A6082608C603A
:200160009660A060AF60B960E160C360CD60D76008B218B237B247B262B267B26AB26FB2C9
:2001800072B277B27AB27FB289B255C758C747C74BC751C78FC75CC760C766C76AC76EC7D4
:2001A00074C778C77CC78FC782C786C78AC7084AD73B3BCE016E84BCBFFDC12F3D6C74312F
:2001C0009ABD56833DDA3D00C77F11BED9E4BB4C3E916BAAAABE000000803F05A84CCDB23F
:2001E000D44EB93836A9020C50B9918688083CA6AAAA2ABE000000803F004E414E494E49B5
:200200005459494E46CDCCCC3D0AD7233C17B7D13877CC2B329595E6241FB14F0A0000207E
:20022000410000C84200401C4620BCBE4CCA1B0E5AAEC59D74434F4D4D554E4943415449E1
:200240004F4E0044525952554E004552524F525300494E464F004543484F0047322F4733D3
:200260002062616420706172616D65746572730A00536C6565702E2E2E004A303400334431
:20028000205072696E7465722072656164792E00526573756D696E67207072696E74005709
:2002A00061697420666F7220757365722E2E2E004E6F206D6F76652E00456E642066696CFC
:2002C00065206C6973740A00426567696E2066696C65206C6973740A005344207072696ED8
:2002E00074696E67206279746520004E6F74205344207072696E74696E670A0046696C655B
:200300002064656C657465643A0044656C6574696F6E206661696C65642C2046696C653AED
:2003200020006F70656E206661696C65642C2046696C653A20002569730025696D20256996
:2003400073002569682025696D2025697300256964202569682025696D2025697300256926
:200360007920256964202569682025696D20256973005072696E742074696D653A20004822
:20038000656174696E672E2E2E003344205072696E7465722072656164792E0056025102D2
:2003A0004A02430235026F66660044454255473A004B494C4C45442E20006F6B00426564B1
:2003C00020646F6E652E004A3039003F0A0020573A004265642048656174696E672E004A19
:2003E0003038003344205072696E746572204F66662E004649524D574152455F4E414D45D4
:200400003A4D61726C696E20312E312E302D52433820284769746875622920534F555243B7
:20042000455F434F44455F55524C3A68747470733A2F2F6769746875622E636F6D2F4D61D9
:20044000726C696E4669726D776172652F4D61726C696E2050524F544F434F4C5F5645523A
:2004600053494F4E3A312E30204D414348494E455F545950453A3344205072696E7465720F
:200480002045585452554445525F434F554E543A3120555549443A63656465326132662DFC
:2004A000343161322D343734382D396231322D6335356336326633363766660A004D3134C2
:2004C0003520533C696E6465783E206F7574206F662072616E67652028302D31290A0053EC
:2004E000657474696E672054726176656C20416363656C65726174696F6E3A200053657473
:2005000074696E67205265747261637420416363656C65726174696F6E3A20005365747450
:20052000696E67205072696E7420416363656C65726174696F6E3A200053657474696E672E
:20054000205072696E7420616E642054726176656C20416363656C65726174696F6E3A2049
:20056000005A20456E6473746F702041646A7573746D656E742073657420746F20286D6D54
:20058000293A00205A00205900580020204D61783A2000205A00205900580020204D696E3E
:2005A0003A20004F6E20004F666600536F667420656E6473746F70733A200020643A002085
:2005C000693A0020703A0020643A0020693A0020703A004F666673657473206170706C6953
:2005E0006564004572723A20546F6F206661722100546F6F206661722066726F6D207265AD
:20060000666572656E636520706F696E740A004163746976652045787472756465723A2085
:2006200000556E6B6E6F776E20636F6D6D616E643A2022004A3032004A3136004800570053
:20064000413435560047312058313030205931303020205A3530204635303030004731204D
:200660005A302E31352046333030004731205833302059313930204635303030004731203A
:200680005A352046353030004731205A302E313520463330300047312058313930205931ED
:2006A0003930204635303030004731205A352046353030004731205A302E31352046333005
:2006C00030004731205831393020593330204635303030004731205A3520463530300047F0
:2006E00031205A302E313520463330300047312058333020593330204635303030004731C0
:20070000205A3520463530300056312E322E39004A333320004A3032004A31320047393008
:20072000004731204525694635303000473120452D302E314625690047312045302E314654
:200740002569004731205A2569462569004731205A2D302E31462569004731205A302E31B4
:200760004625690047312059256946256900473120592D302E314625690047312059302E82
:20078000314625690047312058256946256900473120582D302E3146256900473120583062
:2007A0002E31462569004739310047323800473238205A0047323820590047323820580026
:2007C0004132305620004F4B004A3036004D313037004D3834004A3034004A3136004A313E
:2007E00038004A303500454E4400464E20004A3032003939393A393939004D00480041373E
:20080000562000413656202D2D2D0041365620005A3A2000593A2000583A2000413556001C
:200820004134562000413356200041325620004131562000413056200073746F7020707263
:20084000696E74206E657874206D6F6465200045525220004D313130004A31300020205066
:200860006C616E6E657242756666657242797465733A20002046726565204D656D6F727902
:200880003A2000436F6D70696C65643A204A616E20203620323032310A00207C2041757413
:2008A000686F723A20284A6F6C6C792C2078787878787878782E434F2E290A00323031366D
:2008C0002D31322D30362031323A303000204C61737420557064617465643A2000312E3153
:2008E0002E302D5243380A0056312E322E390A0020536F6674776172652052657365740AA6
:2009000000205761746368646F672052657365740A002042726F776E206F7574205265736F
:2009200065740A002045787465726E616C2052657365740A00506F77657255700A004A31ED
:2009400032004A31370073746172740A004731205A2B323020452D3500473120452D3500F6
:20096000473931006572726F722077726974696E6720746F2066696C650A004A3132004AB4
:200980003033004731205A2569204635303000473238004A3330004A3330004A3239004A6F
:2009A0003239004A313800446F6E6520736176696E672066696C652E0A004D323900457284
:2009C000726F722077726974696E6720746F20454550524F4D210A00206279746573290A10
:2009E0000053657474696E67732053746F726564202800454550524F4D20636865636B7374
:200A0000756D206D69736D617463680A00206279746573290A002073746F72656420736551
:200A20007474696E67732072657472696576656420280048617264636F646564204465663E
:200A400061756C742053657474696E6773204C6F616465640A0020204D3230302044300A3F
:200A60000020204D3230302044002044697361626C65640A0046696C616D656E7420736589
:200A80007474696E67733A0020440020490020204D33303420500020440020490020204DC8
:200AA0003330312050005049442073657474696E67733A0A00204600204200204800202010
:200AC0004D3134352053004D6174657269616C2068656174757020706172616D6574657205
:200AE000733A0A0020204D363636205A005A3220456E6473746F702061646A7573746D6590
:200B00006E7420286D6D293A0A00205A0020590020204D323036205800486F6D65206F6656
:200B20006673657420286D6D290A00204500205A0020590020580020420020540020204D7B
:200B4000323035205300416476616E636564207661726961626C65733A20533D4D696E206E
:200B6000666565647261746520286D6D2F73292C20543D4D696E2074726176656C206665AE
:200B800065647261746520286D6D2F73292C20423D6D696E696D756D207365676D656E7419
:200BA0002074696D6520286D73292C20583D6D6178696D756D205859206A65726B20286DE4
:200BC0006D2F73292C20205A3D6D6178696D756D205A206A65726B20286D6D2F73292C205D
:200BE00020453D6D6178696D756D2045206A65726B20286D6D2F73290A0020540020520047
:200C000020204D323034205000416363656C65726174696F6E733A20503D7072696E746987
:200C20006E672C20523D7265747261637420616E6420543D74726176656C0A0020450020EE
:200C40005A0020590020204D3230312058004D6178696D756D20416363656C65726174693E
:200C60006F6E20286D6D2F7332293A0A00204500205A0020590020204D3230332058004DF5
:200C80006178696D756D2066656564726174657320286D6D2F73293A0A00204500205A00E0
:200CA00020590020204D393220580053746570732070657220756E69743A0A002042403AD5
:200CC0000020403A00202F0020423A00202F0020543A004A3033004A3034004A303700483E
:200CE000656174696E6720646F6E652E003F0A0020573A004A30360048656174696E672EF0
:200D00002E2E003344205072696E7465722072656164792E00205A3A0020593A0020436F60
:200D2000756E7420583A200020453A00205A3A0020593A00583A004B642000236465666968
:200D40006E65202044454641554C545F004B69200023646566696E65202044454641554CC9
:200D6000545F004B70200023646566696E65202044454641554C545F00504944204175748C
:200D80006F74756E652066696E6973686564212050757420746865206C617374204B702C08
:200DA000204B6920616E64204B6420636F6E7374616E74732066726F6D2062656C6F772013
:200DC000696E746F20436F6E66696775726174696F6E2E680A00504944204175746F7475C2
:200DE0006E65206661696C6564212074696D656F75740A00504944204175746F74756E65F7
:200E0000206661696C6564212054656D706572617475726520746F6F20686967680A002022
:200E20004B643A2000204B693A2000204B703A20000A20436C617373696320504944200A33
:200E4000002054753A2000204B753A2000206D61783A2000206D696E3A200020643A2000B9
:200E600020626961733A20004A3134004D3331004D383420582059205A20450057726974CA
:200E8000696E6720746F2066696C653A20004A3231006F70656E206661696C65642C204681
:200EA000696C653A20004A3231006F70656E206661696C65642C2046696C653A20004A3218
:200EC000300046696C652073656C65637465640A002053697A653A200046696C65206F705B
:200EE000656E65643A20004A3231006F70656E206661696C65642C2046696C653A200020D2
:200F000066696C653A20004E6F7720002220706F73002220706172656E743A2200535542DD
:200F2000524F5554494E452043414C4C207461726765743A22004B494C4C45442E200074D5
:200F40007279696E6720746F2063616C6C207375622D67636F64652066696C6573207769DD
:200F6000746820746F6F206D616E79206C6576656C732E204D4158206C6576656C2069733B
:200F80003A00473930004731205A2D3230006175746F25692E67004D3234004D3233202560
:200FA0007300656E7175657565696E672022007C3C3E5E2B3D3F2F5B5D3B2C2A225C005203
:200FC0006573656E643A20006F6B003420793D003320783D003220793D003120783D004767
:200FE0003238205830205930004A3135004A3233004B494C4C45442E20004B494C4C45441F
:201000002E200024F4D43050C38E20C2A24017828B7011127A910D816CD90AA861E108C7A9
:20102000586607615143061E4B5D05C145A7041A411104093D9803713931034036DB02658D
:20104000339102D4305402802E1D02632CEE01752AC501B028A001102781018F2564012B4A
:20106000244B01E0223401AC211F018D200D01801FFC00841EED00971DDF00B81CD200E6D8
:201080001BC600201BBC00641AB200B219A8000A19A0006A189900D117910040178B00B5E7
:2010A00016840031167E00B31579003A157300C7146F0058146A00EE136600881363002524
:2010C000135E00C7125B006C12570015125400C111510070114F0021114B00D61049008DEF
:2010E0001047004610440002104200C00F4000800F3E00420F3C00060F3B00CB0E3800934E
:201100000E37005C0E3500270E3400F30D3200C10D3100900D3000600D2E00320D2D000578
:201120000D2C00D90C2B00AE0C2900850C29005C0C2700350C27000E0C2600E80B2400C4B7
:201140000B2400A00B23007D0B23005A0B2100390B2100180B2000F80A1F00D90A1E00BBDC
:201160000A1E009D0A1D00800A1D00630A1C00470A1B002C0A1B00110A1A00F7091A00DD6A
:20118000091900C4091900AB091900920917007B091800630917004C0916003609160020C9
:2011A0000916000A091500F5081500E0081400CC081400B8081400A4081400900813007D36
:2011C0000812006B081300580812004608120034081100230811001208110001081100F0DF
:2011E000071000E0071000D0071000C0071000B0070F00A107100091070E0083070F0074F2
:20120000070F0065070E0057070E0049070E003B070D002E070E0020070D0013070D000681
:20122000070D00F9060C00ED060D00E0060C00D4060C00C8060C00BC060C00B0060C00A4A9
:20124000060B0099060C008D060B0082060B0077060B006C060B0061060A0057060B004C77
:20126000060A0042060A0038060A002E060A0024060A001A060A001006090007060A00FDF5
:20128000050900F4050900EB050900E2050900D9050900D0050900C7050900BE050900B53A
:2012A000050800AD050800A50509009C050800940508008C050800840508007C0508007443
:2012C0000508006C050700650508005D050700560508004E05070047050700400508003819
:2012E000050700310507002A050700230507001C050600160507000F0507000805060002C7
:20130000050700FB040600F5040700EE040600E8040600E2040700DB040600D5040600CF52
:20132000040600C9040600C3040600BD040600B7040600B1040500AC040600A6040600A0BB
:201340000405009B04060095040500900406008A04050085040500800406007A0405007504
:20136000040500700405006B04050066040500610405005C04050057040500520405004D31
:2013800004050048040500430405003E0404003A04050035040500300404002C040500274C
:2013A000040400230405001E0404001A04040016040500110404000D04040009040500044E
:2013C00004040000040400FC030400F8030400F4030400F0030400EC030400E8030400E443
:2013E000030400E0030400DC030400D8030400D4030400D0030400CC030400C8030300C525
:2014000003030024F404D9201BC40C5C0E9804C4095F0265077101F405F900FB04B30048C8
:20142000048700C10369005803550003034500BE023A008402310053022A00290225000475
:20144000022000E4011C00C8011900AF011700980114008401130071011000610110005136
:20146000010E0043010D0036010B002B010B0020010B00150109000C01090003010800FB2B
:20148000000800F3000800EB000700E4000600DE000600D8000600D2000600CC000500C73B
:2014A000000500C2000500BD000400B9000400B5000400B1000400AD000400A9000400A571
:2014C000000300A20003009F0004009B000300980003009500020093000300900003008D3B
:2014E0000002008B000300880002008600020084000300810002007F0002007D0002007BC5
:201500000002007900020077000100760002007400020072000100710002006F0002006D24
:201520000001006C0002006A00010069000200670001006600010065000100640002006269
:2015400000010061000100600001005F0002005D0001005C0001005B0001005A000100599B
:201560000001005800010057000100560001005500010054000100530000005300010052BE
:2015800000010051000100500001004F0001004E0000004E0001004D0001004C0001004BD4
:2015A0000000004B0001004A000100490001004800000048000100470001004600000046E5
:2015C0000001004500000045000100440001004300000043000100420000004200010041ED
:2015E00000000041000100400001003F0000003F0001003E0000003E0001003D0000003DF2
:201600000001003C0000003C0000003C0001003B0000003B0001003A0000003A00010039EF
:201620000000003900010038000000380000003800010037000000370001003600000036EC
:201640000000003600010035000000350000003500010034000000340000003400010033E3
:201660000000003300000033000100320000003200000032000100310000003100000031D9
:201680000001003000000030000000300001002F0000002F0000002F0000002F0001002ECD
:2016A0000000002E0000002E0001002D0000002D0000002D0000002D0001002C0000002CC0
:2016C0000000002C0000002C0001002B0000002B0000002B0000002B0001002A0000002AB0
:2016E0000000002A0000002A0001002900000029000000290000002900000029000100289F
:2017000000000028000000280000002800000028000100270000002700000027000000278C
:20172000000000270001002600000026000000260000002600000026000100250000002578
:20174000000000250000002500000025000000250001002400000024000000240000002464
:2017600000000024000100230000002300000023000000230000002300000023000000234F
:20178000000100220000002200000022000000220000002200000022000100210000002139
:2017A000000000210000002100000021000000210000002100010020000000200000002023
:2017C00000000020000000200000002000000020000000200001001F0000001F0000001F0B
:2017E0000000001F0000001F0000001F0000001F0001001E0000001E0000001E0000001EF4
:201800000000004D383420582059205A204500466C6F7700466C6F770046616E2073706592
:2018200065640046616E2073706565640042656400426564004E6F7A7A6C65004E6F7A7A50
:201840006C65005370656564005370656564004D61696E005072656865617420504C41206A
:20186000426564005072656865617420504C410050726570617265005072656865617420DF
:20188000414253204265640050726568656174204142530050726570617265004D343238CE
:2018A00000436F6F6C646F776E005072656865617420414253005072656865617420504C9F
:2018C00041004D38340044697361626C65207374657070657273004D6F7665206178697358
:2018E0000053657420686F6D65206F66667365747300473238004175746F20686F6D6500C6
:201900004D61696E004D6F76652058004D6F76652059004D6F7665205A0045787472756496
:201920006572004578747275646572004D6F7665205A004D6F76652059004D6F766520584D
:20194000004D6F76652061786973007A325F6D696E3A20007A5F6D696E3A2000795F6D694D
:201960006E3A2000785F6D696E3A20005265706F7274696E6720656E6473746F702073744C
:20198000617475730A004D6F766520302E316D6D004D6F766520316D6D004D6F76652031B6
:2019A000306D6D005072657061726500526573746F7265206661696C73616665004C6F61F3
:2019C00064206D656D6F72790053746F7265206D656D6F72790046696C616D656E74004DA7
:2019E0006F74696F6E0054656D7065726174757265004D61696E0050726568656174204181
:201A0000425320636F6E66005072656865617420504C4120636F6E66005049442D44005041
:201A200049442D44005049442D49005049442D49005049442D50005049442D50002002200C
:201A4000466163740020022046616374002002204D6178002002204D6178002002204D6980
:201A60006E002002204D696E004F6666004F6E20004175746F74656D700046616E20737033
:201A80006565640046616E2073706565640042656400426564004E6F7A7A6C65004E6F7A03
:201AA0007A6C6500436F6E74726F6C0053746F7265206D656D6F727900426564004265641E
:201AC000004E6F7A7A6C65004E6F7A7A6C650046616E2073706565640046616E207370653F
:201AE00065640054656D7065726174757265001000C90210012C014001220170011801B0D8
:201B0000010E01F00104015002FA00B002F0003003E600D003DC009004D2007005C800A0C6
:201B200006BE000008B400B009AA00D00BA000600E960060118C000015820020197800C03E
:201B40001D6E00A0226400B0275A00902C500000314600E0343C0010383200903A28006004
:201B60003C1E00A03D1400803E0A00203F000053442063617264206F6B0A006F70656E529A
:201B80006F6F74206661696C65640A00766F6C756D652E696E6974206661696C65640A005B
:201BA0004572726F723A00534420696E6974206661696C0A006563686F3A004A30310043E9
:201BC0006172642072656D6F766564004A3030004361726420696E73657274656400257580
:201BE0003A2530327500253032753A25303275002D2D2D005344005A005900580001200033
:201C00000120004E6F2053442063617264005072696E742066726F6D2053440053746F7037
:201C2000207072696E7400526573756D65207072696E74005061757365207072696E74004E
:201C4000436F6E74726F6C00507265706172650054756E6500496E666F2073637265656E0C
:201C60000048004700460045004400430042004100413434560046696C2E204469612E009C
:201C800046696C2E204469612E004F6666004F6E20004520696E206D6D3300436F6E747238
:201CA0006F6C0043616E6E6F7420656E746572207375626469723A2000052E2E004D61692D
:201CC0006E004B494C4C45442E200053544F505045442E20005072696E7465722073746FCC
:201CE000707065642064756520746F206572726F72732E2046697820746865206572726F6F
:201D00007220616E6420757365204D39393920746F20726573746172742E202854656D7045
:201D2000657261747572652069732072657365742E20536574206974206166746572207231
:201D4000657374617274696E67290A004E6F204C696E65204E756D62657220776974682095
:201D6000636865636B73756D2C204C617374204C696E653A20004E6F20436865636B73758B
:201D80006D2077697468206C696E65206E756D6265722C204C617374204C696E653A2000A7
:201DA000636865636B73756D206D69736D617463682C204C617374204C696E653A20004C2C
:201DC000696E65204E756D626572206973206E6F74204C617374204C696E65204E756D62C3
:201DE00065722B312C204C617374204C696E653A20004D3131300053442072656164206517
:201E000072726F720A00446F6E65207072696E74696E672066696C650A0020496E76616CFE
:201E200069642065787472756465722000000057430000574300004E43000000000000005D
:201E400000000000006265640A002C2073797374656D2073746F707065642120486561747A
:201E600065725F49443A2000544845524D414C2052554E4157415900546865726D616C2004
:201E800052756E61776179004A31300048656174696E67206661696C656400486561746980
:201EA0006E67206661696C6564004A31300070012C0190012701B0012201C0011D01F00122
:201EC00018011002130130020E016002090190020401C002FF000003FA004003F500800306
:201EE000F000D003EB002004E6007004E100E004DC004005D700C005D2004006CD00D00679
:201F0000C8008007C3003008BE00F008B900C009B400B00AAF00B00BAA00D00CA500000E2E
:201F2000A000500F9B00C01096005012910000148C00C0158700B0178200B0197D00D01B38
:201F40007800001E730040206E0090226900F024640040275F0090295A00E02B5500102EA0
:201F6000500020304B0010324600E033410090353C001037370070383200A0392D00B03A51
:201F80002800A03B2300603C1E00103D1900903D1400103E0F00703E0A00C03E0500003FC3
:201FA00000004572723A204D415854454D5020424544004572723A204D415854454D5000F8
:201FC0004D415854454D5020747269676765726564004572723A204D494E54454D50204209
:201FE0004544004572723A204D494E54454D50004D494E54454D5020747269676765726528
:2020000064004A3130004A313000010210202008081020401020408002010201080402012E
:2020200001020408102040808040201008040201800402018040201008040201080402010D
:202040000102040810204080010204081020408000002200250028002B002E003100340055
:2020600002010000050108010B0105050505070508080808020202020A0A080804040404C6
:2020800001010101010101010303030303030303040707070C0C0C0C0C0C0C0C020202029F
:2020A00006060606060606060B0B0B0B0B0B0B0B024573746570732F6D6D00457374657018
:2020C000732F6D6D005A73746570732F6D6D005A73746570732F6D6D005973746570732FA9
:2020E0006D6D005973746570732F6D6D005873746570732F6D6D005873746570732F6D6D55
:2021000000412D74726176656C00412D74726176656C00412D7265747261637400412D7284
:2021200065747261637400416D6178204500416D6178204500416D6178205A00416D6178BC
:20214000205A00416D6178205900416D6178205900416D6178205800416D617820580056B1
:2021600054726176206D696E005654726176206D696E00566D696E00566D696E00566D61AF
:2021800078204500566D6178204500566D6178205A00566D6178205A00566D617820590020
:2021A000566D6178205900566D6178205800566D617820580056652D6A65726B0056652D66
:2021C0006A65726B00567A2D6A65726B00567A2D6A65726B0056792D6A65726B0056792D5D
:2021E0006A65726B0056782D6A65726B0056782D6A65726B00416363656C00416363656C35
:2022000000436F6E74726F6C00506C65617365207265736574005052494E54455220484173
:202220004C544544005072696E7465722068616C7465642E206B696C6C28292063616C6CF8
:202240006564210A000000000000000000000000005761726E696E673A20486F6D696E67F8
:202260002042756D702044697669736F72203C20310A000000A0400000A0400000004000F3
:202280000057430000574300004E43FFFFFF00002100240027002A002D0030003300010154
:2022A0000000040107010A01000020002300260029002C002F0032000001000003010601DB
:2022C000090100000A0B02090C0D0E08070304010000000000000000000000000000000096
:2022E0000000000000000000000000000000121110000000000000000000000000000000AB
:202300000000000000000000D6D425D611241FBECFEFD1E2DEBFCDBF00E00CBF15E0A0E04C
:20232000B2E0E4E2F9EC01E00BBF02C007900D92AC36B107D9F727E1ACE6B5E001C01D92B4
:20234000A735B207E1F711E1C5E8D1E100E006C021970109802FFE010E94B9E3C438D10797
:2023600080E00807A9F70E94E0C90C9481E40C9400002F923F924F925F926F927F928F92C7
:202380009F92AF92BF92CF92DF92EF92FF920F931F93CF93DF93CDB7DEB7CA56D1090FB696
:2023A000F894DEBF0FBECDBF0091FC0820E6029F800111240458184F109398050093970577
:2023C00080919B0F80FF1AC0E5EBFBE184917F013FEFE31AF30A811102C0780104C00E944D
:2023E000A0A1F701F3CFD7018D917D01882319F00E94A0A1F8CF8AE00E94A0A1F8018081C9
:202400000F5F1F4F8032D1F3F0939805E09397058E34D1F4818190ED980F9A3010F08D3205
:2024200099F432969F012F5F3F4F808180538A3010F4F901F7CFDF0131968C918032D9F3F7
:20244000B0939805A0939705C0909705D09098056AE270E0C6010E9401E4009749F0FC012D
:2024600031968291803211F08A3211F41082F9CF96012F5F3F4FF90180812F5F3F4F803238
:20248000D1F380538A3010F00C94ED2800E010E09AE0909FB001919F700D11248B0100534B
:2024A00011098191080F111D87FD1A95808180538A3078F37F013196D7018C918032D1F3CD
:2024C000F6018081F0929005E0928F058D3409F4F8C7843511F40C94D428873411F00C94B4
:2024E000ED280530110509F42CC650F40430110508F0CBC58091980202301105D0F090C074
:202500000A35110509F475C750F40630110509F402C60C31110509F4A4C60C9407290B350E
:20252000110509F46AC70C35110509F46BC70C940729882311F40C9407290E941E49809167
:202540007C058130B1F480914709882391F020E030E040EA51E460916407709165078091CE
:202560006607909167070E9484DC87FF02C00C94072988E597E00E9478620E9495A120915C
:2025800058073091590740915A0750915B07609141077091420780914307909144070E945A
:2025A00084DC81111DC020915C0730915D0740915E0750915F0760914507709146078091FA
:2025C0004707909148070E9484DC811109C0609100027091010280910202909103021AC0D4
:2025E0006091170270911802072E000C880B990B0E948ADC209100023091010240910202EA
:20260000509103020E94E9DC2AE037ED43E25CE30E94E9DC0E94BFAB0E94B5AB0C94072996
:20262000882311F40C9407290E941E4982E50E9463AC882309F454C10E9424AD4B015C0120
:2026400020E030E0A9010E9484DC882309F474C12091410730914207409143075091440797
:202660002BAF3CAF4DAF5EAF8091450790914607A0914707B091480723968CAF9DAFAEAF15
:20268000BFAF2397209158073091590740915A0750915B0727962CAF3DAF4EAF5FAF27971F
:2026A00080915C0790915D07A0915E07B0915F072B968CAF9DAFAEAFBFAF2B976BAD7CADCE
:2026C0008DAD9EAD0E9484DC811111C02B962CAD3DAD4EAD5FAD2B9723966CAD7DAD8EAD8C
:2026E0009FAD23970E9484DC882309F425C1FF24F3940230110509F0F12C20E030E0A90182
:20270000C501B4010E9484DC881F8827881FF81659F020E030E040E85FEB67962CAF3DAFA2
:202720004EAF5FAF67970AC080E090E0A0E8BFE367968CAF9DAFAEAFBFAF67972BAD3CADBE
:202740004DAD5EAD27966CAD7DAD8EAD9FAD27970E94ADE063966CAF7DAF8EAF9FAF63973B
:2027600023962CAD3DAD4EAD5FAD23972B966CAD7DAD8EAD9FAD2B970E94ADE06B017C01B7
:2027800063962CAD3DAD4EAD5FAD6397CA01B9010E94E9DC2B013C01A7019601C701B60169
:2027A0000E94E9DC9B01AC01C301B2010E94AEE00E9419E32F966CAF7DAF8EAF9FAF2F97C7
:2027C00020E030E040E05FE30E94E9DC2B013C01A5019401C501B4010E94E9DC4B015C01F1
:2027E000A3019201C301B2010E94E9DC9B01AC01C501B4010E94ADE00E9419E367962CAD5D
:202800003DAD4EAD5FAD67970E94E9DC4B015C01C701B60190582F962CAD3DAD4EAD5FADC3
:202820002F970E948AE1A50194010E94E9DC6B017C0127962CAD3DAD4EAD5FAD27976BADDD
:202840007CAD8DAD9EAD0E94AEE020E030E040E05FE30E94E9DC9B01AC01C701B6010E9457
:20286000AEE02BAD3CAD4DAD5EAD0E94ADE06B017C012B962CAD3DAD4EAD5FAD2B972396E6
:202880006CAD7DAD8EAD9FAD23970E94AEE020E030E040E05FE30E94E9DC2B013C012F967D
:2028A0002CAD3DAD4EAD5FAD2F9763966CAD7DAD8EAD9FAD63970E948AE1A50194010E94E1
:2028C000E9DC9B01AC01C301B2010E94AEE023962CAD3DAD4EAD5FAD23970E94ADE014C003
:2028E00089E40E9463AC882329F00E9424AD6B017C0103C0C12CD12C76018AE40E9463AC57
:202900008823E9F00E9424AD6BAF7CAF8DAF9EAF20E030E0A901C701B6010E9484DC811125
:202920001BC020E030E0A9016BAD7CAD8DAD9EAD0E9484DC811110C0E0EAFBE192C320E0DD
:2029400030E0A901C701B6010E9484DC8823A1F31BAE1CAE1DAE1EAEA7019601C701B60115
:202960000E94E9DC4B015C012BAD3CAD4DAD5EADCA01B9010E94E9DC9B01AC01C501B401D1
:202980000E94AEE00E9419E3AB966CAF7DAF8EAF9FAFAB97209141073091420740914307F6
:2029A000509144072B962CAF3DAF4EAF5FAF2B97A70196012B966CAD7DAD8EAD9FAD2B970A
:2029C0000E94AEE067966CAF7DAF8EAF9FAF67978091450790914607A0914707B091480720
:2029E0002F968CAF9DAFAEAFBFAF2F972BAD3CAD4DAD5EADBC01CD010E94AEE06B966CAF5D
:202A00007DAF8EAF9FAF6B972091490730914A0740914B0750914C076F962CAF3DAF4EAFCA
:202A20005FAF6F97609160077091610780916207909163070E94ADE063966CAF7DAF8EAF10
:202A40009FAF6397D701C601B05823968CAF9DAFAEAFBFAF23972BAD3CAD4DAD5EAD505854
:202A600027962CAF3DAF4EAF5FAF27978091580790915907A0915A07B0915B07A3968CAF6F
:202A80009DAFAEAFBFAFA39767962CAD3DAD4EAD5FAD6797BC01CD010E94ADE06B017C017D
:202AA00020915C0730915D0740915E0750915F07A7962CAF3DAF4EAF5FAFA7976B962CAD39
:202AC0003DAD4EAD5FAD6B97A7966CAD7DAD8EAD9FADA7970E94ADE04B015C01A7019601A7
:202AE00023966CAD7DAD8EAD9FAD23970E94E9DC2B013C01A501940127966CAD7DAD8EAD53
:202B00009FAD27970E94E9DC9B01AC01C301B2010E94AEE02B013C01A501940123966CADDE
:202B20007DAD8EAD9FAD23970E94E9DC4B015C01A701960127966CAD7DAD8EAD9FAD279796
:202B40000E94E9DC9B01AC01C501B4010E94ADE0A30192010E9421E16B017C0120E030E047
:202B6000A9010E9484DC87FF0AC02BED3FE049EC50E4C701B6010E94AEE06B017C010230EF
:202B8000110551F42BED3FE049EC50E4C701B6010E94ADE06B017C0120E030E0A901C70121
:202BA000B6010E9484DC81112AC0A3962CAD3DAD4EAD5FADA3972B966CAD7DAD8EAD9FAD18
:202BC0002B970E9484DC81111AC0A7962CAD3DAD4EAD5FADA7972F966CAD7DAD8EAD9FADF1
:202BE0002F970E9484DC81110AC02BED3FE049EC50E4C701B6010E94AEE06B017C01A701D1
:202C00009601AB966CAD7DAD8EAD9FADAB970E94E9DC9B01AC010E94E9DC4B015C01639617
:202C20002CAD3DAD4EAD5FAD6397CA01B9010E94E9DC9B01AC01C501B4010E94AEE00E944E
:202C400019E34B015C012FE632E143E85AE30E9484DC87FDFFC1C501B4010E9423E20E9435
:202C6000F7E12D967FAF6EAF2D97672B31F481E090E02D969FAF8EAF2D9740904D0750900C
:202C80004E0760904F07709050072D96AEADBFAD2D97BD0180E090E00E9488DC4B015C01B7
:202CA0009B01AC01C701B6010E948AE12B966CAF7DAF8EAF9FAF2B97A501940163966CAD9D
:202CC0007DAD8EAD9FAD63970E948AE1A7966CAF7DAF8EAF9FAFA797A3019201609164075C
:202CE0007091650780916607909167070E94ADE0A50194010E948AE1AB966CAF7DAF8EAF1E
:202D00009FAFAB972B962CAD3DAD4EAD5FAD2B97CA01B9010E94E9DC20E030E040E05FE378
:202D20000E94E9DC9B01AC0160E070E080E89FE30E94ADE063966CAF7DAF8EAF9FAF639775
:202D40006F962CAD3DAD4EAD5FAD6F9729873A874B875C874D865E866F86788A60911702C0
:202D600070911802072E000C880B990B0E948ADC2091000230910102409102025091030286
:202D80000E94E9DC2AE037ED43E25CE30E94E9DC6F966CAF7DAF8EAF9FAF6F970E944BC940
:202DA0009B01AC0128533F4F4F4F5F4FA3962CAF3DAF4EAF5FAFA3974FAC21965FAC2197BB
:202DC00022966FAC229723967FAC239722242394312CD12C2D964EAD5FAD2D974215530535
:202DE00009F424C10E944DB40E944BC9DC01CB01A3962CAD3DAD4EAD5FADA397821B930B77
:202E0000A40BB50BB7FD10C00E944BC99B01AC0128533F4F4F4F5F4FA3962CAF3DAF4EAF6E
:202E20005FAFA3970E94AB5A81E08D0D893108F04CC0D82E27962CAD3DAD4EAD5FAD27979F
:202E400063966CAD7DAD8EAD9FAD63970E94E9DC4B015C019201A3012B966CAD7DAD8EAD2F
:202E60009FAD2B970E94E9DCA50194010E94AEE07B018C019201A30163966CAD7DAD8EADBB
:202E80009FAD63970E94E9DC4B015C0127962CAD3DAD4EAD5FAD27972B966CAD7DAD8EAD58
:202EA0009FAD2B970E94E9DC9B01AC01C501B4010E94ADE02B013C01C701D80127968CAFA8
:202EC0009DAFAEAFBFAF279754C0B10180E090E00E9488DC2B962CAD3DAD4EAD5FAD2B9734
:202EE0000E94E9DC4B015C010E9487E16B017C01C501B4010E940FE34B015C01A7019601D8
:202F000023966CAD7DAD8EAD9FAD23970E94E9DC2B013C012BAD3CAD4DAD5EADC501B40163
:202F20000E94E9DCA30192010E94AEE02B013C01A501940123966CAD7DAD8EAD9FAD2397E2
:202F40000E94E9DC4B015C012BAD3CAD4DAD5EADC701B6010E94E9DC9B01AC01C501B401F1
:202F60000E94ADE027966CAF7DAF8EAF9FAF2797D12C9201A30167966CAD7DAD8EAD9FADDA
:202F800067970E94AEE069837A838B839C8327962CAD3DAD4EAD5FAD27976B966CAD7DAD64
:202FA0008EAD9FAD6B970E94AEE06D837E838F839887A7962CAD3DAD4EAD5FADA797698503
:202FC0007A858B859C850E94AEE069877A878B879C87AB962CAD3DAD4EAD5FADAB976D852C
:202FE0007E858F8598890E94AEE06D877E878F87988BCE0101960E947862C09089056F9672
:20300000ECACFDAC0EAD1FAD6F979E01235F3F4FAE01475F5F4FBE016B5F7F4FCE01019673
:203020000E9412763FEF231A330AD4CEC09089056F96ECACFDAC0EAD1FAD6F9724E637E04A
:2030400040E657E06CE577E088E597E00E9412760E94B5AB0E9495A10C9407290E94A0A1D0
:20306000F80184918F010F5F1F4F8111F7CFEBE5F2E084918F010F5F1F4F882311F40C940B
:2030800007290E94A0A1F801F4CF80E50E9463AC882329F00E9419AD6B017C0103C0C12C86
:2030A000D12C760183E50E9463AC882361F00E9424AD20E030E04AE754E40E94E9DC0E9492
:2030C000F7E16B017C010E948BB80E9495A180918A0A90918B0AA0918C0AB0918D0AC80EA2
:2030E000D91EEA1EFB1E8091A802811105C060E081E792E00E9463980E944BC9DC01CB0190
:203100008C199D09AE09BF09B7FD02C00C9407290E94AB5AF1CF83E50E9463AC882311F46F
:203120000C9407290E9476AC882331F02C9A81E0809378070C9407292C98109278070C9421
:2031400007298C9A8091560A8823C1F0EAE7F2E084918F01882351F0082E000C990B0E9490
:203160005CBC0F5F1F4FF8018491F4CF8DE090E00E945CBC8AE090E00E945CBC80914709FE
:20318000882309F468C084E190E099A388A344E0BE016F5F7F4FCE0180960E941D3744E0A5
:2031A0006DE775E0CE0180960E941D3744E06CE675E0CE0180960E941D3744E060E775E025
:2031C000CE0180960E941D3744E064E775E0CE0180960E941D3744E068E775E0CE018096C8
:2031E0000E941D3780917D0590917E05A0917F05B091800585369105A105B1055CF0059792
:20320000A109B10980937D0590937E05A0937F05B093800540917D0550917E0560917F0564
:20322000709180054093B0165093B1166093B2167093B3168FEF95E10E94635381E080937E
:20324000480980937C051092470982EB90E09093451780934417669B02C00C940A290C9497
:2032600007290E948BB88091000290910102A0910202B09103028093930590939405A093ED
:203280009505B09396058091170290911802909392058093910584E690E0909318028093C4
:2032A00017020E9495A111E010930B0288E50E9463ACF82E89E50E9463AC082F8AE50E94D1
:2032C00063ACE82EF11004C0011104C0812703C0011101C080E08093040290E1E1E4F7E06A
:2032E000A8E5B7E001900D929A95E1F7811104C0F11002C00023D9F120E030E040E450E405
:2033000060913D0770913E0780913F07909140070E94AEE020912517309126174091271749
:20332000509128170E94AEE0609360077093610780936207909363072091490730914A075C
:2033400040914B0750914C070E94D4E218167CF419821A821B821C829E012F5F3F4F40E6CD
:2033600057E065E477E081E497E00E94D4AA80910402811102C0FF2021F080E090E00E946D
:203380007CC580910402811102C0002321F081E090E00E947CC580910402811102C0EE2020
:2033A00021F082E090E00E947CC50E94EEB08091340980930B028091930590919405A09105
:2033C0009505B09196058093000290930102A0930202B0930302809191059091920590933B
:2033E0001802809317020E9495A10E94DF400C94072910928E050C94072981E080938E0512
:203400000C94072985E40E9463ACB82E811102C00E948BB879EE872E72E0972EE1E4CE2EAF
:20342000E7E0DE2EFDE1EF2EF7E1FF2E00E010E0A12CD4018D914D010E9463AC882339F155
:20344000F60140805180628073800E9424ADD6016D937D938D939C9313970330C1F0A30134
:2034600092010E94ADE09B01AC01F70160817181828193810E94AEE0D7016D937D938D9327
:203480009C931397C8010E94D8ABAA24A3940F5F1F4FB4E0CB0ED11CE4E0EE0EF11C043029
:2034A000110539F6AA2019F00E94EEB006C0BB2021F08DE497E00E94B04A0E94DF400C941D
:2034C00007290F36110509F47CC508F0B4C00A32110509F4FDC408F062C00731110509F442
:2034E0007AC288F50231110511F40C949522E8F40230110508F4ABC10131110511F00C94F9
:20350000072960E080EB92E00E9463985F988A9847989FB7F894809108018E7F80930801A4
:203520009FBF479812980C9407290531110509F448C208F04AC20431110511F00C94072961
:20354000E8ECF2E0FEC10B31110509F462C260F40931110509F446C208F04DC20E947D4C78
:203560000E9457C90C9407290E31110509F48EC260F40C31110511F00C94072940E060E03F
:20358000C7010E94ED4C0C9407290F31110509F4E1C30032110509F48FC30C940729053520
:2035A000110509F4EFC7E8F40135110509F4A0C770F40C34110509F48FC40D34110509F458
:2035C000A5C40B34110511F00C94072981C40335110509F4A6C708F0A8C710928D050C9424
:2035E00007290A36110509F450C7A8F40836110509F490C408F072C50C35110511F00C94C9
:20360000072939EEC32E32E0D32E49E8E42E49E0F42E10E0D0C70C36110509F440C508F4E4
:2036200057C70D36110509F47AC50E36110509F4B5C40C940729033D110509F401C108F02A
:203640006FC00C38110509F432C558F50537110511F40C94682390F40237110511F40C94A6
:203660005A230337110509F4EFC00037110511F00C94072981EB93E00E94F8C6083711051F
:2036800011F40C946D230937110511F40C9473230737110511F00C9407290E9418820C9463
:2036A0000729093C110511F40C943F2480F40E3B110509F438C5083C110511F40C94ED239B
:2036C0000139110511F00C9407290C9478230C3C110511F40C94762488F40B3C110511F017
:2036E0000C94072969EEE62E62E0F62E08EF16E178E0C72E77E1D72E0C9467240D3C110507
:2037000011F40C94E0240E3C110511F00C94072959EEE52E52E0F52E00E010E00C944B2540
:203720000A39F1E01F0709F4BEC4A8F50C3231E0130711F40C946B2688F40D3D110511F4B3
:203740000C942626023E110511F40C943F260C3D110511F00C9407290C9419260F3251E09C
:20376000150711F40C94B62738F40D32114011F40C949A260C9407290033A1E01A0711F4E0
:203780000C9439270039114011F00C9407290E948BB80C940729063FE1E01E0711F40C9449
:2037A000B528A0F5043F21E0120711F40C94AF2810F00C94B2280C3A114011F00C940729DC
:2037C00027ED31E129963FAF2EAF299785E3C82E87E0D82E9DE1292E97E1392E41E457E09E
:2037E0005CAF4BAF86E89FE025969FAF8EAF2597A9E1B2E02196BFAFAEAF219725E4E22E66
:2038000022E2F22E00E010E00C94B9270A3952E0150711F40C94632538F4073F114011F4AE
:203820000C94B8280C940729003AA3E01A0709F487C2073E134011F40C94C4280C9407291B
:20384000E5EBFBE10C948225E3EFF3E036C780E50E9463AC882359F00E9419AD4B015C01B8
:2038600011E0672B682B692B31F410E004C010E0812C912C540183E50E9463AC8823D9F089
:203880000E9424AD20E030E04AE754E40E94E9DC0E94F7E14B015C0111110FC0672B682B9C
:2038A000692B59F4F7018081882339F061E0C7010E94789807C01123A9F360E08FE992E0DE
:2038C0000E94639881E0809381050E948BB80E9495A181149104A104B104E1F080918A0A9A
:2038E00090918B0AA0918C0AB0918D0A880E991EAA1EBB1E0E944BC9DC01CB0188199909E3
:20390000AA09BB09B7FF19C08091810581110C941B2913C080918105882319F00E94AB5ACF
:20392000F9CF8091341460E0882319F080E992E002C08EE792E00E946398109281050C9489
:20394000072984918F010F5F1F4F882321F00E94A0A1F801F6CF1092BA161092B91685E60B
:2039600094E10E94C0C38BE1E5E6F4E1DE01159601900D928A95E1F78091631490916414CF
:203980009C838B8380ED93E09A83898340E050E0BE016F5F7F4F88ED94E00E94DA8DCE0185
:2039A00001960E94F0C6E9EBF2E084918F010F5F1F4F882311F40C9407290E94A0A1F80195
:2039C000F4CF0E94E38B0C94072910923414109235140C94072940E061E0C7010E94ED4C9B
:2039E0000C94072981E08093FE0880937609109234140C94072980913514882311F40C9487
:203A0000072983E50E9463AC81110C941F290C94072980913514811103C0EBEEF2E02AC0CF
:203A2000E9EDF2E084918F010F5F1F4F882321F00E94A0A1F801F6CF6091B0167091B11681
:203A40008091B2169091B3164AE00E94C0A18FE20E94A0A16091AC167091AD168091AE16D6
:203A60009091AF164AE00E94C0A18AE00E94A0A10C94072984918F010F5F1F4F882311F4E5
:203A80000C9407290E94A0A1F801F4CF80913514882311F40C9407298FEF95E10E943153C3
:203AA0008FEF95E10E947A59109233141092321480913514882311F40C940729E0908F05EE
:203AC000F09090051092341480910216882321F08FEF95E10E947A591D8218861C821B8221
:203AE00080ED93E09A83898381E694E19093811480938014D7018C918F3209F067C06FE25B
:203B000070E0C7010E9401E48C010F5F1F4FFE0131965F010115110509F45EC06FE270E08F
:203B2000C8010E9401E46C01009709F456C00817190708F052C04C01801A910AA401B801F5
:203B4000CE0180960E942AE4E0E2F0E0EC0FFD1FE80DF91D10828E01005E1F4FD8018D9138
:203B60008D01882319F00E94A0A1F8CF8AE00E94A0A160918014709181146115710511F004
:203B80006C5F7F4F21E0AE01405E5F4FCE0105960E948259811112C0BE01605E7F4F82E296
:203BA00093E00E94A7A18EE20E94A0A18AE00E94A0A1C5010E94F0C60C940729B092811443
:203BC000A092801486010F5F1F4FA4CF82E894E190938114809380148701609180147091FD
:203BE00081146115710511F06C5F7F4F18A21BA222E0A801CE0180960E948259811102C0D2
:203C0000F12C14C0CE0180960E9479BC8823C1F361E0CE0180960E949FC2009789F325EE49
:203C2000FC0120831BA20E944151F82ECE0180960E947FA1F11003C0EAE0F3E021C0ECEF09
:203C4000F2E084917F012FEFE21AF20A882321F00E94A0A1F701F5CFD8018D918D0188235C
:203C600019F00E94A0A1F8CF8AE00E94A0A11092B0161092B1161092B2161092B31616C0C8
:203C800084917F01BFEFEB1AFB0A882321F00E94A0A1F701F5CFF80181918F01882319F02D
:203CA0000E94A0A1F8CF8EE20E94A0A1CE0101960E94F0C60C9407298091341481110E94EC
:203CC0008BB800918F051091900561E270E0C8010E9401E4009719F08C010F5F1F4F80E5F5
:203CE0000E9463AC882349F0FF24F39480918205909183058017910708F0F12C80913514A6
:203D0000882311F40C9407294F2D61E0C8010E94ED4C83E50E9463AC882349F0809182052D
:203D2000909183058017910710F40C9430290E947D4CF1100C9407290E9457C90C940729E0
:203D400081E08093331440E060E0C7010E94ED4C0C9407290E94474C7B018C0120E831E579
:203D600041E050E00E9472E0C9016DE671E00E9476E34B015C01C801B70120E13EE040E02C
:203D800050E00E9472E0CA01B90128E130E040E050E00E9472E0762E672EC62ED72E6CE39C
:203DA000262E312C412C512CC801B701A20191010E9472E0F62EE72ECA01B901A2019101CB
:203DC0000E9472E0CB018E010F5F1F4F8114910499F0EF92FF927F936F936F927F92BF927C
:203DE000AF929F928F928EE593E09F938F931F930F930E9456DC13C0A114B104B1F0EF926F
:203E0000FF927F936F936F927F92BF92AF928EE493E09F938F931F930F930E9456DC0FB633
:203E2000F894DEBF0FBECDBF30C0CD2879F0EF92FF927F936F936F927F9282E493E09F936F
:203E40008F931F930F930E9456DCE9CF892B69F0EF92FF927F936F938AE393E09F938F93F9
:203E60001F930F930E9456DCDACFEF92FF9286E393E09F938F931F930F930E9456DC0F9068
:203E80000F900F900F900F900F9060E0C8010E947898E5EBFBE184917F01BFEFEB1AFB0A53
:203EA000882321F00E94A0A1F701F5CFB80182E793E00E94A7A18AE00E94A0A18091A50F16
:203EC000882311F40C9407290E94D1C60C9407290E9457C90C940729809124149091251424
:203EE000019711F00C94072982E090E090932514809324140E944BC960932E1470932F14AF
:203F000080933014909331140C9407290E94EFB80C94072988E690E00E94A5AC81110C94F6
:203F2000072980919B0F83FF02C00C94072983E50E9463AC882371F10E9424AD0E94F2E174
:203F400070931913609318130E949FB80E9424AD20E030E04AEA52E40E9484DC18163CF0D2
:203F60000E94EFB860E08AE893E00E9463980E9424AD20911A1330911B1340911C13509115
:203F80001D130E94D4E218162CF460E08FE793E00E9463980E947B6B0C9407298EE40E9419
:203FA00063AC882311F40C9407290E94CCD4609384057093850580938605909387050C943A
:203FC000072983E50E9463AC882319F00E9476AC01C080E080939B0FE5EBFBE184918F01F1
:203FE0000F5F1F4F811103C0EAEAF3E004C00E94A0A1F801F3CF84918F010F5F1F4F88235B
:2040000021F00E94A0A1F801F6CF80919B0F811103C0E6EAF3E034C05CE9C52E53E0D52ED9
:20402000E12CF12C20E080919B0F90E00E2C02C0959587950A94E2F780FF17C0BB24B394F6
:20404000B20E222319F08CE20E94A0A1F60185919491FC0184918F010F5F1F4F882321F095
:204060000E94A0A1F801F6CF2B2DEFEFEE1AFE0AF2E0CF0ED11C35E0E316F104A1F60AC059
:2040800084918F010F5F1F4F882321F00E94A0A1F801F6CF8AE00E94A0A10C940729109283
:2040A00093020C9407290E9493400C94072980919B0F83FF02C00C94072983E50E9463AC6E
:2040C000882311F40C9407290E9424AD0E94F2E170934717609346170C94072989E690E018
:2040E0000E94A5AC81110C949D2980913414811103C081E080935507EAEBF3E084918F010A
:204100000F5F1F4F882321F00E94A0A1F801F6CF0E949E418AE00E94A0A10C949D290E9490
:20412000D9460C94072980919B0F83FF02C00C940729EFEDF3E084918F01882351F0082E4B
:20414000000C990B0E945CBC0F5F1F4FF8018491F4CF8DE090E00E945CBC8AE090E00E9435
:204160005CBC60E082ED93E00E94639883E50E9463AC24968FAF2497811105C082E50E943C
:2041800063AC8823A1F00E9424AD0E94F2E170934717609346170E9424AD20E030E040EA8E
:2041A00050E40E94D4E2181614F40E9457C981E080939302809189058093880523961CAEB0
:2041C0001DAE1EAE1FAE23972B961CAE1DAE1EAE1FAE2B971BAE2C961FAE2C97FCE3609620
:2041E000FFAF60972CE164962FAF649736E468963FAF6897E12CF12C00E81FEB812C912CAF
:2042000054016091461770914717072E000C880B990B0E948ADC762E672E582E492E97014E
:20422000A8010E9484DC882341F12091DA113091DB114091DC115091DD1124968FAD24976F
:20424000672D762D811109C0852D942D0E9484DC881F8827881F8BAF16C0852D942D0E9435
:2042600084DC87FF0FC080919302882309F4CFC7E7ECF3E084918F01EEC07E2C6F2C502EE9
:20428000412E01C01BAE0E944BC96B017C01DC01CB012B962CAD3DAD4EAD5FAD2B97821BF3
:2042A000930BA40BB50BB7FD46C0D701C60188519C4FAF4FBF4F2B968CAF9DAFAEAFBFAFB5
:2042C0002B970E949E41EEECF3E084918F010F5F1F4F882321F00E94A0A1F801F6CF81147B
:2042E0009104A104B10419F4EBECF3E01AC0D501C401805F984DAF4FBF4FBC01CD016C19C3
:204300007D098E099F0928EE33E040E050E00E9472E0CA01B9010E9446A28AE00E94A0A10F
:204320000AC084918F010F5F1F4F882321F00E94A0A1F801F6CF0E94AB5A0E9495A12090A6
:20434000DA113090DB110091DC111091DD119101A801672D762D852D942D0E94ADE09F778F
:2043600081149104A104B10449F420E030E040E85FE30E9484DC87FF0BC008C020E030E0D7
:2043800040E450E40E94D4E2181614F4460157019BAD992309F443C023962CAD3DAD4EAD1D
:2043A0005FAD2397211531054105510541F0D701C601821B930BA40BB50BB7FD30C091017F
:2043C000A8012C966FAD2C9760967FAD609764968FAD649768969FAD68970E94ADE020E0D1
:2043E00030E040EC5FE30E9484DC87FD3CCFD701C601805A9541AF4FBF4F23968CAF9DAF13
:20440000AEAFBFAF23972C962FAE2C9760963FAE609764960FAF649768961FAF689780914C
:204420009302882309F41FCF81149104A104B10429F4E72CF62C052D142DE3CE90E1C91A03
:2044400097E2D90AE108F108C818D908EA08FB08F7FE09CFEECF882351F0082E000C990B0C
:204460000E945CBC0F5F1F4FF8018491F4CF8DE090E00E945CBC8AE090E00E945CBC60E06A
:204480008DEB93E00E946398C2C683E50E9463AC882321F00E94C0D48C0102C003EB10E0D4
:2044A00080E50E9463AC882319F00E94C0D402C080E090E09801033B110510F022EB30E060
:2044C000892B09F0A4C630934517209344179FC680E50E9463AC811105C010924517109226
:2044E000441795C60E94C0D4892B09F090C6F5CF0E94F8B00E948BB80E9465621092451773
:204500001092441768EE73E080E090E00E9413C960E083EE93E00E9463980E94899827D725
:2045200076C681E080938D0572C683E50E9463AC882399F00E9424AD20E030E04AE754E4C8
:204540000E94E9DC0E94F7E160930C0270930D0280930E0290930F025AC688E50E9463ACD2
:20456000811190C689E50E9463AC81118BC68AE50E9463AC811186C685E40E9463AC8111A7
:2045800081C6ABC683E50E9463AC882309F43FC60E9424AD20E030E04AE754E40E94E9DC4A
:2045A0000E94F7E160938E0A70938F0A8093900A9093910A2CC6D6018D916D010E9463ACE9
:2045C000882309F46DC0133009F063C00E9424AD4B015C0120E030E040EA51E40E9484DC1A
:2045E00087FF4EC0A5019401609195097091960980919709909198090E948AE12B013C01D4
:204600009B01AC01609114177091151780911617909117170E94E9DC6093141770931517C7
:204620008093161790931717A3019201609104177091051780910617909107170E94E9DCB5
:20464000609304177093051780930617909307176091C90A7091CA0A8091CB0A9091CC0A46
:204660000E9488DCA30192010E94E9DC0E94F7E16093C90A7093CA0A8093CB0A9093CC0A9E
:204680008092950990929609A0929709B092980907C00E9424ADF7016083718382839383D0
:2046A0001F5FF4E0EF0EF11C143009F084CF0E94C96CADC50E94DF40AAC584918F010F5F82
:2046C0001F4F882309F4A3C50E94A0A1F801F5CF60E0C7010E9478989AC581E080930B0222
:2046E0008093340994C510920B02109234098FC583E50E9463AC8823F9F00E940CAD182FE0
:204700008230D8F0E0EAFBE184918F010F5F1F4F811103C0EDEBF4E004C00E94A0A1F80157
:20472000F3CF84918F010F5F1F4F882309F46FC50E94A0A1F801F5CF10E088E40E9463ACAD
:204740008823B1F00E940CADE12FF0E08A3A91053CF08F3021E092072CF08EE091E002C036
:204760008AEA90E0EE0FFF1FE655F04F9183808386E40E9463AC8823A1F00E940CADE12FE7
:20478000F0E0EE0FFF1FE255F04F8F3F910519F014F08FEF90E097FF02C080E090E091831D
:2047A000808382E40E9463AC882309F430C50E940CADE12FF0E08530910534F08838910542
:2047C0002CF087E890E002C085E090E0EE0FFF1FEA55F04F918380831AC588EC90E00E9432
:2047E000A5AC811114C584E40E9463AC882309F40EC50E9424AD6B017C0111E020E030E00C
:20480000A9010E9484DC811101C010E010932A1220E030E0A901C701B6010E9484DC8823E4
:2048200059F10091880510E00E9424AD000F111F000F111FF801EC56FD4F608371838283CC
:20484000938320E030E0A901609194027091950280919602909197020E9484DC81110CC0A6
:2048600080E090E0A0EEBFE38093940290939502A0939602B09397020E94605AC8C4E9EE6F
:20488000EE2EE2E0FE2E00EE16E1F0EFCF2EF6E1DF2ED7018D917D010E9463AC882349F060
:2048A0000E9424AD0E94F7E1F80160837183828393830C5F1F4FC016D10659F70E94AB6B92
:2048C000A6C40C5F1F4FC016D10609F4A0C4D7018D917D010E9463AC882399F30E9424ADB8
:2048E000F8016083718382839383EBCF83E50E9463AC8823D9F00E9424ADAB01BC014093D7
:2049000018175093191760931A1770931B174093D8165093D9166093DA167093DB1689E326
:2049200095E00E94E8A28AE00E94A0A180E50E9463AC882399F00E9424ADAB01BC01409390
:2049400018175093191760931A1770931B178CE195E00E94E8A28AE00E94A0A182E50E9458
:2049600063AC882399F00E9424ADAB01BC014093DC165093DD166093DE167093DF168DEF22
:2049800094E00E94E8A28AE00E94A0A184E50E9463AC882309F43BC40E9424ADAB01BC018D
:2049A0004093D8165093D9166093DA167093DB168FED94E00E94E8A28AE00E94A0A127C439
:2049C00083E50E9463AC882351F00E9424AD6093F4167093F5168093F6169093F71684E59C
:2049E0000E9463AC882351F00E9424AD6093F0167093F1168093F2169093F31682E40E9455
:204A000063AC882351F00E9419AD6093970F7093980F8093990F90939A0F88E50E9463AC4B
:204A2000882351F00E9424AD609308177093091780930A1790930B1789E50E9463AC88239F
:204A400051F00E9424AD60930C1770930D1780930E1790930F178AE50E9463AC882351F0D8
:204A60000E9424AD6093101770931117809312179093131785E40E9463AC882309F4C7C3A9
:204A80000E9424AD60931417709315178093161790931717BCC3D7018D917D010E9463AC21
:204AA000882339F00E9424ADAB01BC01C8010E9427AC0F5F1F4F0330110569F70E94EEB043
:204AC0000E94DF40A4C38AE50E9463AC882351F00E9424AD60933509709336098093370969
:204AE000909338094091350950913609609137097091380981E695E00E94E8A28AE00E949C
:204B0000A0A185C384918F010F5F1F4F882321F00E94A0A1F801F6CF83E50E9463AC88236A
:204B200021F00E94E2AC80932502EBEAF5E084918F010F5F1F4F882321F00E94A0A1F80137
:204B4000F6CF80912502882319F0E3EAF5E002C0E7EAF5E084918F010F5F1F4F811103C0C4
:204B6000EBE9F5E004C00E94A0A1F801F3CF84918F010F5F1F4F882321F00E94A0A1F80111
:204B8000F6CF4091860F5091870F6091880F7091890F89E995E00E94E8A240918A0F5091F4
:204BA0008B0F60918C0F70918D0F86E995E00E94E8A240918E0F50918F0F6091900F7091A4
:204BC000910F83E995E00E94E8A2EBE8F5E084918F010F5F1F4F882321F00E94A0A1F80167
:204BE000F6CF4091190250911A0260911B0270911C0289E895E00E94E8A240911D025091F7
:204C00001E0260911F027091200286E895E00E94E8A2409121025091220260912302709120
:204C2000240283E895E00E94E8A28AE00E94A0A1EEC283E50E9463AC882309F4E8C20E9438
:204C40000CAD9093180280931702E1C28DED90E00E94A5AC8111DBC283E50E9463AC8823BF
:204C600009F4D5C20091880510E00E940CAD000F111FF801EB5EFD4F91838083C8C280E564
:204C80000E9463AC882309F4C2C20E940CAD8C0183E50E9463AC882321F00E940CAD7C01A2
:204CA00003C0EE24EA94FE2CC7010196039708F0AEC217FDACC2EDEEF2E083E493E0980174
:204CC0003327419151912417350709F4A0C28E179F07B9F70AC383E50E9463AC882321F053
:204CE0000E940CAD8C0102C00EE610E080E50E9463AC882319F00E940CAD02C088EE93E056
:204D00006C01990FEE08FF081016110674F440E050E0BA01C8010E9408B9C701B6010E9484
:204D200013C98FE10E947C9272C2C701B6010E9413C96DC285E40E9463AC811110C080E536
:204D40000E9463AC882399F00E9424AD60932A0270932B0280932C0290932D0208C00E94AF
:204D60000CAD181619065CF7E0EAFBE171C089E40E9463AC882381F00E9424AD2CE933E529
:204D800049E45EE30E94E9DC6093320270933302809334029093350284E40E9463AC882378
:204DA00081F00E9424AD2CE933E549E45EE30E948AE160932E0270932F02809330029093A8
:204DC0003102E5EBFBE184918F010F5F1F4F882321F00E94A0A1F801F6CF40912A02509138
:204DE0002B0260912C0270912D0283EC95E00E94E8A22CE933E549E45EE360913202709166
:204E0000330280913402909135020E948AE1AB01BC018FEB95E00E94E8A22CE933E549E4D3
:204E20005EE360912E0270912F0280913002909131020E94E9DCAB01BC018BEB95E00E94EA
:204E4000E8A28AE00E94A0A1E2C10E94A0A1F80184918F010F5F1F4F8111F7CF0AEF13E037
:204E6000F80181918F01882309F414C90E94A0A1F7CF80E50E9463AC882351F00E9424ADF4
:204E80006093A1027093A2028093A3029093A40289E40E9463AC882381F00E9424AD2CE992
:204EA00033E549E45EE30E94E9DC60939D0270939E0280939F029093A00284E40E9463AC3E
:204EC000882381F00E9424AD2CE933E549E45EE30E948AE16093990270939A0280939B02BE
:204EE00090939C02E5EBFBE184918F010F5F1F4F882321F00E94A0A1F801F6CF4091A102F3
:204F00005091A2026091A3027091A4028FEC95E00E94E8A22CE933E549E45EE360919D0288
:204F200070919E0280919F029091A0020E948AE1AB01BC018BEC95E00E94E8A22CE933E5A0
:204F400049E45EE36091990270919A0280919B0290919C020E94E9DCAB01BC0187EC95E095
:204F60000E94E8A28AE00E94A0A151C10E9426424EC12996EEADFFAD299781912996FFAF48
:204F8000EEAF2997882309F49DC0ABADBCAD8D909D90AD90BC902196EEADFFAD21972081C4
:204FA0003181428153812596AEADBFAD25976D917D918D919C910E94AEE020E030E040E0B3
:204FC0005FE30E94E9DC9B01AC01C501B4010E94D4E2181654F4F70185919591A591B491E7
:204FE000E82F792F6A2F8B2F04C0E0E070E060E080E0D6014D905D906D907C902E2F372FBE
:20500000462F582FC301B2010E94AEE0F10120813181428153810E94AEE09B01AC01C501D2
:20502000B4010E94ADE04B015C0120E030E040EA51EC0E94D4E2181654F420E030E040EA64
:2050400051E4C501B4010E9484DC87FD03C0E0EAFBE10FC0A5019401C301B2010E94ADE001
:20506000AB01BC01C8010E9427AC2CC00E94A0A1F80184918F010F5F1F4F8111F7CFE1EF18
:20508000F5E084918F010F5F1F4F882321F00E94A0A1F801F6CF61E083EE95E00E94639899
:2050A0000E942B9988E290E09A83898388EC90E099A388A3BE016F5F7F4FCE0180960E945A
:2050C00046D6A5C00F5F1F4FF4E0CF0ED11C24E0220E311C4BAD5CAD4C5F5F4F5CAF4BAFF5
:2050E00025968EAD9FAD2597049625969FAF8EAF25972196AEADBFAD219714962196BFAF11
:20510000AEAF2197B4E0EB0EF11C0330110509F030CF0E94EEB00E94DF4060E083ED95E079
:205120000E94639883E992E099A388A308EC10E01A830983BE01605E7F4FCE0101960E942D
:2051400046D68AEB92E099A388A31A830983BE01605E7F4FCE0101960E9446D658C00E9493
:205160009C3755C00E94403D52C00E9490354FC083E50E9463AC882321F00E94E2AC91E02A
:2051800089270E94713943C081E0809398021092D01183E50E9463AC882309F4A3C00E94B9
:2051A000E2AC811134C09EC000938905E5EBFBE184917F012FEFE21AF20A882321F00E94A7
:2051C000A0A1F701F5CFB80177278FE096E00E9460A28AE00E94A0A11AC0E5EBFBE184910A
:2051E0008F010F5F1F4F882321F00E94A0A1F801F6CF609197057091980581E296E00E9440
:20520000A7A182E20E94A0A18AE00E94A0A10E940A6393C081E08093490982E59FE9909378
:20522000500280934F0280916A008F7C806180936A00EE9AECCF0E94AB5A0C947A1C0E9412
:20524000CCD4AB01BC014093B0165093B1166093B2167093B3168FEF95E10E946353D7CF89
:205260000E94CCD4AB01BC014093B0165093B1166093B2167093B3168FEF95E10E9463536D
:205280000C94971E0E948BB888E50E9463AC882319F05F9A1092320789E50E9463AC882364
:2052A00021F08A9A479A109233078AE50E9463AC882359F09FB7F8948091080181608093F8
:2052C00008019FBF479A1092340785E40E9463AC882309F49CCF129A9ACF0E948BB80E94E0
:2052E000656295CF0E94296392CF0E948BB8D02E60E0802F0E94D7C83FEFE316F30659F474
:20530000802F0E9481C831E020E0892B09F030E0032F122F05C0EA94EF2861F401E010E032
:205320008D2D0E9481C88017910709F470CF0E94AB5AF6CF00E010E0F3CFC659DF4F0FB64D
:20534000F894DEBF0FBECDBFDF91CF911F910F91FF90EF90DF90CF90BF90AF909F908F90F3
:205360007F906F905F904F903F902F9008952F923F924F925F926F927F928F929F92AF921D
:20538000BF92CF92DF92EF92FF920F931F93CF93DF93CDB7DEB76E970FB6F894DEBF0FBED7
:2053A000CDBF809128079091290703976CF562EC262E66E0362E8E010F5F1F4F70E6872E13
:2053C0007AEE972EA12CB12C84EE93E10E948BC218161906CCF480912807909129070497E8
:2053E0009CF484EE93E10E944FC220912307309124078A3019F08D3009F045C021153105D3
:2054000009F04DC0109225078091280790912907009791F0019790932907809328078091D1
:205420001B0790911C07019664E070E00E948AE390931C0780931B078091260790912707C4
:2054400081389E4310F40C9465351092270710922607E9E5F8E084918F01882351F0082E68
:20546000000C990B0E945CBC0F5F1F4FF8018491F4CF8DE090E00E945CBC8AE090E00E9402
:205480005CBC0C9465358A3329F490912507992309F4B4CF2F3531050CF45AC7AFCF80910D
:2054A00021079091220750E6752E789E6001799ED00C1124C60185569A4F7C01FC01E20F0C
:2054C000F31F10828091250781113DC7109225076EE470E0C7010E9401E4009709F451C0F1
:2054E00090939A05809399058E199F098C0D9D1D4AE050E060E070E084569A4F0E94B3D9BC
:2055000060938405709385058093860590938705C090510AD090520AE090530AF090540A23
:20552000A70196012F5F3F4F4F4F5F4FC0902107D0902207621773078407950709F429C7BC
:205540007C9CC0017D9C900D112464E578E085569A4F0E9434DC892B09F01BC7EFE4F8E036
:2055600084918F01882351F0082E000C990B0E945CBC0F5F1F4FF8018491F4CF0E9470A19A
:2055800017C06AE270E0C7010E9401E4892B29F1EFE4F8E084918F01882351F0082E000CFD
:2055A000990B0E945CBC0F5F1F4FF8018491F4CF109224071092230727CF80918405909196
:2055C0008505A0918605B09187058093510A9093520AA093530AB093540A80912107909140
:2055E000220720E6289F7001299FF00C1124C70185569A4F6C0161E470E00E9401E400979F
:2056000009F48BC690939A05809399058C199D098E0D9F1D60E070E084569A4F0E9460D8FA
:205620000E94F2E1CB01770FAA0BBB0B8433910508F073C6FC018827EE58FF4F8F4F0C94EC
:20564000B9E3E4E3F8E084917F01882359F0082E000C990B0E945CBC9FEFE91AF90AF7015A
:205660008491F3CF20E030E040E05FE360911A1370911B1380911C1390911D131FC0EFE253
:20568000F8E084917F01882359F0082E000C990B0E945CBCFFEFEF1AFF0AF7018491F3CF3A
:2056A0006091181370911913072E000C880B990B0E948ADC20E030E040E05FE30E94AEE07F
:2056C0000E94F2E17A836983C8010E94FB96BC0184EE93E10E943B938DE090E00E945CBCC6
:2056E0008AE090E00E945CBC18C6EAE2F8E084917F01882359F0082E000C990B0E945CBC6B
:20570000FFEFEF1AFF0AF7018491F3CF20E030E040E05FE36091DA117091DB118091DC1181
:205720009091DD11CBCFE5E2F8E084917F01882359F0082E000C990B0E945CBCFFEFEF1A01
:20574000FF0AF7018491F3CF6091461770914717ABCF209144173091451744E6429FC00155
:20576000439F900D112462EB70E00E9476E37B01FFEFEF1AFF0A25E6E216F10418F044E637
:20578000E42EF12CE0E2F8E084916F01882359F0082E000C990B0E945CBC8FEFC81AD80AE5
:2057A000F6018491F3CFB70180E090E003C4ECE1F8E084917F01882359F0082E000C990BB8
:2057C0000E945CBCFFEFEF1AFF0AF7018491F3CF80E290E00E945CBCE8E1F8E084917F017E
:2057E000882359F0082E000C990B0E945CBCFFEFEF1AFF0AF7018491F3CF6091410770910C
:205800004207809143079091440742E00E94148B80E290E00E945CBCE4E1F8E084917F0157
:20582000882359F0082E000C990B0E945CBCFFEFEF1AFF0AF7018491F3CF609145077091C7
:205840004607809147079091480742E00E94148B80E290E00E945CBCE0E1F8E084917F010F
:20586000882359F0082E000C990B0E945CBCFFEFEF1AFF0AF7018491F3CF60914907709183
:205880004A0780914B0790914C0742E00E94148BA0C280913414882309F487C0EBE0F8E030
:2058A00084917F01882359F0082E000C990B0E945CBCFFEFEF1AFF0AF7018491F3CF8091DF
:2058C0007807813081F520914E0930914F094091500950915109A4E6B0E00E9494E02091BB
:2058E0004A0930914B0940914C0950914D090E9472E084E690E0821B930B9F938F938BE01B
:2059000094E09F938F931F930F930E9453E4B80184EE93E10E943B930F900F900F900F9007
:205920000F900F90D9CE80913514882361F120910216222321F18091AC169091AD16A09123
:20594000AE16B091AF160097A105B105B9F0BC01CD016D597F4F8F4F9F4F24E630E040E0BC
:2059600050E00E9472E06091B0167091B1168091B2169091B3160E9472E001C020E030E0FC
:205980003A832983A1CEE4E3F6E084917F01882309F4A2CE082E000C990B0E945CBCFFEF57
:2059A000EF1AFF0AF7018491F2CFE3E0F8E084917F01882309F490CE082E000C990B0E9449
:2059C0005CBCFFEFEF1AFF0AF7018491F2CFEEEFF7E084917F01882359F0082E000C990BBE
:2059E0000E945CBCFFEFEF1AFF0AF7018491F3CFC0901D07D0901E07E0901F07F0902007E8
:205A0000C114D104E104F10409F47BC080913414882309F476C00E944BC9A50194010E9400
:205A200072E029013A01C701B601A50194010E9472E07201E21AF30AC7016CE370E00E948C
:205A400076E3CB019927EAE0F0E0BF010E948AE3282FCB01BF010E948AE3805D80932917D6
:205A6000205D20932A1710922B1769E277E184EE93E10E943B9380E290E00E945CBCECEF71
:205A8000F7E084916F01882359F0082E000C990B0E945CBCFFEFCF1ADF0AF6018491F3CF88
:205AA00080E290E00E945CBCC7016CE370E00E9476E36AE070E00E948AE3605D609329175F
:205AC000805D80932A1710922B1769E277E184EE93E10E943B9380E290E00E945CBCEAEF53
:205AE000F7E084917F01882309F4F6CD082E000C990B0E945CBCFFEFEF1AFF0AF701849122
:205B0000F2CF80E290E00E945CBCE2EFF7E084917F01882309F4E0CD082E000C990B0E941E
:205B20005CBCFFEFEF1AFF0AF7018491F2CF1092CC111092CB118091090180FF12C0EEEE3A
:205B4000F7E084917F01882309F4C6CD082E000C990B0E945CBCFFEFEF1AFF0AF7018491F1
:205B6000F2CF0E942DA11092420283E50E9445A1882341F00E9460A10E94F7E17093CA1147
:205B80006093C911EAEEF7E084917F01882359F0082E000C990B0E945CBCFFEFEF1AFF0A60
:205BA000F7018491F3CF8DE090E00E945CBC8AE090E00E945CBC0E94A390E6EEF7E0849156
:205BC0007F01882309F488CD082E000C990B0E945CBCFFEFEF1AFF0AF7018491F2CF8091C9
:205BE0003414882309F43CC081E080937B078093FE088093760910923414E2EEF7E0849172
:205C00007F01882359F0082E000C990B0E945CBCFFEFEF1AFF0AF7018491F3CF8DE090E0C4
:205C20000E945CBC8AE090E00E945CBC80917807813009F072C32C9880935707EEEDF7E0C0
:205C400084917F01882309F447CD082E000C990B0E945CBCFFEFEF1AFF0AF7018491F2CF85
:205C6000EAEDF7E084917F01882309F435CD082E000C990B0E945CBCFFEFEF1AFF0AF7019F
:205C80008491F2CF80917609882309F446C3109257070E947D4CE6EDF7E084917F01882398
:205CA00009F41ACD082E000C990B0E945CBCFFEFEF1AFF0AF7018491F2CF10927A0780915E
:205CC0003414811105C080917609882309F425C380917807813039F42C9810927807109210
:205CE0007A07109257071092470910923414109276091092560A8FEF95E10E9431538FEF8C
:205D000095E10E947A5910923314109232140E949340E8E3F6E084917F01882359F0082EF2
:205D2000000C990B0E945CBCFFEFEF1AFF0AF7018491F3CF8DE090E00E945CBC8AE090E0B9
:205D40000E945CBC5F9A109232078A9A479A109233079FB7F89480910801816080930801DB
:205D60009FBF479A10923407129A82ED97E090937809809377090E9493B08DEC97E0909346
:205D80007809809377090E9493B010921913109218130E949FB81092471710924617809166
:205DA000DE118093FC081092FD08B7C20E948EA1811157C380917609882309F4B2C351C37F
:205DC00060916A0970916B0980E090E04AE00E94D18A80E290E00E945CBC7ECC1092550A1C
:205DE0000E948EA1811105C080917609882309F410C480917907813009F40BC480917509D2
:205E0000813009F08AC205C40E948EA1811164CC80917609882309F41AC45ECC83E50E94E6
:205E200045A181113CC483E40E9445A1882309F474C20E948EA1882309F431C46EC283E517
:205E40000E9445A1882309F468C20E9460A120E030E0A9010E9484DC87FD0FC00E9460A193
:205E600020E030E046E153E40E94D4E2181644F00E9460A10E94F7E105C060E070E002C0C6
:205E800066E970E0709347176093461746C283E50E9445A18823D1F00E9460A120E030E09B
:205EA00042E353E40E94E9DC20E030E048EC52E40E948AE10E94F7E1633B710510F062EBBD
:205EC00070E0709345176093441706CC82EB90E09093451780934417FFCB8091560781115F
:205EE000FBCB809134148111F7CB0E9493405F9A109232078A9A479A109233079FB7F89423
:205F0000809108018160809308019FBF479A10923407129AE1CB83E50E9445A1882319F151
:205F20000E9460A120E030E040E252E40E9484DC87FD0FC00E9460A120E030EC49E754E4DA
:205F40000E94D4E2181644F00E9460A10E94F2E105C068E270E002C067EE73E07093180289
:205F600060931702DAC1E0ECF7E084917F01882359F0082E000C990B0E945CBCFFEFEF1AB7
:205F8000FF0AF7018491F3CFC0901702D09018020D2C000CEE08FF08F7FE0EC06DE284EE80
:205FA00093E10E941F9366277727CB016C197D098E099F094AE003C04AE0C701B6010E94A0
:205FC000D18A8ACB0E948EA18111A7C180917609882309F488C3A1C10E948EA181117CCBB7
:205FE00080917609882309F4B9C376CB0E948EA1811193C180917609882309F407C58DC1A3
:206000000E948EA1811189C180917609882309F41EC583C10E948EA181117FC18091760941
:20602000882309F435C579C10E94E38B8091090180FF73C1E5E1F7E084917F01882309F4CC
:206040004BCB082E000C990B0E945CBCFFEFEF1AFF0AF7018491F2CF8FE40E9445A181112F
:206060003BCB83E40E9445A137CBE9E3F8E084917F012FEFE21AF20A882321F00E94A0A13B
:20608000F701F5CF1092890A48C1E0E1F7E084917F01882359F0082E000C990B0E945CBC45
:2060A0008FEFE81AF80AF7018491F3CFE9E0F7E084917F01882309F40FCB082E000C990BF2
:2060C0000E945CBCFFEFEF1AFF0AF7018491F2CF81E08093790721C1109279071EC183E5F9
:2060E0000E9445A1882351F00E9469A1892B21F081E08093710902C01092710983E50E94E5
:2061000045A1882309F409C10E9469A1009719F41092720902C1019709F0FFC081E0809333
:206120007209FBC083E50E9445A1882309F4F5C00E9469A180937409F0C083E50E9445A100
:20614000882309F4EAC00E9460A160935A0970935B0980935C0990935D0982E4E82E84E0AC
:20616000F82EF70181917F01882319F00E94A0A1F8CF60915A0970915B0980915C099091C1
:206180005D0942E00E9477A28AE00E94A0A1C5C083E50E9445A1882309F4BFC00E9460A130
:2061A00060935609709357098093580990935909B4C083E50E9445A1882309F4AEC00E9415
:2061C00060A160935E0970935F098093600990936109A3C083E50E9445A1882309F49DC098
:2061E0000E9460A16093620970936309809364099093650992C083E50E9445A1882309F434
:206200008CC00E9469A1009719F41092730985C0019709F082C081E0809373097EC00E94DC
:206220002AA07BC08091550A811104C081E08093550A73C01092550A2C986FC088E40E948B
:2062400045A1882399F08EEF96E090937809809377090E9493B08DEE96E09093780980936D
:2062600077090E9493B08FED96E045C089E40E9445A1882389F084ED96E09093780980930B
:2062800077090E9493B030927809209277090E9493B084EB96E02FC08AE40E9445A18823CA
:2062A00099F0E9EAF6E0F0937809E09377090E9493B086E996E090937809809377090E9412
:2062C00093B0E8E8F6E023C08BE40E9445A18823B9F08DE796E090937809809377090E94E4
:2062E00093B0EBE6F6E0F0937809E09377090E9493B08DE596E090937809809377090BC0EE
:206300008CE40E9445A1882341F0E5E4F6E0F0937809E09377090E9493B0809121079091D4
:206320002207019664E070E00E948AE3909322078093210780912807909129070196909328
:2063400029078093280710922407109223073CC88B3319F491E090932507909125079111B4
:2063600033C86091210770912207A9014F5F5F4F509324074093230790E6969FA001979F4C
:20638000500D112445565A4FFA01E20FF31F80831BC880E68C9D70018D9DF00C1124C70120
:2063A00085569A4F6C016AE270E00E9401E4009789F4EFE4F8E084918F01882309F4DEC8D7
:2063C000082E000C990B0E945CBC0F5F1F4FF8018491F3CF40E0712C9601F901E40FF11D22
:2063E00050815A3219F04F5F7526F7CF90939A05809399058C199D098E0D9F1D60E070E083
:2064000084569A4F0E9460D80E94F2E1272D30E02617370709F4D1C80FE418E0F8018491FC
:206420007801882359F0082E000C990B0E945CBCFFEFEF1AFF0AF7018491F3CF0E9470A1CD
:20644000F80184910FE418E0882309F497C8082E000C990B0E945CBC0F5F1F4FF8018491B2
:20646000F3CF0E948EA1882309F457CF80917907813009F052CF33E1E32E34E0F32EF7010D
:2064800081917F01882319F00E94A0A1F8CF8AE00E94A0A181E08093890AE0909905F0902A
:2064A0009A056AE270E0C70104960E9401E46C01F70181917F01882319F00E94A0A1F8CF63
:2064C0008AE00E94A0A1C114D10419F0F601319710821092570A6091990570919A056C5F6E
:2064E0007F4F87E59AE00E94F6E327E5E22E2AE0F22EF70181917F01882319F00E94A0A106
:20650000F8CF8AE00E94A0A191E3E92E94E0F92EF70181917F01882309F436CE0E94A0A128
:20652000F7CFC0909905D0909A05760194E0E90EF11C6AE270E0C7010E9401E4009719F02E
:20654000FC0131971082109275096EE074E0C6010E9439E4892B19F081E08093750940E0CD
:2065600061E0C7010E94ED4C81E08093560A8DE090E00E945CBC8AE090E00E945CBC809127
:206580007509813009F0C9CEE0E4F6E084917F01882359F0082E000C990B0E945CBCFFEF8B
:2065A000EF1AFF0AF7018491F3CF80E290E00E945CBCEEE3F6E084917F01882359F0082E08
:2065C000000C990B0E945CBCFFEFEF1AFF0AF7018491F3CF609168097091690980E090E0DD
:2065E0004AE00E94D18A80E290E00E945CBCECE3F6E084917F01882309F4E2CB082E000C17
:20660000990B0E945CBCFFEFEF1AFF0AF7018491F2CF0E947D4C0E944BC960931D07709313
:206620001E0780931F0790932007E9ECF7E084917F01882309F450C8082E000C990B0E9429
:206640005CBCFFEFEF1AFF0AF7018491F2CF80913514882319F081E08093470981E080930E
:206660007C050E947D4C0E944BC960931D0770931E0780931F0790932007E6ECF7E08491F8
:206680007F01882309F428C8082E000C990B0E945CBCFFEFEF1AFF0AF7018491F2CF0E94D2
:2066A00060A120E030E0A9010E9484DC87FD12C00E9460A120E030E849E853E40E94D4E24C
:2066C00018162CF00E9460A10E94F7E105C063E171E002C060E070E070931913609318135A
:2066E0000E949FB81ACE88E50E9445A1811113C089E50E9445A181110EC08AE50E9445A112
:20670000811109C083E40E9445A1882309F405CE8AEA97E0F0CD88E50E9445A1882341F03B
:206720008AEB97E090937809809377090E9493B089E50E9445A1882341F084EB97E0909376
:206740007809809377090E9493B08AE50E9445A1882309F4E2CD8EEA97E0CDCD86E40E945D
:2067600045A1882309F44FC10E9460A10E94F7E17B0182E40E9445A1811108C086EA97E0B3
:2067800090937809809377090E9493B088E50E9445A1882309F43EC00E9460A12B013C0136
:2067A0002DEC3CEC4CE45EE30E9484DC181674F020E030E0A901C301B2010E94D4E21816DC
:2067C0002CF4FF92EF928BE997E004C12DEC3CEC4CEC5DEBC301B2010E9484DC18167CF003
:2067E00020E030E040E85FEBC301B2010E94D4E218162CF4FF92EF928FE897E0EBC0FF92BE
:20680000EF92C301B2010E94F2E17F936F9385E897E090C089E50E9445A1882309F43EC027
:206820000E9460A12B013C012DEC3CEC4CE45EE30E9484DC181674F020E030E0A901C30188
:20684000B2010E94D4E218162CF4FF92EF928AE797E0C0C02DEC3CEC4CEC5DEBC301B2012D
:206860000E9484DC18167CF020E030E040E85FEBC301B2010E94D4E218162CF4FF92EF92CB
:206880008EE697E0A7C0FF92EF92C301B2010E94F2E17F936F9384E697E04CC08AE50E9496
:2068A00045A1882309F455C00E9460A12B013C01C70165E070E00E9476E3F62EE72E2DEC7F
:2068C0003CEC4CE45EE3C301B2010E9484DC181674F020E030E0A901C301B2010E94D4E28B
:2068E00018162CF4EF92FF9289E597E073C02DEC3CEC4CEC5DEBC301B2010E9484DC1816B8
:206900007CF020E030E040E85FEBC301B2010E94D4E218162CF4EF92FF928DE497E05AC058
:20692000EF92FF92C301B2010E94F2E17F936F9383E497E09F938F931F930F930E9456DCEB
