:100000000C947B110C94E7710C94BC710C9491715D
:100010000C9466710C943B710C9410710C94E57007
:100020000C94BA700C94AC110C94AC110C94AC11EF
:100030000C94AC110C947E6F0C94AC110C94AC111C
:100040000C94AC110C94A47C0C94AC110C94AC11D9
:100050000C94AC110C94AC110C94819F0C947070A6
:100060000C94AC110C9401A60C94AC110C94AC1132
:100070000C94AC110C94AC110C94AC110C94AC110C
:100080000C94AC110C94AC110C94AC110C94AC11FC
:100090000C94AC110C94AC110C94AC110C94AC11EC
:1000A0000C94AC110C94AC110C94AC110C94AC11DC
:1000B0000C94AC110C94AC110C94AC110C94AC11CC
:1000C0000C94AC110C94AC110C94AC110C94AC11BC
:1000D0000C94AC110C94AC110C9455BA0C9416BA47
:1000E0000C94AC1178309630CC30EA3000312E319F
:1000F0009D313E32F3324B339E33B933E8363134DF
:1001000049345F3469347A34A234C834E6343D3536
:10011000473551355B3565356F35E8368735E83617
:10012000E836E8369035A035C335C735CA35D935F8
:10013000ED35F83523363436453656366A36E836E8
:10014000E836E836E83675366D367936646E676EB1
:10015000566E5A6E606E9E6E6B6E6F6E756E796EB9
:100160007D6E836E876E8B6E9E6E916E956E996EB0
:1001700088988D9892989C98A6981F99B098B8984E
:10018000C098CA98D498DE98ED98F7981F9901996D
:100190000B99159914A024A043A053A06EA073A09E
:1001A00076A07BA07EA083A086A08BA095A0084A05
:1001B000D73B3BCE016E84BCBFFDC12F3D6C74317B
:1001C0009ABD56833DDA3D00C77F11BED9E4BB4CD2
:1001D0003E916BAAAABE000000803F05A84CCDB29C
:1001E000D44EB93836A9020C50B9918688083CA67D
:1001F000AAAA2ABE000000803F004E414E494E4947
:100200005459494E46CDCCCC3D0AD7233C17B7D1E3
:100210003877CC2B329595E6241FB14F0A00002089
:10022000410000C84200401C4620BCBE4CCA1B0E08
:100230005AAEC59D74434F4D4D554E4943415449A7
:100240004F4E0044525952554E004552524F525350
:1002500000494E464F004543484F0047322F473331
:100260002062616420706172616D65746572730AE9
:1002700000536C6565702E2E2E004A3034003344D6
:10028000205072696E7465722072656164792E0007
:10029000526573756D696E67207072696E74005770
:1002A00061697420666F7220757365722E2E2E0040
:1002B0004E6F206D6F76652E00456E642066696C0A
:1002C00065206C6973740A00426567696E2066690F
:1002D0006C65206C6973740A005344207072696EF7
:1002E00074696E67206279746520004E6F742053C4
:1002F00044207072696E74696E670A0046696C65A5
:100300002064656C657465643A0044656C65746965
:100310006F6E206661696C65642C2046696C653A75
:1003200020006F70656E206661696C65642C2046E4
:10033000696C653A20002569730025696D2025697F
:1003400073002569682025696D202569730025697A
:1003500064202569682025696D2025697300256959
:100360007920256964202569682025696D20256923
:1003700073005072696E742074696D653A2000488C
:10038000656174696E672E2E2E00334420507269A9
:100390006E7465722072656164792E005602510296
:1003A0004A02430235026F66660044454255473AA9
:1003B000004B494C4C45442E20006F6B004A3033B3
:1003C000004A3034004A30370048656174696E670E
:1003D00020646F6E652E003F0A0020573A004A30B5
:1003E000360048656174696E672E2E2E00334420F6
:1003F0005072696E7465722072656164792E004274
:10040000656420646F6E652E004A3039003F0A0033
:1004100020573A004265642048656174696E672E12
:10042000004A3038003344205072696E746572207F
:100430004F66662E004649524D574152455F4E4128
:100440004D453A4D61726C696E20312E312E302D42
:1004500052433820284769746875622920534F55E4
:100460005243455F434F44455F55524C3A6874745C
:1004700070733A2F2F6769746875622E636F6D2FE2
:100480004D61726C696E4669726D776172652F4D50
:1004900061726C696E2050524F544F434F4C5F56FF
:1004A000455253494F4E3A312E30204D4143484931
:1004B0004E455F545950453A3344205072696E742A
:1004C00065722045585452554445525F434F554E2E
:1004D000543A3120555549443A6365646532613276
:1004E000662D343161322D343734382D3962313252
:1004F0002D6335356336326633363766660A007AE1
:10050000325F6D696E3A20007A5F6D696E3A200045
:10051000795F6D696E3A2000785F6D696E3A2000F0
:100520005265706F7274696E6720656E6473746F64
:1005300070207374617475730A004D313435205323
:100540003C696E6465783E206F7574206F6620721A
:10055000616E67652028302D31290A005365747457
:10056000696E672054726176656C20416363656CC7
:1005700065726174696F6E3A200053657474696EB8
:1005800067205265747261637420416363656C65B2
:10059000726174696F6E3A200053657474696E6796
:1005A000205072696E7420416363656C657261747A
:1005B000696F6E3A200053657474696E67205072DB
:1005C000696E7420616E642054726176656C20419E
:1005D0006363656C65726174696F6E3A20005A20BE
:1005E000456E6473746F702041646A7573746D65D1
:1005F0006E742073657420746F20286D6D293A0025
:1006000023646566696E65202044454641554C5417
:100610005F4B64200023646566696E652020444555
:100620004641554C545F4B69200023646566696EF2
:1006300065202044454641554C545F4B7020005086
:100640004944204175746F74756E652066696E69E2
:1006500073686564212050757420746865206C612E
:100660007374204B702C204B6920616E64204B64A6
:1006700020636F6E7374616E74732066726F6D2089
:1006800062656C6F7720696E746F20436F6E666968
:100690006775726174696F6E2E680A005049442054
:1006A0004175746F74756E65206661696C6564214F
:1006B0002074696D656F75740A0050494420417556
:1006C000746F74756E65206661696C656421205471
:1006D000656D706572617475726520746F6F2068E6
:1006E0006967680A00204B643A2000204B693A2071
:1006F00000204B703A20000A20436C6173736963D9
:1007000020504944200A002054753A2000204B759F
:100710003A2000206D61783A2000206D696E3A2001
:100720000020643A200020626961733A20004F661D
:100730006673657473206170706C696564004572DE
:10074000723A20546F6F206661722100546F6F20DF
:100750006661722066726F6D207265666572656E85
:10076000636520706F696E740A0041637469766511
:100770002045787472756465723A2000556E6B6E10
:100780006F776E20636F6D6D616E643A2022004A50
:100790003032004A313600480057004134355600A7
:1007A00047312058313030205931303020205A35EF
:1007B00030204635303030004731205A302E313528
:1007C00020463330300047312058333020593139FA
:1007D00030204635303030004731205A35204635FC
:1007E0003030004731205A302E31352046333030FA
:1007F00000473120583139302059313930204635C1
:10080000303030004731205A3520463530300047EF
:1008100031205A302E3135204633303000473120D8
:100820005831393020593330204635303030004788
:1008300031205A352046353030004731205A302E8D
:10084000313520463330300047312058333020597D
:100850003330204635303030004731205A3520467D
:100860003530300056312E322E39004A33332000D5
:100870004A3032004A313200473930004731204592
:1008800025694635303000473120452D302E314620
:1008900025690047312045302E3146256900473112
:1008A000205A2569462569004731205A2D302E31BE
:1008B000462569004731205A302E314625690047C8
:1008C000312059256946256900473120592D302EA0
:1008D000314625690047312059302E3146256900BF
:1008E00047312058256946256900473120582D3069
:1008F0002E314625690047312058302E3146256972
:10090000004739310047323800473238205A004713
:1009100032382059004732382058004132305620B2
:10092000004F4B004A3036004D313037004D3834DF
:10093000004A3034004A3136004A3138004A3035F6
:1009400000454E4400464E20004A303200393939C5
:100950003A393939004D00480041375620004136B8
:1009600056202D2D2D0041365620005A3A20005990
:100970003A2000583A2000413556004134562000B4
:10098000413356200041325620004131562000416B
:100990003056200073746F70207072696E74206E10
:1009A000657874206D6F6465200045525220004DBB
:1009B000313130004A3130004B494C4C45442E20F7
:1009C00000202D20496E76616C6964206578747210
:1009D00075646572206E756D62657220210A002053
:1009E00020506C616E6E6572427566666572427902
:1009F0007465733A20002046726565204D656D6F01
:100A000072793A2000436F6D70696C65643A204ECC
:100A10006F7620323520323032300A00207C20417F
:100A20007574686F723A20284A6F6C6C792C207844
:100A3000787878787878782E434F2E290A003230EB
:100A400031362D31322D30362031323A30300020DF
:100A50004C61737420557064617465643A20003190
:100A60002E312E302D5243380A0056312E322E3977
:100A70000A0020536F667477617265205265736552
:100A8000740A00205761746368646F67205265734D
:100A900065740A002042726F776E206F7574205261
:100AA000657365740A002045787465726E616C2008
:100AB00052657365740A00506F77657255700A004D
:100AC0004A3132004A31370073746172740A004748
:100AD00031205A2B323020452D3500473120452D0D
:100AE0003500473931006572726F72207772697410
:100AF000696E6720746F2066696C650A004A31323E
:100B0000004A3033004731205A25692046353030BD
:100B100000473238004A3330004A3330004A323915
:100B2000004A3239004A313800446F6E65207361E3
:100B300076696E672066696C652E0A004D32390051
:100B40004D6F76652058004D6F76652059004D6FCA
:100B50007665205A00457874727564657200457830
:100B6000747275646572004D6F7665205A004D6F22
:100B700076652059004D6F76652058004D6F76657B
:100B80002061786973004D6F766520302E316D6D70
:100B9000004D6F766520316D6D004D6F76652031AB
:100BA000306D6D00507265706172650052657374CE
:100BB0006F7265206661696C73616665004C6F6178
:100BC00064206D656D6F72790053746F7265206D6E
:100BD000656D6F72790046696C616D656E74004D6C
:100BE0006F74696F6E0054656D70657261747572B3
:100BF00065004D61696E00507265686561742041E1
:100C0000425320636F6E66005072656865617420A0
:100C1000504C4120636F6E66005049442D44005093
:100C200049442D44005049442D49005049442D4920
:100C3000005049442D50005049442D5000200220BE
:100C40004661637400200220466163740020022024
:100C50004D6178002002204D6178002002204D690E
:100C60006E002002204D696E004F6666004F6E20B8
:100C7000004175746F74656D700046616E2073700D
:100C80006565640046616E20737065656400426549
:100C90006400426564004E6F7A7A6C65004E6F7A2C
:100CA0007A6C6500436F6E74726F6C0053746F7270
:100CB00065206D656D6F7279004265640042656400
:100CC000004E6F7A7A6C65004E6F7A7A6C650046DA
:100CD000616E2073706565640046616E2073706597
:100CE00065640054656D7065726174757265004568
:100CF00072726F722077726974696E6720746F20E8
:100D0000454550524F4D210A002062797465732980
:100D10000A0053657474696E67732053746F72654B
:100D200064202800454550524F4D20636865636B31
:100D300073756D206D69736D617463680A0020625C
:100D400079746573290A002073746F726564207367
:100D5000657474696E67732072657472696576650F
:100D60006420280048617264636F64656420446590
:100D70006661756C742053657474696E6773204C7A
:100D80006F616465640A0020204D323030204430A9
:100D90000A0020204D323030204400204469736125
:100DA000626C65640A0046696C616D656E742073DF
:100DB000657474696E67733A00204400204900200E
:100DC000204D3330312050005049442073657474F5
:100DD000696E67733A0A00204600204200204800EE
:100DE00020204D3134352053004D617465726961A6
:100DF0006C2068656174757020706172616D6574D6
:100E00006572733A0A0020204D363636205A005A51
:100E10003220456E6473746F702061646A757374F8
:100E20006D656E7420286D6D293A0A00205A0020E5
:100E3000590020204D323036205800486F6D652013
:100E40006F666673657420286D6D290A0020450061
:100E5000205A002059002058002042002054002031
:100E6000204D323035205300416476616E636564F5
:100E7000207661726961626C65733A20533D4D69F9
:100E80006E20666565647261746520286D6D2F73D0
:100E9000292C20543D4D696E2074726176656C205A
:100EA000666565647261746520286D6D2F73292CE9
:100EB00020423D6D696E696D756D207365676D6566
:100EC0006E742074696D6520286D73292C20583D3F
:100ED0006D6178696D756D205859206A65726B2057
:100EE000286D6D2F73292C20205A3D6D6178696D16
:100EF000756D205A206A65726B20286D6D2F7329DD
:100F00002C2020453D6D6178696D756D2045206A06
:100F100065726B20286D6D2F73290A002054002004
:100F2000520020204D323034205000416363656C04
:100F300065726174696F6E733A20503D7072696EAC
:100F400074696E672C20523D7265747261637420FF
:100F5000616E6420543D74726176656C0A002045B0
:100F600000205A0020590020204D323031205800F6
:100F70004D6178696D756D20416363656C65726163
:100F800074696F6E20286D6D2F7332293A0A002024
:100F90004500205A0020590020204D32303320587F
:100FA000004D6178696D756D206665656472617468
:100FB000657320286D6D2F73293A0A0020450020A3
:100FC0005A0020590020204D3932205800537465B2
:100FD00070732070657220756E69743A0A004A3128
:100FE00034004D3331004D383420582059205A20D8
:100FF000450057726974696E6720746F2066696C6A
:10100000653A20004A3231006F70656E2066616972
:101010006C65642C2046696C653A20004A323100C8
:101020006F70656E206661696C65642C2046696C22
:10103000653A20004A32300046696C652073656C61
:1010400065637465640A002053697A653A20004636
:10105000696C65206F70656E65643A20004A3231B4
:10106000006F70656E206661696C65642C2046694E
:101070006C653A20002066696C653A20004E6F77F7
:1010800020002220706F73002220706172656E74E0
:101090003A2200535542524F5554494E4520434140
:1010A0004C4C207461726765743A22004B494C4C79
:1010B00045442E2000747279696E6720746F206336
:1010C000616C6C207375622D67636F64652066695F
:1010D0006C6573207769746820746F6F206D616E22
:1010E00079206C6576656C732E204D4158206C65B7
:1010F00076656C2069733A004E6F2053442063611B
:101100007264005072696E742066726F6D20534471
:101110000053746F70207072696E7400526573753D
:101120006D65207072696E74005061757365207012
:1011300072696E7400436F6E74726F6C00507265EA
:10114000706172650054756E6500496E666F20733C
:10115000637265656E00466C6F7700466C6F770052
:1011600046616E2073706565640046616E20737021
:101170006565640042656400426564004E6F7A7A7A
:101180006C65004E6F7A7A6C65005370656564001B
:101190005370656564004D61696E005072656865E5
:1011A000617420504C41204265640050726568654E
:1011B000617420504C41005072657061726500503E
:1011C0007265686561742041425320426564005035
:1011D00072656865617420414253005072657061A8
:1011E0007265004D34323800436F6F6C646F776EF8
:1011F0000050726568656174204142530050726509
:101200006865617420504C41004D38340044697366
:1012100061626C65207374657070657273004D6FE8
:10122000766520617869730053657420686F6D6519
:10123000206F6666736574730047323800417574B9
:101240006F20686F6D65004D61696E007C3C3E5E8D
:101250002B3D3F2F5B5D3B2C2A225C004739300041
:101260004731205A2D3230006175746F25692E6721
:101270000053442063617264206F6B0A006F7065D5
:101280006E526F6F74206661696C65640A00766FD8
:101290006C756D652E696E6974206661696C656434
:1012A0000A004572726F723A00534420696E697485
:1012B000206661696C0A004D3234004D32332025BE
:1012C00073004A303100436172642072656D6F763D
:1012D0006564004A3030004361726420696E736552
:1012E000727465640000002100240027002A002D8C
:1012F000003000330001010000040107010A010071
:101300000020002300260029002C002F00320000BE
:1013100001000003010601090100000A0B02090C8B
:101320000D0E08070304010000000000000000008B
:1013300000000000000000000000000000000000AD
:10134000000000000012111000000000000000006A
:101350000000000000000000000000000000004647
:10136000696C2E204469612E004F6666004F6E2026
:10137000004520696E206D6D3300436F6E74726F8F
:101380006C00052E2E004D61696E0024F4D430509F
:10139000C38E20C2A24017828B7011127A910D81E8
:1013A0006CD90AA861E108C7586607615143061E57
:1013B0004B5D05C145A7041A411104093D9803710D
:1013C0003931034036DB0265339102D43054028058
:1013D0002E1D02632CEE01752AC501B028A0011054
:1013E0002781018F2564012B244B01E0223401ACBD
:1013F000211F018D200D01801FFC00841EED009730
:101400001DDF00B81CD200E61BC600201BBC006418
:101410001AB200B219A8000A19A0006A189900D1DE
:1014200017910040178B00B516840031167E00B36B
:101430001579003A157300C7146F0058146A00EE4E
:101440001366008813630025135E00C7125B006CEF
:1014500012570015125400C111510070114F002194
:10146000114B00D61049008D104700461044000271
:10147000104200C00F4000800F3E00420F3C0006AB
:101480000F3B00CB0E3800930E37005C0E35002763
:101490000E3400F30D3200C10D3100900D300060AC
:1014A0000D2E00320D2D00050D2C00D90C2B00AE99
:1014B0000C2900850C29005C0C2700350C27000E38
:1014C0000C2600E80B2400C40B2400A00B23007D95
:1014D0000B23005A0B2100390B2100180B2000F8B8
:1014E0000A1F00D90A1E00BB0A1E009D0A1D0080AB
:1014F0000A1D00630A1C00470A1B002C0A1B00116E
:101500000A1A00F7091A00DD091900C4091900AB0D
:10151000091900920917007B091800630917004C8C
:1015200009160036091600200916000A091500F5EB
:10153000081500E0081400CC081400B8081400A432
:10154000081400900813007D0812006B081300585F
:101550000812004608120034081100230811001276
:1015600008110001081100F0071000E0071000D07A
:10157000071000C0071000B0070F00A1071000916E
:10158000070E0083070F0074070F0065070E005752
:10159000070E0049070E003B070D002E070E002026
:1015A000070D0013070D0006070D00F9060C00EDEE
:1015B000060D00E0060C00D4060C00C8060C00BCAA
:1015C000060C00B0060C00A4060B0099060C008D5A
:1015D000060B0082060B0077060B006C060B006101
:1015E000060A0057060B004C060A0042060A00389D
:1015F000060A002E060A0024060A001A060A00102F
:1016000006090007060A00FD050900F4050900EBBC
:10161000050900E2050900D9050900D0050900C740
:10162000050900BE050900B5050800AD050800A5BF
:101630000509009C050800940508008C0508008435
:101640000508007C050800740508006C05070065A6
:101650000508005D050700560508004E0507004710
:101660000507004005080038050700310507002A76
:10167000050700230507001C050600160507000FD7
:101680000507000805060002050700FB040600F533
:10169000040700EE040600E8040600E2040700DB8D
:1016A000040600D5040600CF040600C9040600C3E2
:1016B000040600BD040600B7040600B1040500AC32
:1016C000040600A6040600A00405009B040600957D
:1016D000040500900406008A0405008504050080C6
:1016E0000406007A04050075040500700405006B0B
:1016F00004050066040500610405005C040500574C
:10170000040500520405004D04050048040500438B
:101710000405003E0404003A0405003504050030C9
:101720000404002C04050027040400230405001E03
:101730000404001A04040016040500110404000D3A
:10174000040400090405000404040000040400FC6F
:10175000030400F8030400F4030400F0030400ECA5
:10176000030400E8030400E4030400E0030400DCD5
:10177000030400D8030400D4030400D0030400CC05
:10178000030400C8030300C503030024F404D920A4
:101790001BC40C5C0E9804C4095F0265077101F458
:1017A00005F900FB04B30048048700C10369005831
:1017B00003550003034500BE023A00840231005382
:1017C000022A002902250004022000E4011C00C8AE
:1017D000011900AF01170098011400840113007172
:1017E0000110006101100051010E0043010D00368F
:1017F000010B002B010B0020010B00150109000C4F
:1018000001090003010800FB000800F3000800EBD9
:10181000000700E4000600DE000600D8000600D243
:10182000000600CC000500C7000500C2000500BD91
:10183000000400B9000400B5000400B1000400ADCC
:10184000000400A9000400A5000300A20003009FFB
:101850000004009B00030098000300950002009321
:10186000000300900003008D0002008B000300883D
:101870000002008600020084000300810002007F55
:101880000002007D0002007B000200790002007768
:101890000001007600020074000200720001007175
:1018A0000002006F0002006D0001006C0002006A7F
:1018B0000001006900020067000100660001006588
:1018C000000100640002006200010061000100608C
:1018D0000001005F0002005D0001005C0001005B90
:1018E0000001005A00010059000100580001005792
:1018F0000001005600010055000100540001005392
:10190000000000530001005200010051000100508E
:101910000001004F0001004E0000004E0001004D8C
:101920000001004C0001004B0000004B0001004A88
:101930000001004900010048000000480001004784
:10194000000100460000004600010045000000457F
:101950000001004400010043000000430001004278
:101960000000004200010041000000410001004071
:101970000001003F0000003F0001003E0000003E6B
:101980000001003D0000003D0001003C0000003C63
:101990000000003C0001003B0000003B0001003A59
:1019A0000000003A00010039000000390001003851
:1019B0000000003800000038000100370000003748
:1019C000000100360000003600000036000100353E
:1019D0000000003500000035000100340000003434
:1019E0000000003400010033000000330000003329
:1019F000000100320000003200000032000100311E
:101A00000000003100000031000100300000003013
:101A1000000000300001002F0000002F0000002F08
:101A20000000002F0001002E0000002E0000002EFC
:101A30000001002D0000002D0000002D0000002DF1
:101A40000001002C0000002C0000002C0000002CE5
:101A50000001002B0000002B0000002B0000002BD9
:101A60000001002A0000002A0000002A0000002ACD
:101A700000010029000000290000002900000029C1
:101A800000000029000100280000002800000028B4
:101A900000000028000000280001002700000027A7
:101AA000000000270000002700000027000100269A
:101AB000000000260000002600000026000000268E
:101AC0000001002500000025000000250000002581
:101AD0000000002500000025000100240000002473
:101AE0000000002400000024000000240001002366
:101AF000000000230000002300000023000000235A
:101B0000000000230000002300010022000000224A
:101B1000000000220000002200000022000000223D
:101B20000001002100000021000000210000002130
:101B30000000002100000021000000210001002021
:101B40000000002000000020000000200000002015
:101B50000000002000000020000000200001001F05
:101B60000000001F0000001F0000001F0000001FF9
:101B70000000001F0000001F0001001E0000001EEA
:101B80000000001E0000001E0000004D38342058E8
:101B90002059205A20450020496E76616C696420E6
:101BA0006578747275646572200000005743000008
:101BB000574300004E4300000000000000000000FA
:101BC00000002042403A0020403A00202F002042EE
:101BD0003A00202F0020543A00205A3A0020593A67
:101BE0000020436F756E7420583A200020453A005B
:101BF000205A3A0020593A00583A00205A002059F9
:101C000000580020204D61783A2000205A002059C9
:101C100000580020204D696E3A20004F6E20004F82
:101C2000666600536F667420656E6473746F7073BC
:101C30003A200020643A0020693A0020703A0010EF
:101C400000C90210012C014001220170011801B0ED
:101C5000010E01F00104015002FA00B002F0003060
:101C600003E600D003DC009004D2007005C800A099
:101C700006BE000008B400B009AA00D00BA00060A6
:101C80000E960060118C000015820020197800C0AB
:101C90001D6E00A0226400B0275A00902C50000056
:101CA000314600E0343C0010383200903A280060A1
:101CB0003C1E00A03D1400803E0A00203F0000654D
:101CC0006E7175657565696E672022006563686F62
:101CD0003A00010210202008081020401020408007
:101CE00002010201080402010102040810204080E0
:101CF000804020100804020180040201804020106E
:101D000008040201080402010102040810204080B6
:101D10000102040810204080000022002500280055
:101D20002B002E00310034000201000005010801E3
:101D30000B0105050505070508080808020202024F
:101D40000A0A080804040404010101010101010157
:101D50000303030303030303040707070C0C0C0C22
:101D60000C0C0C0C0202020206060606060606060B
:101D70000B0B0B0B0B0B0B0B023420793D003320AC
:101D8000783D003220793D003120783D00473238DF
:101D9000205830205930004A3135004A3233004B48
:101DA000494C4C45442E20004B494C4C45442E2078
:101DB000004572723A204D415854454D50204245DD
:101DC00044004572723A204D415854454D50004DE3
:101DD000415854454D502074726967676572656457
:101DE000004572723A204D494E54454D50204245AF
:101DF00044004572723A204D494E54454D50004DB5
:101E0000494E54454D502074726967676572656428
:101E1000004A3130004A31300025753A253032759C
:101E200000253032753A25303275002D2D2D0053A6
:101E300044005A00590058000120000120004800C9
:101E40004700460045004400430042004100413441
:101E50003456004573746570732F6D6D004573744F
:101E60006570732F6D6D005A73746570732F6D6D8F
:101E7000005A73746570732F6D6D005973746570BB
:101E8000732F6D6D005973746570732F6D6D0058ED
:101E900073746570732F6D6D005873746570732F54
:101EA0006D6D00412D74726176656C00412D747208
:101EB0006176656C00412D726574726163740041D6
:101EC0002D7265747261637400416D617820450004
:101ED000416D6178204500416D6178205A00416D67
:101EE0006178205A00416D6178205900416D617818
:101EF000205900416D6178205800416D617820586B
:101F0000005654726176206D696E00565472617687
:101F1000206D696E00566D696E00566D696E0056D3
:101F20006D6178204500566D6178204500566D61E1
:101F300078205A00566D6178205A00566D617820DD
:101F40005900566D6178205900566D61782058000F
:101F5000566D617820580056652D6A65726B005683
:101F6000652D6A65726B00567A2D6A65726B005634
:101F70007A2D6A65726B0056792D6A65726B005610
:101F8000792D6A65726B0056782D6A65726B005602
:101F9000782D6A65726B00416363656C0041636311
:101FA000656C00436F6E74726F6C00506C6561738A
:101FB00065207265736574005052494E5445522035
:101FC00048414C544544005072696E7465722068F3
:101FD000616C7465642E206B696C6C2829206361C8
:101FE0006C6C6564210A0000000000000000000025
:101FF0000000005761726E696E673A20486F6D6924
:102000006E672042756D702044697669736F722027
:102010003C20310A000000A0400000A04000000069
:1020200040000057430000574300004E43FFFFFFAE
:1020300053442072656164206572726F720A0044B5
:102040006F6E65207072696E74696E672066696C68
:10205000650A004E6F204C696E65204E756D626595
:1020600072207769746820636865636B73756D2C83
:10207000204C617374204C696E653A20004B494CCA
:102080004C45442E200053544F505045442E2000C0
:102090005072696E7465722073746F70706564201D
:1020A00064756520746F206572726F72732E20469E
:1020B000697820746865206572726F7220616E6441
:1020C00020757365204D39393920746F207265731E
:1020D000746172742E202854656D70657261747518
:1020E00072652069732072657365742E2053657460
:1020F0002069742061667465722072657374617200
:1021000074696E67290A004E6F20436865636B73BC
:10211000756D2077697468206C696E65206E756DC9
:102120006265722C204C617374204C696E653A2094
:1021300000636865636B73756D206D69736D6174A1
:1021400063682C204C617374204C696E653A2000E2
:102150004C696E65204E756D626572206973206EE4
:102160006F74204C617374204C696E65204E756DE0
:102170006265722B312C204C617374204C696E6542
:102180003A20004D313130006265640A002C207322
:10219000797374656D2073746F7070656421204865
:1021A00065617465725F49443A2000544845524D58
:1021B000414C2052554E4157415900546865726D4B
:1021C000616C2052756E61776179004A3130004848
:1021D000656174696E67206661696C656400486555
:1021E0006174696E67206661696C6564004A3130AC
:1021F0000070012C0190012701B0012201C0011DD6
:1022000001F00118011002130130020E01600209F1
:102210000190020401C002FF000003FA004003F530
:10222000008003F000D003EB002004E6007004E11E
:1022300000E004DC004005D700C005D2004006CD18
:1022400000D006C8008007C3003008BE00F008B9FF
:1022500000C009B400B00AAF00B00BAA00D00CA5B2
:1022600000000EA000500F9B00C01096005012916D
:102270000000148C00C0158700B0178200B0197DD3
:1022800000D01B7800001E730040206E0090226971
:1022900000F024640040275F0090295A00E02B558D
:1022A00000102E500020304B0010324600E0334129
:1022B0000090353C001037370070383200A0392DBF
:1022C00000B03A2800A03B2300603C1E00103D19DE
:1022D00000903D1400103E0F00703E0A00C03E0505
:1022E00000003F0000526573656E643A20006F6B1A
:1022F00000001ED394D411241FBECFEFD1E2DEBF65
:10230000CDBF00E00CBF15E0A0E0B2E0E8EDF2ECDC
:1023100001E00BBF02C007900D92AA35B107D9F7B3
:1023200027E1AAE5B5E001C01D92AE35B207E1F79D
:1023300011E1CAE7D1E100E006C021970109802F31
:10234000FE010E9492E0C937D10780E00807A9F793
:102350000E94FEC50C945BE10C9400002F923F920A
:102360004F925F926F927F928F929F92AF92BF92A5
:10237000CF92DF92EF92FF920F931F93CF93DF9351
:10238000CDB7DEB7C359D1090FB6F894DEBF0FBE83
:10239000CDBF0091F00820E6029F80011124005972
:1023A000184F10938605009385058091111680FFC4
:1023B00018C0ECECFCE184917F013FEFE31AF30AD3
:1023C000882321F00E9463A4F701F5CFD8018D91F5
:1023D0008D01882319F00E9463A4F8CF8AE00E943F
:1023E00063A42091850530918605F90180812F5FD6
:1023F0003F4F8032D1F3F0938605E09385058E340C
:1024000069F0D0908505C09086056AE270E08D2D58
:102410009C2D0E94DAE00097D1F420C0818190EDDC
:10242000980F9A3010F08D3261F73296DF013196B5
:102430002C9120532A30D0F3CD01FC01019620814C
:102440002032D9F3F0938605E0938505DACFFC01BD
:1024500031968291803231F08A3221F0AD2DBC2D3F
:102460009D9102C01082F5CFFD01808111968032CE
:10247000D9F380538A3010F00C94DE2EE12CF12C2D
:102480002AE02E9DB0012F9D700D11247B01B0E339
:10249000EB1AF1088191E80EF11C87FDFA94808116
:1024A00080538A3070F38F013196D8018C9180323D
:1024B000D1F310937E0500937D059D3411F40C94A7
:1024C000AA1A943511F40C94642C973411F00C94DE
:1024D000DE2EB5E0EB16F10409F450C660F4F4E02A
:1024E000EF16F10408F0F6C58091DD0222E0E21655
:1024F000F104F8F095C03AE5E316F10409F499C740
:1025000060F456E0E516F10409F422C68CE1E81601
:10251000F10409F4C3C60C94A42C9BE5E916F1045C
:1025200009F48BC7ACE5EA16F10409F48BC70C94E7
:10253000A42C882311F40C94A42C0E946A8B809103
:102540006A058130B1F480916C09882391F020E014
:1025500030E040EA51E4609158077091590780914A
:102560005A0790915B070E9470D987FF02C00C94B4
:10257000A42C8CE497E00E94B99A0E9458A4209160
:102580004C0730914D0740914E0750914F07609195
:1025900035077091360780913707909138070E9470
:1025A00070D981111DC02091500730915107409181
:1025B0005207509153076091390770913A07809103
:1025C0003B0790913C070E9470D9811109C060912E
:1025D00000027091010280910202909103021AC0E0
:1025E00060912A0270912B02072E000C880B990B28
:1025F0000E9476D92091000230910102409102029E
:10260000509103020E94D5D92AE037ED43E25CE302
:102610000E94D5D90E94C5890E94BB890C94A42C24
:10262000882311F40C94A42C11E0B2E0EB16F10411
:1026300009F010E00E946A8B82E50E942B8A8823B1
:1026400009F452C10E94D4BC6B017C014090350753
:1026500050903607609037077090380720913907FF
:1026600030913A0740913B0750913C072BAF3CAF6C
:102670004DAF5EAF80914C0790914D07A0914E07F2
:10268000B0914F0723968CAF9DAFAEAFBFAF2397EE
:1026900020915007309151074091520750915307B4
:1026A0002B962CAF3DAF4EAF5FAF2B9720E030E0C5
:1026B000A901C701B6010E9470D9882309F4F0C4AA
:1026C000A301920123966CAD7DAD8EAD9FAD239796
:1026D0000E9470D981110FC02BAD3CAD4DAD5EADE8
:1026E0002B966CAD7DAD8EAD9FAD2B970E9470D9B2
:1026F000882309F4D5C420E030E0A901C701B60160
:102700000E9470D9881F8827881F18130BC080E08B
:1027100090E0A0E8BFE367968CAF9DAFAEAFBFAFD0
:1027200067970AC020E030E040E85FEB67962CAF87
:102730003DAF4EAF5FAF6797A301920123966CAD9B
:102740007DAD8EAD9FAD23970E9486DD2F966CAF39
:102750007DAF8EAF9FAF2F972BAD3CAD4DAD5EAD36
:102760002B966CAD7DAD8EAD9FAD2B970E9486DD17
:1027700063966CAF7DAF8EAF9FAF63972F962CADF6
:102780003DAD4EAD5FAD2F97CA01B9010E94D5D9BD
:102790004B015C0163962CAD3DAD4EAD5FAD6397D3
:1027A000CA01B9010E94D5D99B01AC01C501B40190
:1027B0000E9487DD0E94F2DF27966CAF7DAF8EAF5F
:1027C0009FAF279720E030E040E05FE30E94D5D93B
:1027D0004B015C01A7019601C701B6010E94D5D942
:1027E0006B017C01A5019401C501B4010E94D5D9FA
:1027F0009B01AC01C701B6010E9486DD0E94F2DF99
:102800009B01AC0167966CAD7DAD8EAD9FAD6797BA
:102810000E94D5D94B015C0123962CAD3DAD4EAD48
:102820005FAD2397C301B2010E9487DD20E030E055
:1028300040E05FE30E94D5D96B017C0163966CADEB
:102840007DAD8EAD9FAD6397905827962CAD3DAD75
:102850004EAD5FAD27970E9463DE9B01AC01C501C1
:10286000B4010E94D5D99B01AC01C701B6010E94F9
:1028700087DDA30192010E9486DD6B017C012B960E
:102880002CAD3DAD4EAD5FAD2B976BAD7CAD8DAD41
:102890009EAD0E9487DD20E030E040E05FE30E94D3
:1028A000D5D92B013C0127962CAD3DAD4EAD5FAD8A
:1028B00027972F966CAD7DAD8EAD9FAD2F970E9463
:1028C00063DE9B01AC01C501B4010E94D5D99B0117
:1028D000AC01C301B2010E9487DD2BAD3CAD4DAD13
:1028E0005EAD0E9486DD14C089E40E942B8A882395
:1028F00029F00E94D4BC6B017C0103C0C12CD12CF7
:1029000076018AE40E942B8A8823D9F00E94D4BCE5
:102910006BAF7CAF8DAF9EAF20E030E0A901C70167
:10292000B6010E9470D981111AC020E030E0A901DF
:102930006BAD7CAD8DAD9EAD0E9470D981110FC085
:10294000AFC320E030E0A901C701B6010E9470D9F1
:10295000882309F4A5C31BAE1CAE1DAE1EAEA70195
:102960009601C701B6010E94D5D94B015C012BAD80
:102970003CAD4DAD5EADCA01B9010E94D5D99B01F8
:10298000AC01C501B4010E9487DD0E94F2DFAF9661
:102990006CAF7DAF8EAF9FAFAF97809135079091B1
:1029A0003607A0913707B091380727968CAF9DAFB7
:1029B000AEAFBFAF2797A7019601BC01CD010E9422
:1029C00087DD67966CAF7DAF8EAF9FAF6797209125
:1029D000390730913A0740913B0750913C072F96B9
:1029E0002CAF3DAF4EAF5FAF2F972BAD3CAD4DAD94
:1029F0005EAD2F966CAD7DAD8EAD9FAD2F970E94D5
:102A000087DD6B966CAF7DAF8EAF9FAF6B9780917C
:102A10003D0790913E07A0913F07B09140076F9608
:102A20008CAF9DAFAEAFBFAF6F979C01AD01609112
:102A300054077091550780915607909157070E944F
:102A400086DD63966CAF7DAF8EAF9FAF63972091AD
:102A500058073091590740915A0750915B07E39608
:102A60002CAF3DAF4EAF5FAFE397809141079091A0
:102A70004207A0914307B0914407A3968CAF9DAF46
:102A8000AEAFBFAFA397A7019601505823962CAFC6
:102A90003DAF4EAF5FAF23978BAD9CADADADBEAD3F
:102AA000B0582B968CAF9DAFAEAFBFAF2B97209198
:102AB0004C0730914D0740914E0750914F07A79614
:102AC0002CAF3DAF4EAF5FAFA79767962CAD3DAD36
:102AD0004EAD5FAD6797A7966CAD7DAD8EAD9FADEA
:102AE000A7970E9486DD6B017C0180915007909131
:102AF0005107A0915207B0915307AB968CAF9DAF91
:102B0000AEAFBFAFAB976B962CAD3DAD4EAD5FADED
:102B10006B97BC01CD010E9486DD4B015C01A701D2
:102B2000960123966CAD7DAD8EAD9FAD23970E942F
:102B3000D5D92B013C01A50194012B966CAD7DAD3F
:102B40008EAD9FAD2B970E94D5D99B01AC01C301DF
:102B5000B2010E9487DD2B013C01A501940123965F
:102B60006CAD7DAD8EAD9FAD23970E94D5D94B0145
:102B70005C01A70196012B966CAD7DAD8EAD9FAD2E
:102B80002B970E94D5D99B01AC01C501B4010E94CD
:102B900086DDA30192010E94FADD6B017C0120E039
:102BA00030E0A9010E9470D987FF0AC02BED3FE0F9
:102BB00049EC50E4C701B6010E9487DD6B017C013E
:102BC000112351F02BED3FE049EC50E4C701B60171
:102BD0000E9486DD6B017C0120E030E0A901C70185
:102BE000B6010E9470D981112AC0A7962CAD3DADC7
:102BF0004EAD5FADA79727966CAD7DAD8EAD9FAD09
:102C000027970E9470D981111AC0AB962CAD3DADAB
:102C10004EAD5FADAB972F966CAD7DAD8EAD9FADDC
:102C20002F970E9470D981110AC02BED3FE049EC2B
:102C300050E4C701B6010E9487DD6B017C01AF96AD
:102C40002CAD3DAD4EAD5FADAF97C701B6010E9453
:102C5000D5D99B01AC010E94D5D94B015C0163968B
:102C60002CAD3DAD4EAD5FAD6397CA01B9010E9479
:102C7000D5D99B01AC01C501B4010E9487DD0E943A
:102C8000F2DF4B015C012FE632E143E85AE30E9498
:102C900070D987FD01C2C501B4010E94FCDE0E940B
:102CA000D0DE2D967FAF6EAF2D97DB01AB2B31F4CD
:102CB000E1E0F0E02D96FFAFEEAF2D972D962EAD13
:102CC0003FAD2D97B90180E090E00E9474D94B018F
:102CD0005C019B01AC01C701B6010E9463DE27962F
:102CE0006CAF7DAF8EAF9FAF2797A5019401639620
:102CF0006CAD7DAD8EAD9FAD63970E9463DEA796F0
:102D00006CAF7DAF8EAF9FAFA797A3962CAD3DADB7
:102D10004EAD5FADA397E3966CAD7DAD8EAD9FAD2F
:102D2000E3970E9486DDA50194010E9463DEAB96C5
:102D30006CAF7DAF8EAF9FAFAB9727962CAD3DADFF
:102D40004EAD5FAD2797CA01B9010E94D5D920E0E9
:102D500030E040E05FE30E94D5D99B01AC0160E028
:102D600070E080E89FE30E9486DD63966CAF7DAFE4
:102D70008EAF9FAF63976F968CAD9DADAEADBFAD7F
:102D80006F9789879A87AB87BC87A3962CAD3DAD9B
:102D90004EAD5FADA3972D873E874F87588B6091CF
:102DA0002A0270912B02072E000C880B990B0E94AF
:102DB00076D9209100023091010240910202509197
:102DC00003020E94D5D92AE037ED43E25CE30E947A
:102DD000D5D96F966CAF7DAF8EAF9FAF6F970E94C6
:102DE00064709B01AC0128533F4F4F4F5F4FA39638
:102DF0002CAF3DAF4EAF5FAFA3974FAC21965FAC0A
:102E0000219722966FAC229723967FAC239722249A
:102E10002394312CD12C2D968EAD9FAD2D97281655
:102E2000390609F425C10E94E8C10E946470DC01E2
:102E3000CB01A3962CAD3DAD4EAD5FADA397821BEC
:102E4000930BA40BB50BB7FD10C00E9464709B01DF
:102E5000AC0128533F4F4F4F5F4FA3962CAF3DAF70
:102E60004EAF5FAFA3970E94FF92D39438E13D1518
:102E70000CF44BC063962CAD3DAD4EAD5FAD63978A
:102E80002B966CAD7DAD8EAD9FAD2B970E94D5D9A5
:102E90004B015C0127962CAD3DAD4EAD5FAD279744
:102EA000B201C3010E94D5D9A50194010E9487DD1A
:102EB0007B018C0163962CAD3DAD4EAD5FAD63974C
:102EC000B201C3010E94D5D94B015C0127962CADFC
:102ED0003DAD4EAD5FAD27972B966CAD7DAD8EAD04
:102EE0009FAD2B970E94D5D99B01AC01C501B401C0
:102EF0000E9486DD2B013C01C701D8012B968CAFC7
:102F00009DAFAEAFBFAF2B9756C0B10180E090E050
:102F10000E9474D927962CAD3DAD4EAD5FAD27977D
:102F20000E94D5D94B015C010E9460DE6B017C01DF
:102F3000C501B4010E94E8DF4B015C01A7019601C5
:102F400023966CAD7DAD8EAD9FAD23970E94D5D9F4
:102F50002B013C01A50194016BAD7CAD8DAD9EAD07
:102F60000E94D5D99B01AC01C301B2010E9487DD4B
:102F70002B013C01A501940123966CAD7DAD8EAD76
:102F80009FAD23970E94D5D94B015C01A701960103
:102F90006BAD7CAD8DAD9EAD0E94D5D99B01AC01D2
:102FA000C501B4010E9486DD2B966CAF7DAF8EAF5C
:102FB0009FAF2B97D12C9201A30167966CAD7DAD8D
:102FC0008EAD9FAD67970E9487DD69837A838B837F
:102FD0009C832B962CAD3DAD4EAD5FAD2B976B9684
:102FE0006CAD7DAD8EAD9FAD6B970E9487DD6D831F
:102FF0007E838F839887A7962CAD3DAD4EAD5FAD98
:10300000A79769857A858B859C850E9487DD69876E
:103010007A878B879C87AB962CAD3DAD4EAD5FAD6F
:10302000AB976D857E858F8598890E9487DD6D873A
:103030007E878F87988BCE0101960E94B99AC090A7
:1030400077056F96ECACFDAC0EAD1FAD6F979E0192
:10305000235F3F4FAE01475F5F4FBE016B5F7F4F06
:10306000CE0101960E9453AB4FEF241A340AD3CEFF
:10307000C09077056F96ECACFDAC0EAD1FAD6F97B1
:1030800028E537E044E557E060E577E08CE497E039
:103090000E9453AB0E94BB890E9458A40C94A42C9C
:1030A000E2EAF2E184918F010F5F1F4F882321F044
:1030B0000E9463A4F801F6CFEBE5F2E084918F0162
:1030C0000F5F1F4F882311F40C94A42C0E9463A45B
:1030D000F801F4CF80E50E942B8A882329F00E9412
:1030E000C9BC6B017C0103C0C12CD12C760183E5E6
:1030F0000E942B8A882321F00E941C8C6B017C018A
:103100000E9470C50E9458A480912D1590912E1593
:10311000A0912F15B0913015C80ED91EEA1EFB1EC6
:1031200080915402811105C060E081E792E00E9425
:103130004C760E946470DC01CB018C199D09AE09AC
:10314000BF09B7FD02C00C94A42C0E94FF92F1CFDE
:1031500083E50E942B8A882311F40C94A42C0E94EE
:103160008DBC882331F02C9A81E080936C070C94FD
:10317000A42C2C9810926C070C94A42C8C9A8091FF
:10318000F9148823C1F0EAE7F2E084918F018823E3
:1031900051F0082E000C990B0E9486920F5F1F4F72
:1031A000F8018491F4CF8DE090E00E9486928AE04D
:1031B00090E00E94869280916C09882309F468C08F
:1031C00084E190E099A388A344E0BE016F5F7F4F44
:1031D000CE0180960E942C4A44E06BE675E0CE0159
:1031E00080960E942C4A44E06AE575E0CE01809604
:1031F0000E942C4A44E06EE575E0CE0180960E9464
:103200002C4A44E062E675E0CE0180960E942C4A8A
:1032100044E066E675E0CE0180960E942C4A8091DB
:103220006B0590916C05A0916D05B0916E0585368A
:103230009105A105B1055CF00597A109B10980933D
:103240006B0590936C05A0936D05B0936E0540914E
:103250006B0550916C0560916D0570916E05409302
:10326000C6145093C7146093C8147093C91485E1B1
:1032700094E10E946E5F81E080936D0980936A05FE
:1032800010926C0982EB90E09093600980935F0943
:10329000669B02C00C94A72C0C94A42C0E9470C5B1
:1032A0008091000290910102A0910202B09103026C
:1032B0008093810590938205A0938305B093840544
:1032C00080912A0290912B029093800580937F0534
:1032D00084E690E090932B0280932A020E9458A4E7
:1032E00011E010930B0288E50E942B8AE82E89E5F5
:1032F0000E942B8A082F8AE50E942B8AF82EE11063
:1033000005C0011105C0982F912705C0011102C009
:1033100090E001C0982F9093040280E1E5E3F7E08C
:10332000ACE4B7E001900D928A95E1F7911104C0E9
:10333000E11002C00023D9F120E030E040E450E485
:103340006091310770913207809133079091340773
:103350000E9487DD20911F16309120164091211682
:10336000509122160E9487DD609354077093550791
:10337000809356079093570720913D0730913E0761
:1033800040913F07509140070E94ADDF18167CF432
:1033900019821A821B821C829E012F5F3F4F44E5D7
:1033A00057E069E377E085E397E00E94DA8880914F
:1033B0000402811102C0EE2021F080E090E00E9422
:1033C00093BA80910402811102C0002321F081E0B0
:1033D00090E00E9493BA80910402811102C0FF2004
:1033E00021F082E090E00E9493BA0E948EC080910A
:1033F000460980930B028091810590918205A091EE
:103400008305B09184058093000290930102A093FC
:103410000202B093030280917F0590918005909302
:103420002B0280932A020E9458A40E942F870C949A
:10343000A42C10927C050C94A42C81E080937C0534
:103440000C94A42C85E40E942B8AB82E811102C012
:103450000E9470C53EED832E32E0932E45E3C42ECC
:1034600047E0D42E57E1E52E56E1F52E00E010E0BE
:10347000A12CD4018D914D010E942B8A882309F43F
:103480004EC0F6012081318142815381C257DF4F06
:103490002883CE58D040C157DF4F3883CF58D04013
:1034A000C457DF4F4883CC58D040C357DF4F5883B1
:1034B000CD58D0400E94D4BCD6016D937D938D939E
:1034C0009C931397C257DF4F2881CE58D040C157E5
:1034D000DF4F3881CF58D040C457DF4F4881CC5898
:1034E000D040C357DF4F5881CD58D040033011052D
:1034F000B1F00E9486DD9B01AC01F7016081718112
:10350000828193810E9487DDD7016D937D938D9396
:103510009C931397C8010E94DE89AA24A3940F5F8D
:103520001F4FB4E0CB0ED11CE4E0EE0EF11C0430D2
:10353000110509F09ECFAA2019F00E948EC006C086
:10354000BB2021F081E497E00E94AB900E942F877E
:103550000C94A42CFFE6EF16F10409F488C508F0DA
:10356000D4C03AE2E316F10409F40EC508F06EC0C7
:1035700057E1E516F10409F49FC2B0F592E1E916AE
:10358000F10411F40C94B024F8F4B2E0EB16F10459
:1035900008F4D1C1E1E1EE16F10411F00C94A42C71
:1035A00060E080EB92E00E944C765F988A984798A2
:1035B0009FB7F894809108018E7F809308019FBF88
:1035C000479812980C94A42CF5E1EF16F10409F435
:1035D00069C208F06BC234E1E316F10411F00C94F7
:1035E000A42CE8ECF2E01BC24BE1E416F10409F470
:1035F00081C268F489E1E816F10409F464C208F0B4
:103600006BC20E94BC6A0E940D540C94A42CAEE1C3
:10361000EA16F10409F4AAC268F4ECE1EE16F1042A
:1036200011F00C94A42C40E060E0C8010E94714E9F
:103630000C94A42CFFE1EF16F10409F4FDC320E281
:10364000E216F10409F4AAC30C94A42C35E5E316A0
:10365000F10411F40C94D92428F551E5E516F10490
:1036600011F40C94922488F49CE4E916F10409F412
:103670008FC4ADE4EA16F10409F4A4C4BBE4EB166C
:10368000F10411F00C94A42C7FC4E3E5EE16F104D0
:1036900011F40C94AC2410F00C94B02410927B051F
:1036A0000C94A42C2AE6E216F10411F40C945B2489
:1036B000C0F448E6E416F10409F488C408F062C5D1
:1036C0008CE5E816F10411F00C94A42C7EEDC72EC5
:1036D00072E0D72EE1E1EE2EE1E1FE2E10E00C9437
:1036E000EA249CE6E916F10409F42DC510F40C94C3
:1036F0008024BDE6EB16F10409F465C5EEE6EE168E
:10370000F10409F4A1C40C94A42CF3EDEF16F10418
:1037100011F40C942D2808F087C03CE8E316F1045E
:1037200009F419C598F555E7E516F10411F40C9460
:103730007925B0F492E7E916F10411F40C946925A7
:10374000A3E7EA16F10411F40C946C25B0E7EB162C
:10375000F10411F00C94A42C81EB93E00E94F5BBD2
:10376000E8E7EE16F10411F40C940226F9E7EF16DF
:10377000F10411F40C94082627E7E216F10411F085
:103780000C94A42CE0E2F5E00C947E2539ECE316D1
:10379000F10411F40C94CA2698F45EEBE516F104DA
:1037A00009F4D5C688ECE816F10411F40C948126CE
:1037B00091E9E916F10411F00C94A42C0C940D2657
:1037C000ACECEA16F10411F40C94002788F4EBEC4D
:1037D000EE16F10411F00C94A42C18EEE12E15E174
:1037E000F12E0EED12E084E0D82ED00E0C94F126CE
:1037F000FDECEF16F10411F40C946A272EECE2169E
:10380000F10411F00C94A42CFEEDAF2EF2E0BF2ECB
:10381000A5E3CA2EA7E0DA2EB9E2EB2EB7E0FB2E25
:1038200000E010E00C94D5273AE9E31631E0F30606
:1038300009F48DC4A8F55CE2E51651E0F50611F433
:103840000C945928A0F49DEDE916F10411F40C94A0
:103850003D28A2EEEA16F10411F40C945628BCEDB2
:10386000EB16F10411F00C94A42C0C943028EFE228
:10387000EE16E1E0FE0611F40C945C28F0E9EF1678
:10388000F1E0FF0611F40C94412B2DE2E21621E049
:10389000F20611F00C94A42C0E943E8A0C94A42CE5
:1038A00036EFE31631E0F30611F40C94452C18F5CD
:1038B00054EFE51651E0F50611F40C943F2C10F08E
:1038C0000C94422C9CEAE91691E0F90611F00C9454
:1038D000A42C85E3282E87E0382EA9E2B7E0BCAF00
:1038E000ABAFE3E6F5E12196FFAFEEAF219700E045
:1038F00010E00C94442BAAE9EA16A2E0FA0611F4AF
:103900000C940E2848F4E7EFEE16E1E0FE0611F401
:103910000C94482C0C94A42CF0EAEF16F3E0FF066C
:1039200009F480C227EEE21623E0F20611F40C94AB
:10393000542C0C94A42C80E50E942B8A882361F0DF
:103940000E94C9BC6B017C01BB24B394672B682B1C
:10395000692B31F4B12C04C0B12CC12CD12C7601CF
:1039600083E50E942B8A882399F00E941C8C6B01AE
:103970007C01B1100FC0672B682B692B59F4D8015B
:103980008C91882339F061E0C8010E94617607C0FC
:10399000BB20A9F360E08FE992E00E944C7681E0C1
:1039A00080936F050E9470C50E9458A4C114D10471
:1039B000E104F104E9F080912D1590912E15A0916C
:1039C0002F15B0913015C80ED91EEA1EFB1E0E949D
:1039D0006470DC01CB018C199D09AE09BF09B7FFEA
:1039E0001AC080916F058823B1F00E94FF92EFCF3B
:1039F00080916F05882319F00E94FF92F9CF809182
:103A00004A1260E0882319F080E992E002C08EE754
:103A100092E00E944C7610926F050C94A42C849135
:103A20008F010F5F1F4F882321F00E9463A4F801CC
:103A3000F6CF1092D0141092CF1440E050E0BA01AB
:103A40008BE792E10E946E5F8BE1EBE7F2E1DE0132
:103A5000159601900D928A95E1F7809179129091D7
:103A60007A129C838B8384EB93E09A83898340E072
:103A700050E0BE016F5F7F4F83EC94E00E946C6B5F
:103A8000CE0101960E94EDBBE9EBF2E084918F013B
:103A90000F5F1F4F882311F40C94A42C0E9463A481
:103AA000F801F4CF0E946D680C94A42C10924A1275
:103AB00010924B120C94A42C40E061E0C8010E94CB
:103AC000714E0C94A42C81E08093F2088093EB0952
:103AD00010924A120C94A42C80914B12882311F45A
:103AE0000C94A42C83E50E942B8A81110C94B82C91
:103AF0000C94A42C80914B12882351F1E9EDF2E053
:103B000084918F010F5F1F4F882321F00E9463A4CF
:103B1000F801F6CF6091C6147091C7148091C81453
:103B20009091C9144AE00E9490A48FE20E9463A47D
:103B30006091C2147091C3148091C4149091C51403
:103B40004AE00E9490A48AE00E9463A40C94A42CF2
:103B5000EBEEF2E084918F010F5F1F4F882311F489
:103B60000C94A42C0E9463A4F801F4CF80914B1212
:103B7000882311F40C94A42C85E194E10E942D5F1C
:103B800085E194E10E94B8651092491210924812A2
:103B9000E0907D05F0907E0580914B12882311F412
:103BA0000C94A42C0E94664E1D8218861C821B82D7
:103BB00084EB93E09A83898387E792E1909397124D
:103BC00080939612F70180818F3209F068C06FE20E
:103BD00070E0C7010E94DAE08C010F5F1F4F9E0169
:103BE0002F5F3F4F49010115110509F45EC06FE2D7
:103BF00070E0C8010E94DAE06C01009709F456C039
:103C00000817190708F052C05C01A01AB10AA501F3
:103C1000B801CE0180960E9403E1E0E2F0E0EC0FF3
:103C2000FD1FEA0DFB1D10828E01005E1F4FD801A3
:103C30008D918D01882319F00E9463A4F8CF8AE04A
:103C40000E9463A46091961270919712611571059C
:103C500011F06C5F7F4F21E0AE01405E5F4FCE01FF
:103C600005960E94C065811112C0BE01605E7F4F43
:103C700082E293E00E946AA48EE20E9463A48AE03A
:103C80000E9463A4C4010E94EDBB0C94A42C9092EA
:103C900097128092961286010F5F1F4FA4CF88E97A
:103CA00092E19093971280939612870160919612F9
:103CB000709197126115710511F06C5F7F4F18A21A
:103CC0001BA222E0A801CE0180960E94C06581114E
:103CD00002C0F12C1EC0CE0180960E94DA6A8823B1
:103CE000C1F36CA57DA58EA59FA541E00E947D5DD9
:103CF000882379F3E8A9B0E2EB9FF0011124E451A5
:103D0000F64F309731F385EE80831BA20E943D5D14
:103D1000F82ECE0180960E9420A4FF2009F1ECEF3E
:103D2000F2E084917F012FEFE21AF20A882321F05A
:103D30000E9463A4F701F5CFD8018D918D018823EE
:103D400019F00E9463A4F8CF8AE00E9463A4109245
:103D5000C6141092C7141092C8141092C91418C037
:103D6000EAE0F3E084917F01BFEFEB1AFB0A8823BE
:103D700021F00E9463A4F701F5CFF80181918F0132
:103D8000882319F00E9463A4F8CF8EE20E9463A4F6
:103D9000CE0101960E94EDBB0C94A42C80914A1296
:103DA00081110E9470C500917D0510917E0561E230
:103DB00070E0C8010E94DAE0009719F08C010F5FF3
:103DC0001F4F80E50E942B8A882349F0FF24F3943B
:103DD00080917005909171058017910708F0F12C82
:103DE00080914B12882311F40C94A42C4F2D61E088
:103DF000C8010E94714E83E50E942B8A882349F0F6
:103E000080917005909171058017910710F40C94C2
:103E1000C92C0E94BC6AF1100C94A42C0E940D5471
:103E20000C94A42C81E08093491240E060E0C8012A
:103E30000E94714E0C94A42C0E94876A2CE3C22E1F
:103E4000D12CE12CF12CA70196010E944BDD762E9E
:103E5000672ECA01B901A70196010E944BDD6B01D3
:103E60007C01CA01B90128E130E040E050E00E9445
:103E70004BDD4B015C01C9016DE671E00E944FE032
:103E80008E010F5F1F4F6115710599F06F927F9240
:103E9000DF92CF929F928F929F938F937F936F9396
:103EA0008EE593E09F938F931F930F930E9441D9C8
:103EB00012C00097B1F06F927F92DF92CF929F92E3
:103EC0008F929F938F938EE493E09F938F931F9392
:103ED0000F930E9441D90FB6F894DEBF0FBECDBF3D
:103EE00036C081149104A104B10479F06F927F92DD
:103EF000DF92CF929F928F9282E493E09F938F9371
:103F00001F930F930E9441D9E6CFC114D104E1045D
:103F1000F10469F06F927F92DF92CF928AE393E08F
:103F20009F938F931F930F930E9441D9D4CF6F9289
:103F30007F9286E393E09F938F931F930F930E944A
:103F400041D90F900F900F900F900F900F9060E05D
:103F5000C8010E946176ECECFCE184917F01BFEF27
:103F6000EB1AFB0A882321F00E9463A4F701F5CF26
:103F7000B80182E793E00E946AA48AE00E9463A4E9
:103F80000E9426A40C94A42C0E940D540C94A42CE2
:103F900080913A1290913B12019711F00C94A42C4D
:103FA00082E090E090933B1280933A120E946470FA
:103FB0006093441270934512809346129093471277
:103FC0000C94A42C0E94428D0C94A42C88E690E0C2
:103FD0000E94DC8B81110C94A42C8091111683FF1C
:103FE00002C00C94A42C83E50E942B8A882341F103
:103FF0000E94D4BC0E94E5BB0E94D4BC20E030E00B
:104000004AEA52E40E9470D918163CF00E94428D90
:1040100060E08AE893E00E944C760E94D4BC209134
:1040200030113091311140913211509133110E9471
:10403000ADDF18162CF460E08FE793E00E944C7619
:104040000E94EED20C94A42C8EE40E942B8A88232A
:1040500011F40C94A42C0E94C1D460937205709347
:10406000730580937405909375050C94A42C83E5D7
:104070000E942B8A882319F00E948DBC01C080E029
:1040800080931116ECECFCE184918F010F5F1F4FC0
:10409000882321F00E9463A4F801F6CFEAEAF3E056
:1040A00084918F010F5F1F4F882321F00E9463A42A
:1040B000F801F6CF809111168823A1F10CE9C02EEA
:1040C00003E0D02EE12CF12C20E08091111690E03D
:1040D0000E2C02C0959587950A94E2F780FF17C0D1
:1040E000BB24B394B20E222319F08CE20E9463A485
:1040F000F60125913491F901849189010F5F1F4FD9
:10410000882321F00E9463A49801F5CF2B2DFFEFA7
:10411000EF1AFF0A32E0C30ED11C45E0E416F104A9
:10412000A1F60CC0E6EAF3E084918F010F5F1F4F08
:10413000882321F00E9463A4F801F6CF8AE00E9450
:1041400063A40C94A42C109227020C94A42C0E941B
:10415000E3860C94A42C8091111683FF02C00C946A
:10416000A42C83E50E942B8A882311F40C94A42CA0
:104170000E94D4BC0E94CBDE7093620960936109F7
:104180000C94A42C89E690E00E94DC8B81110C94A5
:10419000F72E80914A12811103C081E08093490774
:1041A000EAEBF3E084918F010F5F1F4F882321F02A
:1041B0000E9463A4F801F6CF0E94EE878AE00E9475
:1041C00063A40C94F72E8DE690E00E94DC8B8111A5
:1041D0000C94A42C8091111683FF02C00C94A42C83
:1041E00083E50E942B8A28968FAF289781110C9423
:1041F000DB2C82E50E942B8A81110C94DB2C08C0F9
:104200008DE090E00E9486928AE090E00E94869283
:104210000E94EED281E08093270223961CAE1DAE51
:104220001EAE1FAE239727961CAE1DAE1EAE1FAE50
:1042300027971BAE2C961FAE2C97FCE36096FFAF22
:1042400060972CE164962FAF649736E468963FAF91
:104250006897C12CD12CB0E8EB2E1FEBF12E812CEE
:10426000912C540160912E1170912F11072E000C8A
:10427000880B990B0E9476D9162F072F782E692E5E
:10428000262F372F482F592FB601C7010E9470D90A
:10429000882321F120913011309131114091321158
:1042A00050913311612F702F872D962D0E9470D958
:1042B000881F8827881F8BAF28964FAD28974423E7
:1042C00089F0882379F080912702882309F4F3C0CC
:1042D00060E089EC93E00E944C76EDC01C2D0D2D22
:1042E0007E2C6F2C0E9464706B017C01DC01CB0181
:1042F00027962CAD3DAD4EAD5FAD2797821B930B3E
:10430000A40BB50BB7FD47C0D701C60188519C4F20
:10431000AF4FBF4F27968CAF9DAFAEAFBFAF2797C4
:104320000E94EE87EAEDF3E084912F019FEF491A96
:10433000590A882321F00E9463A4F201F5CF811469
:104340009104A104B104D1F0D501C401805F984D5E
:10435000AF4FBF4FBC01CD016C197D098E099F097C
:1043600028EE33E040E050E00E944BDDCA01B90185
:104370000E9411A58AE00E9463A40DC0E7EDF3E05E
:1043800084912F01AFEF4A1A5A0A882321F00E9424
:1043900063A4F201F5CF0E94FF920E9458A42090DE
:1043A0003011309031114090321150903311910101
:1043B000A201612F702F872D962D0E9486DD9F7799
:1043C00081149104A104B10449F420E030E040E8F4
:1043D0005FE30E9470D987FF0BC008C020E030E087
:1043E00040E450E40E94ADDF181614F44601570172
:1043F000BBADBB2309F443C023962CAD3DAD4EAD00
:104400005FAD2397211531054105510541F0D701D5
:10441000C601821B930BA40BB50BB7FD30C09101F5
:10442000A2012C966FAD2C9760967FAD6097649635
:104430008FAD649768969FAD68970E9486DD20E0F7
:1044400030E040EC5FE30E9470D987FD3CCFD7019C
:10445000C601805A9541AF4FBF4F23968CAF9DAF99
:10446000AEAFBFAF23972C962FAE2C9760963FAE82
:10447000609764964FAE649768965FAE6897809138
:104480002702882309F41FCF81149104A104B104E9
:1044900029F4C12ED02EE72CF62CE4CE90E1C91AD7
:1044A00097E2D90AE108F108C818D908EA08FB0818
:1044B000F7FE09CFEECFE5ECF3E084918F0188237E
:1044C00051F0082E000C990B0E9486920F5F1F4F2F
:1044D000F8018491F4CF8DE090E00E9486928AE00A
:1044E00090E00E94869280914A128823D1F0E1ECFC
:1044F000F3E084918F01882351F0082E000C990B72
:104500000E9486920F5F1F4FF8018491F4CF8DE0D7
:1045100090E00E9486928AE090E00E9486920C943D
:10452000A42C80914A07882311F40C94A42CEDEB61
:10453000F3E084918F01882351F3082E000C990B2E
:104540000E9486920F5F1F4FF8018491F4CF8091F3
:10455000111683FF02C00C94A42CE1E2F4E08491D4
:104560008F01882351F0082E000C990B0E9486922F
:104570000F5F1F4FF8018491F4CF8DE090E00E940F
:1045800086928AE090E00E94869260E084E194E066
:104590000E944C7683E50E942B8A28968FAF28973D
:1045A000811105C082E50E942B8A8823A1F00E9418
:1045B000D4BC0E94CBDE70936209609361090E94B3
:1045C000D4BC20E030E040EA50E40E94ADDF181691
:1045D00014F40E940D5481E08093270280917705A6
:1045E0008093760523961CAE1DAE1EAE1FAE23979C
:1045F00027961CAE1DAE1EAE1FAE27971BAE2C9687
:104600001FAE2C97FCE36096FFAF60972CE1649699
:104610002FAF649736E468963FAF6897C12CD12CD2
:10462000F0E8EF2EAFEBFA2E812C912C5401609123
:10463000610970916209072E000C880B990B0E948A
:1046400076D9162F072F782E692E262F372F482F31
:10465000592FB601C7010E9470D9882321F12091FA
:104660006615309167154091681550916915612F55
:10467000702F872D962D0E9470D9881F8827881F3C
:104680008BAF28964FAD2897442389F0882379F083
:1046900080912702882311F40C94A42CE9E0F4E023
:1046A00084918F01EDC01C2D0D2D7E2C6F2C0E944E
:1046B00064706B017C01DC01CB0127962CAD3DAD14
:1046C0004EAD5FAD2797821B930BA40BB50BB7FDC7
:1046D00047C0D701C60188519C4FAF4FBF4F2796A7
:1046E0008CAF9DAFAEAFBFAF27970E94EE87E0E1E2
:1046F000F4E084912F019FEF491A590A882321F091
:104700000E9463A4F201F5CF81149104A104B104C5
:10471000D1F0D501C401805F984DAF4FBF4FBC01B0
:10472000CD016C197D098E099F0928EE33E040E028
:1047300050E00E944BDDCA01B9010E9411A58AE038
:104740000E9463A40DC0EDE0F4E084912F01AFEF6F
:104750004A1A5A0A882321F00E9463A4F201F5CF75
:104760000E94FF920E9458A4209066153090671511
:1047700040906815509069159101A201612F702F2A
:10478000872D962D0E9486DD9F7781149104A104C8
:10479000B10449F420E030E040E85FE30E9470D9C2
:1047A00087FF0BC008C020E030E040E450E40E94E6
:1047B000ADDF181614F446015701BBADBB2309F455
:1047C00043C023962CAD3DAD4EAD5FAD2397211573
:1047D00031054105510541F0D701C601821B930BFC
:1047E000A40BB50BB7FD30C09101A2012C966FADA3
:1047F0002C9760967FAD609764968FAD64976896AE
:104800009FAD68970E9486DD20E030E040EC5FE3DA
:104810000E9470D987FD3CCFD701C601805A9541CF
:10482000AF4FBF4F23968CAF9DAFAEAFBFAF2397B7
:104830002C962FAE2C9760963FAE609764964FAE45
:10484000649768965FAE689780912702882309F481
:104850001FCF81149104A104B10429F4C12ED02EDC
:10486000E72CF62CE4CE90E1C91A97E2D90AE108C8
:10487000F108C818D908EA08FB08F7FE09CFEECFFF
:10488000882351F0082E000C990B0E9486920F5F2E
:104890001F4FF8018491F4CF8DE090E00E94869242
:1048A0008AE090E00E94869260E08FEF93E00E94A1
:1048B0004C760C94A42C83E50E942B8A882321F04B
:1048C0000E94B5D48C0102C003EB10E080E50E9489
:1048D0002B8A882319F00E94B5D402C080E090E0B2
:1048E0009801033B110510F022EB30E0892B11F009
:1048F0000C94A42C3093600920935F090C94A42C91
:1049000080E50E942B8A811106C0109260091092E6
:104910005F090C94A42C0E94B5D4892B11F00C943F
:10492000A42CF3CF0E9498C00E9470C50E94A69A42
:104930001092600910925F0968EE73E080E090E0E9
:104940000E942C7060E085E294E00E944C760E9408
:1049500072760E94112FF8C781E080937B05F4C71F
:1049600083E50E942B8A882359F00E941C8C609357
:104970009202709393028093940290939502E4C7FD
:1049800088E50E942B8A8111B7C789E50E942B8A8E
:104990008111B2C78AE50E942B8A8111ADC785E4D7
:1049A0000E942B8A8111A8C70E9470C50E94A69AF6
:1049B000CBC783E50E942B8A882309F4C5C70E94D0
:1049C0001C8C60933115709332158093331590933E
:1049D0003415BAC7D6018D916D010E942B8A8823A8
:1049E00009F46DC0133009F063C00E94D4BC4B01C0
:1049F0005C0120E030E040EA51E40E9470D987FF7A
:104A00004EC0A501940160911D1170911E118091FD
:104A10001F11909120110E9463DE2B013C019B012C
:104A2000AC01609104167091051680910616909164
:104A300007160E94D5D960930416709305168093CB
:104A4000061690930716A30192016091F4157091D8
:104A5000F5158091F6159091F7150E94D5D96093C0
:104A6000F4157093F5158093F6159093F7156091F2
:104A7000260C7091270C8091280C9091290C0E9493
:104A800074D9A30192010E94D5D90E94D0DE60930F
:104A9000260C7093270C8093280C9093290C8092FD
:104AA0001D1190921E11A0921F11B092201107C0EB
:104AB0000E94D4BCF70160837183828393831F5F5C
:104AC000F4E0EF0EF11C143009F084CF0E941B8536
:104AD0003BC70E942F8738C7E5E3F4E084918F013C
:104AE0000F5F1F4F882309F42FC70E9463A4F801AA
:104AF000F5CF60E0C8010E94617626C784918F01DE
:104B00000F5F1F4F882321F00E9463A4F801F6CFA6
:104B1000E8E1F5E084918F010F5F1F4F882321F0BA
:104B20000E9463A4F801F6CF659B03C00FEE13E06B
:104B300002C004EF13E0D8018D918D01882319F094
:104B40000E9463A4F8CF8AE00E9463A4E0E1F5E04C
:104B500084918F010F5F1F4F882321F00E9463A46F
:104B6000F801F6CF8091090187FF03C00FEE13E033
:104B700002C004EF13E0F80181918F01882319F03E
:104B80000E9463A4F8CF8AE00E9463A4E8E0F5E005
:104B900084918F010F5F1F4F882321F00E9463A42F
:104BA000F801F6CF4B9B03C00FEE13E002C004EFF9
:104BB00013E0D8018D918D01882319F00E9463A420
:104BC000F8CF8AE00E9463A4EFEFF4E084918F01B4
:104BD0000F5F1F4F882321F00E9463A4F801F6CFD6
:104BE0008091090186FF03C00FEE13E002C004EFBD
:104BF00013E0F80181918F01882309F49FCA0E9474
:104C000063A4F7CF81E080930B02809346099CC692
:104C100010920B021092460997C683E50E942B8AD8
:104C20008823F1F00E94BCBC182F8230D0F0E2EA59
:104C3000F2E184918F010F5F1F4F882321F00E94C2
:104C400063A4F801F6CFEAE3F5E084918F010F5FEA
:104C50001F4F882309F478C60E9463A4F801F5CF9A
:104C600010E088E40E942B8A8823B1F00E94BCBC2B
:104C7000E12FF0E08A3A91053CF08F3021E0920775
:104C80002CF08EE091E002C08AEA90E0EE0FFF1F68
:104C9000EF5CF64F9183808386E40E942B8A882301
:104CA000A1F00E94BCBCE12FF0E0EE0FFF1FEB5C17
:104CB000F64F8F3F910519F014F08FEF90E097FFBA
:104CC00002C080E090E09183808382E40E942B8A7E
:104CD000882309F439C60E94BCBCE12FF0E085307E
:104CE000910534F0883891052CF087E890E002C0F7
:104CF00085E090E0EE0FFF1FE35DF64F9183808328
:104D000023C688EC90E00E94DC8B81111DC684E4F0
:104D10000E942B8A882309F417C60E94D4BC11E094
:104D200020E030E0A9010E9470D9811101C010E09B
:104D300010930F0C112359F10091760510E00E9499
:104D4000D4BC000F111F000F111FF801E55BFD4FD0
:104D5000608371838283938320E030E0A9016091B6
:104D60004B0270914C0280914D0290914E020E9434
:104D700070D981110CC080E090E0A0EEBFE3809379
:104D80004B0290934C02A0934D02B0934E020E94AE
:104D9000B492DAC590EDE92E95E1F92E0EED12E010
:104DA00024E0D22ED00ED8018D918D010E942B8A45
:104DB000882349F00E94D4BC0E94D0DEF7016083B2
:104DC000718382839383F4E0EF0EF11CD012EBCF5A
:104DD0000E94EE83B9C5F4E0EF0EF11CD01609F481
:104DE000B3C5D8018D918D010E942B8A882399F338
:104DF0000E94D4BCF7016083718382839383EBCFDD
:104E000083E50E942B8A8823D9F00E94D4BCAB0191
:104E1000BC01409308165093091660930A167093CC
:104E20000B164093C8155093C9156093CA1570931B
:104E3000CB1586EB95E00E94CEA58AE00E9463A484
:104E400080E50E942B8A882399F00E94D4BCAB0194
:104E5000BC01409308165093091660930A1670938C
:104E60000B1689E995E00E94CEA58AE00E9463A412
:104E700082E50E942B8A882399F00E94D4BCAB0162
:104E8000BC014093CC155093CD156093CE15709313
:104E9000CF158AE795E00E94CEA58AE00E9463A420
:104EA00084E50E942B8A882309F44EC50E94D4BC55
:104EB000AB01BC014093C8155093C9156093CA1546
:104EC0007093CB158CE595E00E94CEA58AE00E94F8
:104ED00063A43AC583E50E942B8A882351F00E947F
:104EE000D4BC6093E4157093E5158093E615909318
:104EF000E71584E50E942B8A882351F00E94D4BCD8
:104F00006093E0157093E1158093E2159093E3159B
:104F100082E40E942B8A882351F00E94C9BC6093CE
:104F20000D1670930E1680930F169093101688E549
:104F30000E942B8A882351F00E94D4BC6093F815FC
:104F40007093F9158093FA159093FB1589E50E94EB
:104F50002B8A882351F00E94D4BC6093FC15709377
:104F6000FD158093FE159093FF158AE50E942B8A0C
:104F7000882351F00E94D4BC6093001670930116F0
:104F8000809302169093031685E40E942B8A88234F
:104F900009F4DAC40E94D4BC609304167093051619
:104FA0008093061690930716CFC4D5018D915D01AD
:104FB0000E942B8A882311F10E94D4BC2B013C0152
:104FC000F70120813181428153810E9486DD9B015E
:104FD000AC01D6016D917D918D919C910E9487DDF0
:104FE000F6016083718382839383D7014D925D9232
:104FF0006D927C921397C8010E94DE890F5F1F4F4C
:10500000B4E0CB0ED11CE4E0EE0EF11C0330110530
:1050100061F60E948EC00E942F8796C48AE50E9486
:105020002B8A882351F00E94D4BC60934709709367
:1050300048098093490990934A0940914709509142
:1050400048096091490970914A098EED95E00E94E6
:10505000CEA58AE00E9463A477C40E94528C74C4D7
:1050600083E50E942B8A882309F46EC40E94BCBC8D
:1050700090932B0280932A0267C48DED90E00E94EA
:10508000DC8B811161C483E50E942B8A882309F49B
:105090005BC40091760510E00E94BCBC000F111F9C
:1050A000F801E85DFD4F918380834EC40E94148B0C
:1050B0004BC40E94D88A48C485E40E942B8A882366
:1050C00021F00E94BCBC7C0102C0E12CF12C83E4E5
:1050D0000E942B8A882349F00E94BCBCCB57DF4F2B
:1050E00099838883C558D04008C025E030E0CB576D
:1050F000DF4F39832883C558D04085E50E942B8A2D
:10510000882341F00E94268CC957DF4F8883C758F7
:10511000D04005C0C957DF4F1882C758D04083E53B
:105120000E942B8A882379F00E94D4BC28966FAF06
:10513000289724967FAF24972C968FAF2C97609654
:105140009FAF609710C028961FAE289724961FAE79
:105150002497F7FC0EC036E12C963FAF2C9743E422
:1051600060964FAF6097E114F10459F41092760500
:1051700008C05CE82C965FAF2C9782E460968FAFF6
:1051800060970E9464704B015C01EF2819F40EEFE8
:1051900013E00CC001E114E0D8018D918D0188234A
:1051A00011F40C949E200E9463A4F6CFF801819123
:1051B0008F01882319F00E9463A4F8CF8AE00E942F
:1051C00063A40E9498C08DE78093621581E080936C
:1051D0002702C358DF4F88829982AA82BB82CD57AB
:1051E000D040C857DF4F88829982AA82BB82C858B4
:1051F000D04068961FAE6897F0E46C96FFAF6C974E
:105200002CE1A0962FAFA09736E4A4963FAFA497C9
:10521000A8961FAEA897AC961FAEAC97E0961FAEAF
:10522000E097E4961FAEE497EC961CAE1DAE1EAE62
:105230001FAEEC97E8961CAE1DAE1EAE1FAEE897F3
:10524000C12CD12C76018DE790E0A0E0B0E08BAFCF
:105250009CAFADAFBEAF7DE7472E512C612C712CBA
:10526000CF57DF4F188219821A821B82C158D04053
:1052700091E0ED969FAFED9765961FAE1EAE6597D8
:1052800010E000E0312C212C80912702882309F4C2
:10529000F1C10E94647023966CAF7DAF8EAF9FAF5B
:1052A000239780916015882309F4E7C00E945BC1B1
:1052B0001091301100913111309032112090331142
:1052C000212F302F432D522DA8966FADA897AC9665
:1052D0007FADAC97E0968FADE097E4969FADE497F5
:1052E0000E9470D987FF0CC0A8961FAFA897AC96F4
:1052F0000FAFAC97E0963FAEE097E4962FAEE49701
:10530000212F302F432D522D68966FAD68976C96E4
:105310007FAD6C97A0968FADA097A4969FADA497F4
:105320000E94ADDF181664F468961FAF68976C96FC
:105330000FAF6C97A0963FAEA097A4962FAEA49700
:10534000ED96AFADED9728962FAD289724963FADFB
:1053500024972C964FAD2C9760965FAD6097612F88
:10536000702F832D922DAA2309F469C00E94ADDF0E
:1053700018160CF082C023962CAD3DAD4EAD5FAD3E
:105380002397281939094A095B09C057DF4F288339
:1053900039834A835B83C059D040DA01C9018858F8
:1053A0009341A109B109B7FD68C0D301C2012BAD7A
:1053B0003CAD4DAD5EAD821B930BA40BB50BB5950B
:1053C000A7959795879580936215C057DF4F888181
:1053D0009981AA81BB81C059D040CF57DF4F8883C4
:1053E0009983AA83BB83C158D04028969FAD289744
:1053F000A8969FAFA8972496AFAD2497AC96AFAF71
:10540000AC972C96BFAD2C97E096BFAFE097609617
:10541000EFAD6097E496EFAFE49723962CAD3DADEA
:105420004EAD5FAD2397C358DF4F288339834A833E
:105430005B83CD57D040ED961FAEED971EC00E9406
:1054400070D987FF1AC023968CAD9DADAEADBFADB0
:105450002397C358DF4F288139814A815B81CD571B
:10546000D040821B930BA40BB50BAC01BD01485877
:1054700053416109710977FFE3C220E030E040EA5F
:1054800051E428966FAD289724967FAD24972C96EB
:105490008FAD2C9760969FAD60970E9487DD9B0132
:1054A000AC01612F702F832D922D0E94ADDF181655
:1054B0006CF4EAEBF6E084918F010F5F1F4F8823B5
:1054C00009F442C20E9463A4F801F5CF80E398EF8B
:1054D000AFEFBFEFC857DF4F288139814A815B8129
:1054E000C858D040821B930BA40BB50B23962CAD50
:1054F0003DAD4EAD5FAD2397820F931FA41FB51F27
:10550000B7FD13C00E94EE878AE00E9463A4239631
:105510008CAD9DADAEADBFAD2397C857DF4F88832F
:105520009983AA83BB83C858D04023968CAD9DAD88
:10553000AEADBFAD2397880F991FAA1FBB1FC358DD
:10554000DF4F288139814A815B81CD57D040821B52
:10555000930BA40BB50B88199909AA09BB098138CB
:105560009F44A241B10568F0ECE9F6E084918F0117
:105570000F5F1F4F882309F4E7C10E9463A4F8015D
:10558000F5CF65964EAD5FAD6597CB57DF4F888100
:105590009981C558D040841795070CF068C0EFE397
:1055A000F6E084918F010F5F1F4F882321F00E9446
:1055B00063A4F801F6CFB701A6018AE296E00E9443
:1055C000CEA58AE00E9463A4E8964CAD5DAD6EADB9
:1055D0007FADE89785E196E00E94CEA58AE00E9423
:1055E00063A4EC964CAD5DAD6EAD7FADEC9780E005
:1055F00096E00E94CEA58AE00E9463A4C957DF4FBF
:105600009881C758D040992309F49EC1C0920C02DA
:10561000D0920D02E0920E02F0920F022CE933E5D7
:1056200049E45EE3E8966CAD7DAD8EAD9FADE89745
:105630000E94D5D9609314027093150280931602CC
:10564000909317022CE933E549E45EE3EC966CADE8
:105650007DAD8EAD9FADEC970E9463DE609310022E
:105660007093110280931202909313026DC10E94F5
:1056700072760ACE80912702811166C10E9498C07D
:1056800063C10E9470C560C121962EAD3FAD2197C8
:105690002356354129963FAF2EAF29972196AEADBF
:1056A000BFAD21978D912196BFAFAEAF21978823D3
:1056B00009F4B0C0F801E35DFD4F208131814281E2
:1056C0005381F801EE52F64F60817181828193819E
:1056D0000E9487DD20E030E040E05FE30E94D5D902
:1056E0009B01AC01F10160817181828193810E94F3
:1056F000ADDF181634F4C8018951904E0E941AA4E7
:1057000003C060E070E0CB01D1014D905D906D90E1
:105710007C90EBADFCADC080D180E280F380A7012E
:1057200096010E9487DDF801E95EF94E2081318102
:10573000428153810E9487DD9B01AC01C301B2010C
:105740000E9486DD4B015C0120E030E040EA51EC34
:105750000E94ADDF18167CF520E030E040EA51E40D
:10576000C501B4010E9470D987FF25C0A50194012D
:10577000C701B6010E9486DD4B015C01A7019601BD
:105780000E9486DD9B01AC01C301B2010E9487DD4E
:10579000D1016D937D938D939C931397EBADFCADED
:1057A00080829182A282B38229968EAD9FAD299785
:1057B0000E94DE892FC0E2EAF2E184918F010F5F3F
:1057C0001F4F882321F00E9463A4F801F6CFECE478
:1057D000F7E084918F010F5F1F4F882321F00E9413
:1057E00063A4F801F6CF61E08EE397E00E944C7667
:1057F0000E94709B88E290E09A83898388EC90E015
:1058000099A388A3BE016F5F7F4FCE0180960E944F
:1058100082CF9AC0F4E02F0E311C0C5F1F4F2BADCE
:105820003CAD2C5F3F4F3CAF2BAF0C30110509F066
:105830002BCF0E948EC00E942F8760E08EE297E0FF
:105840000E944C7683E992E099A388A308EC10E0CB
:105850001A830983BE01605E7F4FCE0101960E94CC
:1058600082CF8AEB92E099A388A31A830983BE01B1
:10587000605E7F4FCE0101960E9482CF65C00E947C
:10588000584C62C00E94554A5FC00E94C1485CC02B
:1058900083E50E942B8A882321F00E94268C91E0C8
:1058A00089270E94364550C081E08093DD02109226
:1058B000FC0B83E50E942B8A882309F47CC20E949A
:1058C000268C811141C077C2E0927705ECECFCE1B7
:1058D00084918F010F5F1F4F882321F00E9463A4E2
:1058E000F801F6CFB70177278AE697E00E942BA54B
:1058F0008AE00E9463A428C00E9470C588E50E94C7
:105900002B8A882319F05F9A1092260789E50E9456
:105910002B8A882321F08A9A479A109227078AE5D2
:105920000E942B8A882359F09FB7F8948091080130
:105930008160809308019FBF479A1092280785E4F1
:105940000E942B8A8111129A0E94B5C550C281E033
:1059500080936E0983EF91EA909348028093470207
:1059600080916A008F7C806180936A00EE9AECCF10
:105970000E94C1D4AB01BC014093C6145093C7141C
:105980006093C8147093C91485E194E10E946E5F1E
:10599000DBCF0E94C1D4AB01BC014093C61450932D
:1059A000C7146093C8147093C91485E194E10E94F0
:1059B0006E5F0C94091F0E94D4BC0E94E5BB0E943C
:1059C000D4BC20E030E04AEA52E40E9470D91816B4
:1059D00044F00E94428D60E08DEE93E00E944C7690
:1059E00002C00E940D5460912E1170912F11072E4C
:1059F000000C880B990B0E9476D9209130113091C0
:105A0000311140913211509133110E94ADDF1816BF
:105A10002CF460E082EE93E00E944C76EEEDF3E031
:105A200084918F01882311F40C940021082E000C1E
:105A3000990B0E9486920F5F1F4FF8018491F2CF5D
:105A400065964EAD5FAD6597141615060CF079C1DD
:105A5000CF57DF4F88809980AA80BB80C158D04043
:105A6000880E991EAA1EBB1ECF57DF4F2881398191
:105A70004A815B81C158D040281B390B4A0B5B0B14
:105A8000CA01B9012BAD3CAD4DAD5EAD0E943CDD10
:105A9000A50194010E9476E0420E531E641E751EFD
:105AA00034E14316510461047104FCF047EE4416DE
:105AB0005104610471043CF45EE74516510461042D
:105AC00071040CF105C056EE452E512C612C712C41
:105AD00089EF90E0A0E0B0E084199509A609B70924
